:020000040801F1
:1000000018FA01202103010841BD010865720108A9
:1000100019BD0108712101086500020800000000F7
:10002000000000000000000000000000C1CF010837
:10003000212401080000000011BE0108E5CF0108DD
:100040003B0301083B0301083B0301083B03010894
:100050003B0301083B0301083B0301083B03010884
:100060003B0301083B0301083B0301083B03010874
:100070003B0301083B030108F9210108052201089F
:10008000112201081D2201083B0301083B0301085E
:100090003B0301083B0301083B0301083B03010844
:1000A0003B0301083B0301083B0301083B03010834
:1000B0003B0301083B0301083B0301083B03010824
:1000C0003B0301083B0301083B0301083B03010814
:1000D000F5C901083B0301088DD701083B0301085E
:1000E0003B0301083B0301083B0301083B030108F4
:1000F000FDD001083B0301083B0301083B03010855
:100100003B0301083B0301083B0301083B030108D3
:100110003B0301083B0301083B0301083B030108C3
:100120003B0301083B03010829220108352201088D
:100130003B03010800000000000000003B03010831
:100140003B0301083B0301083B03010861BD0108B3
:100150003B0301083B0301083B0301083B03010883
:100160003B0301083B0301083B0301083B03010873
:100170003B0301083B0301080000000000000000F1
:100180003B0301083B03010800F002F800F0B8F857
:1001900014A696E8000CB244B344DA4501D100F04D
:1001A000AFF8BAE80F000FA696E83000A5EB0405FB
:1001B00004EB0607AAEB0704A7F101074FEA1515A0
:1001C0004FEA3414A4F10104AC4201D300F098F8D2
:1001D00013F0010F18BFFB1A43F0010300F001F800
:1001E000DBE71847AC250D00FC250D000A4410F88C
:1001F000014B14F00F0508BF10F8015B240908BF7C
:1002000010F8014B6D1E05D010F8013B6D1E01F872
:10021000013BF9D1641E03D0641E01F8015BFBD1E0
:100220009142E4D37047000070470000002300248F
:1002300000250026103A28BF78C1FBD8520728BFF6
:1002400030C148BF0B6070476E2900F09487702959
:1002500000F02583662933F07FA3652933F07CA362
:10026000672933F079A3612933F078A303681B0A67
:1002700028BF41F08001692900F00082642900F064
:10028000FD81752900F0FA816F2900F0B382782989
:1002900000F0F182E92901F0F581E42901F0F28111
:1002A000F52901F0EF81EF2900F0B082F82900F084
:1002B000F0820368DB0928BF41F08001632901F067
:1002C000AC81732901F0B181E32901F0CF81F329D9
:1002D00001F0D481002070471FB573F030FB01F0AE
:1002E00095FA04000020002173F05EF9401C606064
:1002F0000020002173F042F9E0601FBD10B510BD71
:1003000001F0D0FE1146FFF7E7FF5BF03BF801F08C
:10031000EEFE03B4FFF7F2FF03BC10F087F8000015
:100320000948804709480047FEE7FEE7FEE7FEE789
:10033000FEE7FEE7FEE7FEE7FEE7FEE704480549C5
:10034000054A064B70470000E9D001088901010801
:1003500018F4012018FA012018F6012018F60120DF
:10036000704753EA020C23D010B54C1084EA5304B2
:1003700004D54042C1F1000138BF491E1B4204D5DB
:100380005242C3F1000338BF5B1E00F049F814F07D
:10039000804F04D04042C1F1000138BF491E14F023
:1003A000004F04D05242C3F1000338BF5B1E10BDA2
:1003B00013B540424FF0000070EB0104B8BF0120BC
:1003C00001F0004100281CBF6FF000414FF0FF30EA
:1003D000AFF300801CBD00000FB4044910B503AAA0
:1003E000029801F027F910BC5DF814FB08330020D7
:1003F00002F0FF0343EA032242EA024200F0ACBDEE
:100400004C494D452D5441472D535400FFFFFFFFEC
:10041000FFFFFFFFFFFFFFFFFFFFFFFF454E440011
:1004200053EA020C00F069802DE9F04B4FF0000612
:10043000002B1FBFB3FA83F503FA05F424FA05F67F
:100440005E4012BF1643B2FA82F502FA05F4C5F116
:1004500020051EBF22FA05FC44EA0C04203556EAAA
:10046000044C4FEA144418BF641C4FF000084FF0CE
:100470000009904271EB030C39D3002919BFB1FA7E
:1004800081F701FA07F6B0FA80F700FA07F6C7F12C
:1004900020071EBF20FA07FC46EA0C062037B6FBF1
:1004A000F4FCA7EB0507103F07F01F0BCBF120066C
:1004B0002CFA06F60CFA0BFB44BFB3460026202F9D
:1004C000A4BF5E464FF0000B5BEA060C08BF4FF07E
:1004D000010B19EB0B0948EB0608ABFB027C06FB92
:1004E00002CC0BFB03CCC01B71EB0C01C1E70B462C
:1004F000024641464846BDE8F08B13B5084318BF95
:100500004FF0FF300146AFF30080BDE81C4070475C
:100510007CB51D4616460C00009007D04142A14212
:1005200002D32044401E01E04FF0FF30064B7B44D5
:100530002A4669460190304601F045F8002C02D069
:10054000009A002111707CBDC51000000FB41CB5CD
:10055000084B06AA7B4469460090059801F033F8E1
:1005600004460020694601F041F820461CBC5DF8B5
:1005700014FB0000951000000FB41CB50C0007AA76
:10058000009007D04142A14202D32044401E01E026
:100590004FF0FF30074B7B4469460190069801F00D
:1005A00012F80021002C01D0009A11701CBC5DF8DB
:1005B00014FB00005D10000070B5044685690068FA
:1005C000C10601D5302600E02026C00707D070BD47
:1005D000D4E9012130469047206A401C20626D1EFC
:1005E000F6D570BD70B5044685690078C00707D19F
:1005F00070BDD4E9012120209047206A401C206270
:100600006D1EF6D570BD09684A0501D540B2704728
:10061000C905FCD500B2704709684A0501D5C0B2CA
:100620007047C905FCD580B2704770B50C460546C9
:10063000012A05D02878800600D5EA69002302E067
:10064000012305E05B1C934202D2E05C0028F9D153
:10065000A869E618C01AA861286A184428622846C2
:10066000FFF7AAFF04E0D5E9012114F8010B904738
:10067000B442F8D32846FFF7B5FF70BD2DE9F0412D
:100680000646002410687529314616A510D0FFF7DC
:10069000BAFF002802DA404213A507E031688A0752
:1006A00001D512A502E0490704D511A5012401E0F6
:1006B000FFF7B2FF00210A2206F1240709E0B0FB90
:1006C000F2FCB0FBF2F302FB1C0030307854184609
:1006D000491C0028F3D123462A463046BDE8F041A4
:1006E00000F0F0BC000000002D0000002B00000016
:1006F000200000002DE9FF5F15468A460446DFF81A
:10070000AC80F8440027D8E900103E46CDE900103F
:1007100010E03AF816106A4602A801F035F8411CBC
:1007200007D02178890603D5E269391891420DD89E
:100730000744761C2078800602D5E069B84205DDC2
:10074000AE42E6DB3AF816000028E2D1A069C01BF1
:10075000A0612046FFF730FFD8E90010CDE9001076
:10076000002017E03AF818106A4602A801F00CF8C9
:10077000B0F1FF3F81460BD000250DF1080B05E0DD
:10078000D4E901211BF8050090476D1C4D45F7D3B6
:1007900008F10100B0428046E4DB206A3844206260
:1007A0002046FFF71FFFBDE8FF9F00005A320700F9
:1007B00030B4002100F1240408E002F00705D2085B
:1007C000303542EA4372DB086554491C52EA03059E
:1007D000F3D10468002310A2250708D504F02004F3
:1007E0000C4304D0C46901230CA2641EC46130BC54
:1007F00000F068BC10B5044621461068FFF70CFFF6
:1008000002462046BDE810400023D1E7D21D22F069
:100810000701D1E90023CBE7000000003000000011
:10082000F0B40D460188090502D5214C7C4402E054
:100830001F4C7C440E34002100F1240608E002F035
:100840000F071209E75D42EA03721B097754491C3E
:1008500052EA0307F3D102780023120704D5702D62
:1008600006D009B1022311342246F0BC00F02ABCA4
:1008700001231034F8E770B504460D462146106890
:10088000FFF7CAFE024629462046BDE87040002315
:10089000C6E7D21D22F00703D3E90023C0E70368AF
:1008A000126843F0200303600823C3610023B7E705
:1008B000383107002DE9F05F894604464FF0000A01
:1008C000DFF874B1FB44C0F820A02046E1688847F7
:1008D000002874D0252806D0D4E901219047206A49
:1008E000401C2062F1E700265F462046E168884709
:1008F0002028054607DB312D05D2781910F8200C89
:1009000008B10643F1E7B00701D526F00406C4F8A4
:100910001CA00027C4F818A02A2D09D0284672F080
:1009200025FE38B304EB8708303DC8F8185019E0AD
:1009300059F8041B204604EB87029161E16888475F
:10094000012F054618D1E069002820DA26F020069C
:100950001DE0D8F8180000EB800005EB40003038AF
:10096000C8F818002046E1688847054672F0FEFD89
:100970000028EED1012F0AD02E2D08D12046E168A3
:1009800088477F1C0546022F46F02006C4DBA0697D
:10099000002803DA404246F00106A061F00701D0CA
:1009A00026F010066C2D0BD0682D09D04C2D39D0B7
:1009B0006A2D35D0742D35D07A2D33D016E038E03D
:1009C000E1682F4620468847B842054609D16C2F7A
:1009D00026D04FF48060E1680643204688470546EC
:1009E00004E06C2F1AD04FF4807006430DB3A5F1CC
:1009F0004100192802D8203546F400664A462946A7
:100A0000204626604E46FFF71FFC80B101280BD020
:100A1000F61D26F0070000F1080956E74020E4E73C
:100A20008020D8E70020D6E706F104094DE72846E4
:100A300052E7206ABDE8F09FC83007000FB400B548
:100A40008DB010A9099000910B904FF0FF300A90E3
:100A500000200C90064878440690064878446A4680
:100A600007900F9909A800F05FFE0DB05DF814FB28
:100A7000EF0C0000070D00002DE9FF5F1D464FF051
:100A8000FF3B91464FF000085F46D5E90146A96952
:100A900001987F1C8847296A824688470028F6D13A
:100AA000BAF1FF3F0CD0002E24F4C06419DD6006BB
:100AB00014D5BAF12B0F09D0BAF12D0F0ED103E0E6
:100AC000584604B0BDE8F09F44F48064A9690198D9
:100AD0007F1C8847761E8246002E02DDBAF1300F59
:100AE00003D0B9F1000F26D032E0A969761E019833
:100AF0007F1C44F400748847002E824605DDBAF15D
:100B0000780F06D0BAF1580F03D0B9F1000F10D00A
:100B10001EE0B9F1000F02D0B9F1100F18D1A96988
:100B2000761E01987F1C24F40074884782461020AA
:100B300002E0082000E00A20814609E0A96908FBDC
:100B40000908761E01987F1C44F400748847824689
:100B5000002E05DD4946504600F0D2FD0028EDDAB2
:100B6000E96901988847A00502D46FF00100A8E761
:100B7000E00725D1600613D5600502D5C8F1000055
:100B800000E0404629680A1D2A600968220501D54F
:100B9000087015E0220701D5088011E008600FE019
:100BA0002868011D29600068210502D580F80080B1
:100BB00006E0210702D5A0F8008001E0C0F800801F
:100BC00038467EE72DE9FF5F4FF00008994614464E
:100BD00046469169D2E901A7DDF838B00198884707
:100BE000054659EA0B0005D009E0A1690198761C79
:100BF00088470546216A284688470028F5D1681CA1
:100C000003D05FEACA7005D015E04FF0FF3004B0A2
:100C1000BDE8F09F2068011D2160D0F800800AE047
:100C20005FEACA7001D108F8015BA169761C0198DE
:100C30007F1E88470546002F1ADD681C18D0B9F1C1
:100C4000000F0DD0E81705EBD060421120F01F0017
:100C500059F822102A1A012090400142E0D107E001
:100C6000BBF1000FDCD12846216A88470028D7D085
:100C7000E16901988847BBF1000F07D1002E05DD1F
:100C80005FEACA7002D1002188F80010A068B8425B
:100C900003DDBBF1000F03D017B16FF00100B6E721
:100CA0003046B4E710B5044603E017F077FA401C6D
:100CB00009D014F8010B05490028F6D1BDE8104011
:100CC0000A2017F06BBA4FF0FF3010BD0833002038
:100CD0000EB5054614460E4613A000F084FD2846C6
:100CE00000F081FD16A000F07EFD304600F07BFD97
:100CF00015A000F078FD00218DF80B100A210DF1F0
:100D00000A008DF80A1008E094FBF1F201FB124290
:100D100094FBF1F4303200F8012D002CF4DC00F0EB
:100D200062FD00F055FD00002A2A2A2061737365D8
:100D30007274696F6E206661696C65643A200000A8
:100D40002C2066696C6520002C206C696E65200083
:100D5000401ECAB210F8011F8A4202D00029F9D100
:100D60000020704740EA010310B59B070FD1042A09
:100D70000DD310C808C9121F9C42F8D020BA19BA66
:100D8000884201D9012010BD4FF0FF3010BD1AB1CB
:100D9000D30703D0521C07E0002010BD10F8013B20
:100DA00011F8014B1B1B07D110F8013B11F8014B47
:100DB0001B1B01D1921EF1D1184610BD40EA010360
:100DC000024630B59B0710D14FF0013400E008C255
:100DD00008C91D1B9D4315EAC41FF8D013F0FF017D
:100DE00002F8011B0DD01B0AF8E711F8013B002B9C
:100DF00002F8013B05D011F8013B002B02F8013B42
:100E0000F3D130BD10B5431C02E010F8011B71B1E5
:100E10008107FAD14FF0013202C88C1A8C4314EAD0
:100E2000C211F9D0C01A0A0603D0C01E10BDC01AE4
:100E300010BD0A0401D0801E10BD0902FCD0401E66
:100E400010BDCBB22AB101788B4203D0401C521E98
:100E5000F9D100207047032A40F2308010F0030CD3
:100E600000F0158011F8013BBCF1020F624498BFFD
:100E700011F801CB00F8013B38BF11F8013BA2F19A
:100E8000040298BF00F801CB38BF00F8013B11F015
:100E9000030300F02580083AC0F0088051F8043BB5
:100EA000083A51F804CBA0E80810F5E7121D5CBF22
:100EB00051F8043B40F8043BAFF30080D20724BF55
:100EC00011F8013B11F801CB48BF11F8012B24BFE9
:100ED00000F8013B00F801CB48BF00F8012B704738
:100EE00010B5203AC0F00B80B1E81850A0E81850B7
:100EF000B1E81850A0E81850203ABFF4F5AF5FEA07
:100F0000027C24BFB1E81850A0E8185044BF18C9AB
:100F100018C0BDE810405FEA827C24BF51F8043B52
:100F200040F8043B08BF7047D20728BF31F8023BA6
:100F300048BF11F8012B28BF20F8023B48BF00F83A
:100F4000012B704702F0FF0343EA032242EA024208
:100F500000F024B84FF000020429C0F0128010F015
:100F6000030C00F01B80CCF1040CBCF1020F18BF85
:100F700000F8012BA8BF20F8022BA1EB0C0100F018
:100F80000DB85FEAC17C24BF00F8012B00F8012BEB
:100F900048BF00F8012B70474FF0000200B5134620
:100FA00094469646203922BFA0E80C50A0E80C5089
:100FB000B1F12001BFF4F7AF090728BFA0E80C503A
:100FC00048BF0CC05DF804EB890028BF40F8042B33
:100FD00008BF704748BF20F8022B11F0804F18BFA0
:100FE00000F8012B704710B5044610F0030F08BF3E
:100FF00011F0030F40F015804FF0013E121FC0F2B8
:101000000E8051F8043BA3EB0E0C2CEA030C1CEAF7
:10101000CE1C08BF40F8043BF0D0A1F1040102F15E
:101020000402521E08DB11F8013B00F8013B002BC3
:10103000F7D11146FFF78EFF204610BD00000000DB
:1010400030B44FF0013C50F8042B51F8043BCCFA7B
:1010500052F4D51A20D1FCB950F8042B51F8043BB6
:10106000CCFA52F4D51A17D1B4B950F8042B51F870
:10107000043BCCFA52F4D51A0ED16CB950F8042BBB
:1010800051F8043BCCFA52F4D51A05D1002CDAD031
:1010900030BC4FF00000704729BAB1FA81F111F06D
:1010A0001801D1F120008440F2D1CA40CB4012F0A7
:1010B000FF0213F0FF0330BCD01A7047704770472F
:1010C000704770472DE9F0470D4699469246044611
:1010D00000F124080168880604D5E06921F01001B8
:1010E000216000E00120A84201DD471B00E000274D
:1010F000A1697A1902EB0900081AA0612078C006DC
:1011000002D42046FFF758FA002608E0D4E901216E
:101110001AF806009047206A401C761C20624E4553
:10112000F4DB2078C0060AD52046FFF745FA06E032
:10113000D4E9012130209047206A401C2062381EEB
:10114000A7F10107F4DC07E0D4E9012118F8050054
:101150009047206A401C2062281EA5F10105F3DC9F
:101160002046FFF73FFA2078000602D50220BDE8AE
:10117000F0870120FBE711680268006A530501D57A
:1011800008700AE0D30501D5088006E0130603D5F0
:10119000C217C1E9000200E00860012070472DE994
:1011A000FF4F0C461E464FF0FF378BB0D2E90001CF
:1011B000DDF860800A908A46C1F30A5505B93D46BC
:1011C000002108464FF00000BAF1000F00F4400083
:1011D00005DA00EB80004FF4400101EA50004FEACD
:1011E0009059B9F1010F00DDB9460A9850EA4A005A
:1011F0000ED044F61050A5F2FF3545432F14B8F138
:10120000000F1ED07542291E1EDDC9F100021CE030
:10121000B8F1010F4FF0000001D0302103E0F2439C
:1012200005E02154401CB042FBDB30460022002187
:1012300021540B99C1F80880C1E900200FB0BDE826
:10124000F08FBD1B6D1CDEE74A4600DA694206A836
:1012500000F0A6FE06AB93E8070003AB83E80700A7
:1012600050460A9971F033FD8DE80700A0F5005053
:101270001F3800900398002D0ADD42F21F014A46F4
:101280000844002303A90390684671F09DFF09E01C
:10129000A0F500504A461F38002303A90390684672
:1012A00071F0A7FF8DE807000004000C03D04FF099
:1012B000FF30410800E01046B8F1000F03D00022D3
:1012C000009215461EE0751E05D400F0A3FA3032D8
:1012D00062556D1EF9D5B3460122084302D00022A3
:1012E0007F1C04E02078302801D100227F1E002AD4
:1012F000099784D01DE0112D07DA00F08BFA303207
:1013000062556D1C50EA0102F5D1084302D00098E5
:10131000C8B10EE00021681E05E0235C625C6354E6
:101320002254401E491C8142F7DBAB46A81B401EDD
:101330000990002004F80B000B98099AC0F8088067
:10134000C0E9002B7AE711264FF0000857E72DE996
:10135000F04F88460446D21D22F0070191B0D1E932
:101360000001CDE90A0172F07BF802460B98C00F2C
:1013700001D02D2007E02068810701D52B2002E055
:10138000202101EAC000032A099001D0072A05DBC9
:1013900003464146204600F009FC0BE12078800618
:1013A00001D5E06900E00620B8F1650F814606D05E
:1013B000B8F1660F18D0B8F1670F70D131E0002096
:1013C000B9F1110F009001DB112301E009F10103D4
:1013D0000AAA01A90CA8FFF7E2FEDDE90C700026BD
:1013E00009F10105834647E001204B4600904FF08C
:1013F00000470AAA01A90CA8FFF7D1FEDDE90DB04C
:101400000C995D46002610B909F101000D18B9EBE1
:10141000050003D4C0F1FF3609F10105A5EB090071
:101420002BE0B9F1010F01DA4FF001090020B9F109
:10143000110F0090484601DD112300E003460AAA7F
:1014400001A90CA8FFF7ABFEDDE90C704D460026A4
:101450008346207800070AD4AB4500DA5D4601A830
:10146000012D04DD411911F8011C302907D04F4529
:1014700002DA17F1040F04DA012082460FE06D1E34
:10148000EEE7002F02DCED1B3E4403E0781CA8428F
:1014900000DD7D1CB81B00F1010A4FF000472078E9
:1014A000000703D4AA4501DB4FF0FF3A0021B7F152
:1014B000004F0DF143088DF8431024D002202B2358
:1014C000002F01DA7F422D230A21021EA0F1010024
:1014D00000DC5FB197FBF1FC97FBF1F201FB1C7C98
:1014E00017460CF1300C08F801CDEEE7A8F1010029
:1014F00003702188090501D5452100E06521A0F18F
:10150000010800F8011C09980FA9A1EB0807FF1DAD
:1015100000B10120411901EBEA70A1693844081AB1
:10152000401EA0612078C00602D42046FFF744F890
:10153000099828B1D4E901219047206A401C206213
:101540002078C00622D52046FFF736F81EE0002E90
:1015500004DBB34502DD01A8805D00E03020D4E962
:1015600001219047206A401C2062761CAAF10100EC
:101570005FEA000A0AD100F049F9C0680168405CDE
:10158000D4E901219047206A401C2062281EA5F161
:101590000105DCDC07E0D4E9012118F8010B9047D4
:1015A000206A401C2062381EA7F10107F3DC2046A8
:1015B000FFF718F8032011B041E6000001694A1C4A
:1015C00002610878704700B58FB0CDE90131002184
:1015D000059105497944CDE9031011466846FFF7A6
:1015E00069F90FB000BD0000E5FFFFFF0A6802F8CF
:1015F000010B0A607047D1E900239A4202D2531CC2
:101600000B601070704710B5436913B1AFF30080E1
:1016100001E0FFF70AF8012010BD127800F1240163
:101620000A7000224A700122EDE711684FF0FF3284
:10163000E9E70000074B70B50D467B44FFF7C3FF99
:101640000446284600F01EFD10B14FF0FF3070BD7B
:10165000204670BD5F6B010010B5436913B1AFF355
:10166000008001E0FFF746F8012010BD128800F16C
:10167000240182840022C2840122EDE711684FF028
:10168000FF32E9E72DE9F0418046D21D22F0070242
:101690000025D2E90002F52915A614D0011E72F129
:1016A000000106DA0023D0EB030063EB020211A66F
:1016B00008E0D8F800108B0701D50FA602E0490713
:1016C00001D50EA601251146002408F1240704E0E7
:1016D00000F0A0F830323A55641C50EA0102F7D10C
:1016E0002B46324621464046BDE8F041FFF7EABCB2
:1016F000000000002D0000002B0000002000000072
:101700003A2800D2303820F02002412A01D3A2F139
:101710003700884201D34FF0FF3070470268114410
:101720001378016018467047D160054979445161CA
:1017300004497944116200211161114600F076BA22
:10174000EDFFFFFF69010000426842B1016811F836
:10175000013B23B1521EC0E9001218467047012117
:10176000C160881E704742685AB1C368016843B9B6
:1017700083688B4205D0491E521CC0E9001200202C
:1017800070474FF0FF3070472DE9F04116460C4688
:10179000054600F033F8036893F80101012807D0EB
:1017A000FF2C12D8185D80B101202C70BDE8F081AB
:1017B000D3F807013246214603F20713C71828461B
:1017C000BC46BDE8F041002360474FF0FF30EDE735
:1017D00010B5002000F05AFCFEF790FDBDE8104067
:1017E00001200EF023BE10B5044602E0641C0EF08A
:1017F0001FFE20780028F9D110BD000010B500F0C0
:1018000005F8001D10BD00BFA11D0700004870476E
:101810003431002030B5B0F10A0271F100034FEA13
:10182000900E4EEA817EB0EB0E0061EB91014FEA23
:10183000101E4EEA017E10EB0E0041EB11114FEA33
:10184000102E4EEA016E10EB0E0041EB11214FEA13
:10185000104E4EEA014E10EB0E0041EB11414018C4
:1018600041F100014FEAD00040EA41704FEAD10156
:101870004FEA810444EA907410EB800544EB0104C4
:101880006D1944EB0404521BA3414FF0000348BF01
:101890000A3200D530BD401C41F1000130BD10B509
:1018A0000446FFF7ABFF0068005D00F0010010BDCB
:1018B0002DE9F04F04460D46D21D22F0070089B0F5
:1018C000D0E900974846394671F0CAFD0246F80F44
:1018D00001D02D2307E02068810701D52B2302E0EA
:1018E000202101EAC0038DF820300BB1012000E077
:1018F0000020032A824601D0072A04DB294620461D
:1019000000F054F93FE12078800601D40D2500E075
:10191000E569C7F30A560D2D49DA00214FEA175B36
:1019200008464FF00000002F00F4400007DA00EBFB
:1019300080004FF4400100EBD07001EA6000811597
:10194000012901DD4FF0FF3100224FEA850CBCF187
:10195000180F06D31346ACF118004FF08052C24066
:1019600003E04FF4801323FA0CF30CF10C0CBCF1E0
:10197000200F04D3ACF1200C09FA0CF001E007FAB7
:101980000CF000294FF0004801DD18B90FE00ED12E
:1019900040450CD319EB02095F4121B9404502D102
:1019A0009F4329EA0209BBEB175F00D0761C208811
:1019B000000502D57B48784402E07A48784419381B
:1019C00008AA302302F80A30037C0AF10101002E34
:1019D0000AF1020A53546A4602DC4FF0300101E07A
:1019E0004FF031014FF001088DF8001002D0A6F23F
:1019F000FF3603E059EA470100D06B4E002D02DCB0
:101A00002178090704D54FF002082E218DF8011026
:101A1000C44600210BE0C7F303433F01C35C491CEC
:101A20006D1E02F80830052908F1010801DA002DC1
:101A3000F1DC00210CE000EB1973491C1B786D1ED2
:101A4000082902F808304FEA091908F1010801DAFB
:101A5000002DF0DC21688B0602D516E0A8F1010804
:101A6000E04505DD02EB080313F8013C302BF5D00F
:101A7000B8F1000F09DD02EB080313F8013C2E2B2F
:101A800003D1090701D4A8F10108002D05DD3E218D
:101A900002F808106D1E08F10108407C002E02F8C3
:101AA000080008F1010804DA2D20764202F8080047
:101AB00002E02B2002F808000A214FF47A708642D7
:101AC00008F101080BDB96FBF0F3303302F8083025
:101AD00096FBF0F308F1010800FB136601E0642EA9
:101AE0000CDB642096FBF0F3303302F8083096FBF1
:101AF000F0F308F1010800FB136601E00A2E06DB93
:101B000096FBF1F0303002F8080008F1010896FB6E
:101B1000F1F001FB1060303002F80800A16908F113
:101B2000010808EB050202EB0A00081AA061207800
:101B3000C00602D42046FEF73FFD216A08AE01EB45
:101B40000A00206204E0D4E9012116F8010B904755
:101B5000BAF1010AF7D22078C00602D52046FEF776
:101B60002BFD6E4609E016F8010B3E280FD0D4E994
:101B700001219047206A401C2062B8F10108F2D28E
:101B80002046FEF72FFD09B00320BDE8F08F206A44
:101B90002844206203E0D4E90121302090476D1EE3
:101BA000EBD3F8E7FA1F070002FCFFFF2DE9F04135
:101BB0001F46044603260168072A01F4006004DB7F
:101BC00008B116A505E016A503E008B115A500E0CB
:101BD00015A521F010002060A069C01EA0610FB102
:101BE000401EA0612046FEF7E7FC4FB1D4E9012179
:101BF00038469047206A401C2062C01C206206E0E4
:101C0000206AFAE7D4E9012115F8010B9047761E06
:101C1000F8D22046FEF7E6FCBDE8F0814E414E00CA
:101C20006E616E00494E4600696E66002DE9F34F05
:101C30004FF0000A0C4656468DB001200C9001F181
:101C40000C000B9062690B9801219047051E2DD066
:101C5000252D2CD0216A8847C0B162690B980121DB
:101C60009047216A88470028F7D16269411E0B9886
:101C7000904700E0761CA1690D988847216A884743
:101C80000028F7D1E1690D988847DBE7A1690D9835
:101C90008847A842074601D1761CD3E7E1690D9831
:101CA00088477F1C02D1BAF1000F6FD06BE16269E7
:101CB0000B9800273D46394690472A2804D162698F
:101CC0000B98012190470125DFF8D08262690B98BB
:101CD00001219047A0F130010A290AD24745E5DCED
:101CE00007EB870100EB4107303FDFD445F01005DB
:101CF000ECE7E90601D46FF000476C280AD04C28C5
:101D000014D0682815D06A280DD074281CD07A28E1
:101D10001AD01DE062690B98012190476C2802D00F
:101D200045F0040514E045F002050DE045F02005FE
:101D30000AE062690B9801219047682802D045F0BB
:101D4000080505E045F4006562690B98012190479C
:101D5000C4E9015765283DD019DC58287AD00CDC3D
:101D6000452837D004DC252826D041289ED131E0F3
:101D700046282FD0472899D12CE05B2877D06128BE
:101D800028D063287CD0642823D15AE0F6E06F285D
:101D900048D008DC66281DD067281BD0692821D0D0
:101DA0006E2816D127E0702845D0732868D0752892
:101DB00047D078280DD14DE0A1690D988847252896
:101DC00005463FF469AFE1690D9888476D1C3FF403
:101DD0006AAFD8E00D9923466A466FF00100AFF371
:101DE0000080C5E045F0400023464FF000026060EF
:101DF000A80736D43EE0E8077FF447AF2068011D0E
:101E000021600068290501D506701BE7290701D567
:101E1000068017E7A90703D5F117C0E9006111E7AC
:101E200006600FE745F0400023464FF0080260606F
:101E3000A80716D41EE040F60E0125EA01006060F6
:101E400016E045F0400023464FF00A026060A80704
:101E500007D40FE045F040006060A80708D523468E
:101E600010220D996FF00100AFF3008080E007E0D1
:101E7000102223460D996FF00100FEF7FDFD77E07B
:101E80004FF0000963284F46C8464B46CB4602D068
:101E90005B2806D038E0E80601D40120A0600127C5
:101EA00032E06269D4F80CB00B98012190475E28AB
:101EB00007D14FF0010949466269D4F80CB00B987C
:101EC0009047216939B900210A4603AB43F8212024
:101ED000491C0829FADBD8B3216949B308F1010884
:101EE00062690B98012190475D28F4D1B9F1000F88
:101EF00009D0002003A951F82020D24341F8202026
:101F0000401C0828F7DB03AB2069002820794FEA42
:101F100040701ED05B462246CDF80080CDE9019787
:101F20000D9900286FF0010020DAAFF300801FE068
:101F3000C11703AA00EBD1614B1121F01F0102EB85
:101F40008302411A13680120884003431360C7E7E6
:101F500019E00D99224600286FF00100009702DA7F
:101F6000AFF3008004E0FEF72DFE01E0AFF3008048
:101F700000280ADA401C06D10C9820B14FF0FF303F
:101F80000FB0BDE8F08F5046FAE7E90701D10AF13A
:101F9000010A064400200C9054E60000CCCCCC0C86
:101FA0002DE9F047814616468AB0354878440DC879
:101FB0008DE80D0032487844801C03AC0DC884E8DD
:101FC0000D0041F69B300844372190FBF1F290FB65
:101FD000F1F5A5F1800501FB12041B3C02D564421A
:101FE000012000E00020DFF898A080460027FA4496
:101FF000AAF1BE0A0EE0E0070AD03246684607EBB7
:10200000470101230AEB810171F0F3F88DE8070025
:1020100064107F1C002CEED1194F7F44AE3F19E0B5
:10202000E80715D007EB04100DF1180A90E80E0030
:102030008AE80E00C068F04201D198190890324633
:10204000012306A903A871F0D4F803AB83E80700C5
:102050006D10641C002DE3D14FF001033246694638
:10206000B8F1000F03A802D071F0AEF801E071F0F2
:10207000C0F8C9E90001C9F808200AB0BDE8F08736
:10208000941A0700007B00F08000704710B500F044
:102090003DF8BDE8104000F033B80000004870473C
:1020A000143100207546FFF7F9FFAE46050069467A
:1020B000534620F00700854618B020B5FEF73EF9DC
:1020C000BDE820404FF000064FF000074FF0000839
:1020D0004FF0000BAC46ACE8C009ACE8C009ACE876
:1020E000C009ACE8C00921F007018D46704710B562
:1020F0000446AFF300802046BDE81040FEF709B962
:10210000002801D00EF092B97047000010B50021F0
:1021100002A000F013F8012010BD00005349474110
:102120004252543A2041626E6F726D616C20746548
:10213000726D696E6174696F6E00000070B505465E
:102140000C460A2000E06D1C0EF072F935B12878BB
:102150000028F8D102E0641C0EF06AF914B120786E
:102160000028F8D1BDE870400A200EF061B90000E7
:1021700041F28770C0F60E0002A1FEF72DF900BFF4
:10218000FEE700BF4275734661756C745F48616E0F
:10219000646C65720000000010B5846B204600F08E
:1021A000E3FB0120207110BD10B5846B204600F0C8
:1021B000A5FB0120207110BD10B5846B206940F093
:1021C00004002061204600F0D7FB0120207110BDE3
:1021D00010B5846B206940F004002061204600F0B7
:1021E00091FB0120207110BD806B00F0C1BB00008D
:1021F000806B00F085BB00004EF6DC10C2F20100DF
:1022000000F030BD44F2F400C2F2010000F02ABD3B
:1022100044F29400C2F2010000F024BD4EF63C20CE
:10222000C2F2010000F01EBD44F25410C2F20100DF
:1022300000F018BD4EF67C10C2F2010000F012BD95
:102240002DE9F04F85B040F2004A42F2240768467B
:10225000C4F2020AC4F2000700F10805002441F2AA
:10226000670B41F2680800264FF001090CE000BF3F
:102270000028C6F3460118BF012041EAC016B9F193
:10228000080F09F1010951D20220C5E90044AC60F0
:1022900003900120CDE900005046694600F0C4FFDC
:1022A00050460121002201F095F83C603868A728CB
:1022B00008D83868A72805D83868A72802D8386809
:1022C000A828F3D350460121012201F083F8012010
:1022D000CDE9000450466946C5E90044AC6000F011
:1022E000A3FF3C60386800093E280BD83868000915
:1022F0003E2807D8386800093E2803D83868B0F56A
:102300007C7FEFD35046012101F05EF83C6000BFB6
:1023100039685945ACD839685945A9D839685945FB
:10232000A6D839684145F3D3A2E700BF304605B0CF
:10233000BDE8F08F2DE9F04786B040F20048044632
:10234000C4F202084FF00009022042F22406CDF840
:1023500014900490012501A94046C4F20006CDF86E
:102360000C90CDE9015500F05FFF41F2AF3741F22B
:10237000B03A04E06408082D05F101054CD240464E
:102380000121002201F026F8E007C6F8009021D1D3
:102390003068B84208D83068B84205D83068B842CA
:1023A00002D830685045F3D340460121012201F0A4
:1023B00011F8C6F8009000BF3068A728DAD8306856
:1023C000A728D7D83068A728D4D83068A828F3D34E
:1023D000D0E700BF3068A72808D83068A72805D8FC
:1023E0003068A72802D83068A828F3D340460121D6
:1023F000012200F0EFFFC6F8009000BF3068B8423D
:10240000B8D83068B842B5D83068B842B2D8306869
:102410005045F3D3AEE700BF06B0BDE8F08700003B
:102420007047000041F2867041F28D71C0F60E00D7
:10243000C0F60E01FDF7D0FF72B600BFFEE7000048
:1024400070B581B00022009290F83C20012A03D19F
:10245000022001B070BD00BFD1F800E00122BEF142
:102460000A0F1FFA8EFC80F83C2009D34FEA4C0279
:10247000036812FA8EF2A2F11E0403F10C0204E0CA
:1024800003680EEB4E0403F1100207251668A54001
:1024900026EA050515608D68166805FA04F43443CC
:1024A00014604968062907D801EB81014A1F1946C3
:1024B00051F8345F0FE000BF0C2901EB810105D812
:1024C000A1F12302194651F8305F04E0A1F1410265
:1024D000194651F82C5F1F24944025EA04040C602F
:1024E0000CFA02F20C6842F2043CC4F2010C2243E2
:1024F000ACF54174A3420A603ED1BEF1120F07D180
:10250000DCF8001041F48001CCF8001034E000BF8A
:102510002EF0010110292FD1DCF80010BEF1100FB0
:1025200041F40001CCF8001026D140F23801C2F28B
:10253000000109684DF68362C4F21B32A1FB02124E
:10254000910C01EB8101490000910099A1B1009922
:1025500001390091009979B10099013900910099F0
:1025600051B1009901390091009929B100990139BF
:10257000009100990029EAD1002180F83C10002048
:1025800001B070BD0068C06C70470000002804BF37
:102590000120704710B5016C00293DD0016CC906BF
:1025A00045D4016C41F202129143023142F20432ED
:1025B0000164C4F20102116821F440311160136812
:1025C00090E812102343D0F810E013604A68012409
:1025D00022F480724A604A68C0F6007442EA0E2211
:1025E0004A604A6822F040724A604A6842EA0C0235
:1025F0004A608A6822F400628A60C2688B681A4363
:102600008A60826A8B68A24223F070638B608B6859
:1026100010D123F0405216E0044600F065F8204641
:102620000021616484F83C10016CC906B9D5012110
:1026300053E000BF1A438A608A6822F040528A60E1
:10264000C26A8B681A438A608A6822F002028A6032
:102650008A68037E90F8204042EA43028A604A6812
:1026600084B142F400624A604A684EF2000322F4E8
:1026700060424A60426ACFF6FF734C6803EB423215
:10268000224301E022F400624A60CA6A40F2000C70
:1026900022F47002CA62C3694269CFF6F07CCC6A48
:1026A0000CEB03532343CB628B6823F400738B60E2
:1026B00090F830308C6844EA43238B608B6823F4B5
:1026C00080638B608B6843EA82228A6000214164C8
:1026D000026C012363F301020264002280F83C20B3
:1026E000BDE810400846704780B586B0006842F2E9
:1026F0000012C4F2010200219042CDE90411CDE99B
:102700000211019124D042F20001C4F20101884279
:1027100044D1002043F630010090C4F202014A691E
:1027200042F480724A614A6902F480720092009A0F
:102730000090086840F0010008600868012100F07E
:102740000100009000980020C4F202001EE000BFCB
:1027500043F630000091C4F20200426942F4007274
:102760004261426902F400720092009A009101688D
:1027700041F0040101600068082100F004000090AD
:1027800000980020C4F2020000F5006001910321CE
:1027900002910021039101A900F046FD06B080BD21
:1027A00010B581B00021009190F83C10012903D1AF
:1027B000022001B010BD00BF0468012180F83C1068
:1027C000214651F8083FDB0729D10B684DF683629B
:1027D00043F001030B6040F23803C2F200031B68B0
:1027E000C4F21B32A3FB02239A0C02EB42020092BA
:1027F000009AA2B1009A013A0092009A7AB1009A26
:10280000013A0092009A52B1009A013A0092009A5D
:102810002AB1009A013A0092009A002AEAD10A6885
:10282000036CD2070CD143F01001016400F14401A4
:1028300001200A6810430860002001B010BD00BFED
:1028400040F2017223EA020202F5807202646268B9
:10285000520504D5026C012363F30D320264026C4D
:102860004FF0000E0023D20444BF426C22F0060356
:1028700042F2043C436480F83CE06FF02200C4F272
:10288000010C2060DCF80000C0060DD0ACF54170F2
:1028900084422BD14FF60450CFF6FF705CF8000055
:1028A00010F0405F22D125E042F20000C4F20100A6
:1028B000844217D042F20020C4F2010084420DD0BD
:1028C00042F20010C4F2010084420FD1DCF8000093
:1028D000C00607D0ACF58270844207D1DCF8000056
:1028E000C00603D4086810F0405F03D0002001B098
:1028F00010BD00BF4FF080409BE700007047000014
:10290000704700007047000000284FF0010318BF17
:10291000002901D1184670474379012B4FF002037B
:10292000F8D010B50371036802F0100ED3F800C0A0
:10293000D1E9001440F6FE7202FA0EF221432CEAAD
:10294000020201FA0EF111431960C0211A6801FA5E
:102950000EF122EA01011960012100230171437186
:10296000BDE8104018467047002007F083BE000005
:10297000012007F07FBE000070470000002804BF60
:1029800001207047017941B910B500214171044619
:1029900000F00CF82046BDE8104002210171002132
:1029A000012201610271084670470000F0B587B04E
:1029B000044647F200402168C4F20000002681422C
:1029C0000696CDE904660396029601D007B0F0BDE5
:1029D00043F630010196C4F202010A6900F5C630DF
:1029E00042F000520A610A6902F000520192019A13
:1029F00001960A6842F001020A60096801F00101CB
:102A000001910199102102910321CDE9031602A938
:102A100000F00AFC44F2940546F28800C2F2010577
:102A2000C4F202004FF0606140224FF4806385E8F9
:102A3000470005F110004FF4006C4FF4005E4FF4B6
:102A4000807780E808502846C5E907766E6200F076
:102A5000EBF9002818BFFFF7E5FCA560AC6307B0F1
:102A6000F0BD0000002804BF012070478446407973
:102A700001284FF0020008BF70472DE9F041069C85
:102A8000012688468CF805608CF8040021B3DCF838
:102A90000C0042F2A91642F2F117C0F60106C0F688
:102AA0000107C0E90F6742F2D117DCF80010C0F649
:102AB0000107C7640F68042C47F080570F604FF080
:102AC0001C0708BF18276546002C08BF142701EB18
:102AD000070C4FF0005423E0DCF800106546DCF8EA
:102AE000080042F2991C42F2E916C0F6010CC0F649
:102AF0000106C0E90FC642F2B916C0F60106C66467
:102B00000E68042C46F480560E604FF0100608BF85
:102B10000C26002C08BF082601EB060C4FF40054CD
:102B20000F6827430F601146624600F02FFA00211C
:102B3000697118B105F11001042205E008F01002D6
:102B40000123296803FA02F20B681A430A60BDE800
:102B5000F04170474FF0010238B370B5036801F0DF
:102B6000100C4FF4805E1D680EFA0CF4A5431D6036
:102B70001D6802FA0CF225EA02021A600C220029F2
:102B800008BF082281586FF000540646084608BF67
:102B90006FF40054012500F00BF830680022016842
:102BA000214001603571BDE870401046704700005B
:102BB00070B5866D044600F013FC94F835100229B8
:102BC00028D105462068216C026822F016020260B6
:102BD000426922F08002426109B9A16C19B1016811
:102BE00021F008010160016821F00101016000BFCE
:102BF00020680068C00715D000F0F2FB401B0628D3
:102C0000F6D320206065032084F83500002184F885
:102C1000341070BD802060650120002184F83410DC
:102C200070BD00BFE06D3F2101FA00F0B0600120EF
:102C300084F835000020002184F8341070BD0000B5
:102C400090F83510022909D1052180F83510006867
:102C5000016821F001010160002070478021416579
:102C600001207047F0B581B00021009140F2380199
:102C7000C2F200010B68D0E9166148F2B515376859
:102C80000822C1F64E358A403A42A3FB05350CD0E6
:102C900003681C68640708D51C6824F004041C60E1
:102CA000B260426D42F00102426501228A403A421E
:102CB00008D003685B691B0604D5B260426D42F020
:102CC0000202426504228A403A4208D003681B6827
:102CD0009B0704D5B260426D42F0040242651022A7
:102CE0008A403A4219D001680B681B0715D5B260BB
:102CF0000B680A685B0309D4D20509D40A6822F07C
:102D000008020A60016C29B907E000BF110341D431
:102D1000016C11B1044688472046C26D202101FA9A
:102D200002F33B4243D001680F68FF063FD5B36012
:102D300090F835700B68052F1CD123F016030B603B
:102D40004B6923F080034B61036C0BB9836C1BB19F
:102D50000B6823F008030B603F219140B160012113
:102D600080F83510016D0022002980F8342054D1FC
:102D700058E000BF0A685B0310D4D20512D40A6879
:102D800022F010020A60012180F83510002180F83D
:102D9000341007E0816C0029BCD1BEE7110301D4D7
:102DA000416C00E0C16B11B1044688472046416D7B
:102DB000C1B3416DC9072ED0052180F835100168D7
:102DC000AA0A0B6823F001030B60009B01339342B6
:102DD00000931AD80B68DB0717D0009B013393428E
:102DE000009312D80B68DB070FD0009B013393428E
:102DF00000930AD80B68DB0707D0009B013393428E
:102E0000009302D80B68DB07DFD1012180F8351071
:102E1000002180F83410C16C21B101B0BDE8F04050
:102E2000084700BF01B0F0BD2DE9F041044600F0B5
:102E3000D7FAECB10546022084F83500002021685D
:102E400084F83400086820F00100086021680868F0
:102E5000C00711D000F0C4FA401B0528F6D903259D
:102E600020230320636584F83550BDE8F08100BF5E
:102E70000120BDE8F08100BF086848F23F02CFF2B0
:102E80001002D4E9013500EA020C04F10C0898E8BC
:102E9000C10143EA0C032B431843D4E9072E304306
:102EA00038431043626A40EA0E00042A40EA0803ED
:102EB0001CD1206BD4E90A2E40EA0E0018430860AA
:102EC0004869BEF1000F20F0030040EA020040F024
:102ED000040C11D0B8F5005F36D0B8F1000F45D121
:102EE000022A46D0012A3BD032B942E00B60486941
:102EF00020F0070040EA020C01F0F8004AF6AB228D
:102F00001038CAF6AA22A0FB02231A0943F6EC5392
:102F1000C1F814C0C0F608039A5C40F2FF335F2882
:102F20004FF03F0021EA030100FA02F088BF0431AC
:102F3000C4E916128860002301250020636584F827
:102F40003550BDE8F08100BF032AD5D801254023C4
:102F50000120DFE802F0030E030500BF82E700BF97
:102F6000AEF1C070B0FA80F0400904E0032A04D347
:102F7000C2D1CEF300600028BED00125402301203D
:102F8000636584F83550BDE8F081000090F834C0E6
:102F9000BCF1010F04BF0220704770B54FF0010C67
:102FA00080F834C0D0F858E090F835C0BCF1010F7B
:102FB00038D14FF0020C80F835C04FF0000CC0F84B
:102FC00054C0D0F800C08468056CC06DDCF80060A7
:102FD000402C26F48026CCF80060CCF804300B4658
:102FE00004BF13460A463F2101FA00F0CCF808302E
:102FF000CCF80C20CEF80800DCF8000040F01600F9
:10300000CCF800002DB1DCF8000040F00800CCF84E
:103010000000DCF8000040F00100CCF800000020C7
:1030200070BD00BF002180F83410022070BD000088
:10303000B0B5044600F0D4F9054640F20000C2F2F3
:1030400000000078611C18BF044400BF00F0C8F9FC
:10305000401BA042FAD3B0BD2DE9F04F83B000F180
:103060003E4241F60047884602F1FF72C4F2020771
:1030700008214FEAB223B84208BF072100F1200718
:10308000002604244FF002090197072B38BF4FEAAE
:10309000B2210291CDF8008026E000BF0168032232
:1030A00002FA09F2914301606FF00303019D03EA04
:1030B000560304F01C01EE580F2707FA01F126EA27
:1030C0000101E950C1689143C160416821EA0C01E6
:1030D00041608168914381600EF101060834102E31
:1030E00009F1040900F09C80012101FA06FB1BEAAA
:1030F000080359D043F60041C4F20101A4F1040CC5
:10310000A1F57E7826F003070CF0080E0F2158F881
:10311000077001FA0EFA029907EA0A0701FA0EF29D
:10312000974220D143F6004EC4F2010EDEF8002093
:1031300043F60C419A43CEF80020DEF80420C4F296
:1031400001019A43CEF804200A68B7089A430A603E
:10315000DEF808209A43CEF8082058F8272022EA03
:103160000A0248F82720A9F102020368032101FAA4
:1031700002F2934303606FF00301019D01EA5607D9
:103180000CF0180CE9590F2303FA0CF39943E95199
:10319000C1689143C160416821EA0B0141608168C7
:1031A00091438160DDF8008006F1010E012101FAF2
:1031B0000EFC1CEA08038FD043F60041C4F2010163
:1031C000A1F57E7B26F0030104F00C070F225BF8CB
:1031D000011002FA07FA029A01EA0A0102FA07F755
:1031E000B9427FF45BAF43F60042C4F201021168BA
:1031F00043F60C47994311605168C4F201079943A3
:1032000051603968994339609168B7089943916072
:103210005BF8271021EA0A014BF827103EE700BFB0
:1032200003B0BDE8F08F00002DE9F04F83B000F14E
:10323000200200F13E4741F60045009207F1FF777A
:10324000C4F2020508224FEAB726A84208BF0722A7
:1032500000254FF000084FF00009072E38BF4FEA55
:10326000B72201920AE000BF09F1010908F1020842
:10327000B9F1100F05F1040500F0A2800F680122DA
:1032800002FA09FE17EA0E0AEED0D1F804C00322B2
:103290000CF003077E1E02FA08F4012E6FEA040BFD
:1032A00012D88468CE6804EA0B0406FA08F63443A0
:1032B0008460446824EA0E06CCF3001404FA09F48E
:1032C0002643466004E000BF032F01D103271EE020
:1032D000C6688C6806EA0B0604FA08F42643022F37
:1032E000C66014D16FF00302009E02EA590756F837
:1032F00007C005F01C040F220B69A2402CEA020251
:10330000A3401A43F251D1F804C00CF0030702683D
:1033100007FA08F302EA0B021A431CF4403F02606A
:10332000A2D0002243F644030292C4F202031A68B8
:1033300043F6004442F480421A601A68C4F2010461
:1033400002F480420292029A29F003024FF6084CDE
:103350002244CFF6FF7C52F80C3005F00C070F2604
:10336000BE40B343019E06FA07F73B4342F80C30D8
:10337000A2684B6842EA0A0743F60C4CDE0258BFCB
:1033800022EA0A07A760C4F2010CDCF800209E02C2
:1033900042EA0A0758BF22EA0A07CCF800706268BE
:1033A0009E0342EA0A0758BF22EA0A0767602268BA
:1033B000DB0342EA0A0758BF22EA0A07276053E7FD
:1033C00003B0BDE8F08F00000069084018BF01207D
:1033D00070470000002A08BF09048161704700009F
:1033E0004FF2BC30C2F201000068704740F20000AA
:1033F0004FF2BC31C2F20000C2F2010100780A684B
:10340000104408607047000080B543F60040C4F2E5
:103410000200016841F400710160016841F48061BB
:103420000160016841F480710160032000F0D8F868
:103430000F2000F005F800F05DF8002080BD0000CE
:1034400070B586B0002543F640010195C4F2020133
:103450000A68044642F080020A60096801A801F087
:10346000800101910199694601F0B2FA049E002E93
:1034700018BF012601F0D2FA4DF68361B040C4F2C4
:103480001B31A0FB01014FF0FF3000EB91414EF6E4
:10349000D87041F60042C2F20100C4F2000240F2CC
:1034A000E733C0E90021C0E902530561856102F0FC
:1034B000A7FC08B106B070BD4EF6D870C2F201008C
:1034C00002F0ACFD0028F5D12C2000F04BF80F2CB9
:1034D0000CD82C202146002200F056F840F20401BE
:1034E0000020C2F200010C6006B070BD012006B0E1
:1034F00070BD000082B0002043F640010190C4F28C
:1035000002014A6842F480424A604A6802F48042FA
:103510000192019A00900868002240F080500860F3
:1035200008680F2100F08050009000986FF00100B3
:1035300002B000F029B80000002848BF704700F032
:103540001F01012202FA01F11C2202EAD0004EF210
:103550008012CEF200028150BFF34F8FBFF36F8F06
:1035600070470000002848BF704700F01F0101228B
:1035700002FA01F11C2202EAD0004EF20012CEF251
:10358000000281507047000010B54EF60C5CCEF280
:10359000000CDCF80030C3F3022E8EF00704042C7C
:1035A00028BF0424BEF103034FF0FF3E0EFA04F4DB
:1035B00038BF0023A14399400EFA03F39A43114305
:1035C00000F00F0200F160430901043A03F564437F
:1035D0006244002848BF02F10C03197010BD0000BE
:1035E0004EF60C51CEF200010A684FF6FF031A4066
:1035F00060F30A2242F0806040F0FD70086070477E
:103600007047000002680020516270472DE9F041C8
:10361000D0F80080D8F8243091B1D8F82870B1F1F2
:10362000010C03EB17414FD05FFA8CF708F582735A
:10363000042F0CF0030E0BD2002700242BE000BF58
:1036400043EA02410020C8F82810BDE8F08100BF1D
:103650000CF0FC0508F1F406002400BF56F8107FBA
:1036600044F0020001EB174144F00107FFB253F8A8
:103670002770C0B253F8200001EB174101EB104056
:1036800044F00301C9B253F821100434E7B2AF4249
:1036900000EB1141E2D1BEF1000F15D053F8270025
:1036A000BEF1010F01EB10410ED0601CC0B253F807
:1036B0002000BEF1020F01EB104105D0A01CC0B2EA
:1036C00053F8200001EB104141EA024008EB8C0165
:1036D000C1F804010020BDE8F0810000D0F8E0044A
:1036E0000AF080BB01EBC102D0F8E03400EB8200AD
:1036F000026A18460AF0D0BA01EBC102D0F8E034F1
:1037000000EB8200D0F8602218460AF021BB0000CE
:10371000002804BF0120704710B50446032084F838
:10372000950420680CF068FB00281CBF012010BD28
:10373000204600F0FFFE002084F8950410BD000034
:10374000D0F8E0040AF050BB10B501F00F0E0A46A5
:103750004FFA81FC0EEBCE0100EB810303F51571EE
:10376000BCF1000F48BF03F1140190F89434D20962
:10377000012B4A7081F800E004BF022010BD0268EE
:10378000012380F89434044610460BF0A1FA00207F
:1037900084F8940410BD0000037901F00F029A42EE
:1037A00084BF0120704710B502EBC20300EB830316
:1037B0004FFA81FC8E4603F51571BCF1000F48BF2E
:1037C00003F114014FEADE134B7090F894344FF07C
:1037D000000C012B81F802C00A7004BF022010BD4A
:1037E0000268012380F89434044610460BF064FD0F
:1037F000002084F8940410BD10B5044690F8940499
:10380000012804BF022010BD4BB220680122B3F191
:10381000FF3F84F8942405DD0BF046FF002084F878
:10382000940410BD01F00F010BF09EFF002084F8FE
:10383000940410BD01F00F0101EBC10100EB810008
:10384000D0F868027047000010B54FFA81FE01F011
:103850000F0CBEF1000F6FF3DF220CEBCC010DD487
:1038600000EB810E00240EF515718EF855428EF88E
:1038700054C2CEF85C228EF8583209E000EB810188
:1038800001F814CF01244C708A600B71A1F81AC0A2
:10389000022B04BF00224A7190F89424012A04BF2D
:1038A000022010BD0268012380F8943404461046BB
:1038B0000BF0B2F8002084F8940410BD10B501F0AC
:1038C0000F0E0EEBCE0100EB81044FF0000CC4F89C
:1038D00068C284F855C290F806C004F51571C4F8A2
:1038E0006022C4F86432BCF1010F84F854E208BFCE
:1038F000CA61006862460BF029FD002010BD00007F
:10390000B0B5027901F00F0494424FF001022CD8B7
:1039100001EBC10300EB83034FFA81FC03F5157340
:1039200004EBC405C90900EB8505BCF1000F48BFD5
:1039300005F11403597090F894149A7001291C70C1
:1039400004BF0220B0BD0168054680F894240846F3
:1039500019460BF0DBFC2CB92868A97905F29C42CA
:103960000BF07CFC002285F894241046B0BD0000CA
:1039700001F00F0C0CEBCC0100EB810101F814CF2E
:103980004FF0000C0B618379C1F814C04FF0010CAB
:10399000CA60012B81F801C008BFCA6180B5006808
:1039A0001A460BF0D3FC002080BD00002DE9F04F3B
:1039B00087B00568824628460BF044FF10B107B077
:1039C000BDE8F08FDAF800000BF06AFF0028F6D0AF
:1039D000D5F80808C0F30D21DAF80000CAF8D414AD
:1039E0000BF05EFF0146DAF80000890703D5416954
:1039F00001F00201416105F5006104910BF050FFF7
:103A00000146DAF80000C906059535D5816921F02F
:103A1000100181612C6A04F00F0000EBC0000AEB7A
:103A20008001C4F34340062801F5157512D0022821
:103A30001BD147F6F07014EA000616D0E968340985
:103A4000059822460BF030FFE86800EB1610E8609E
:103A500008E000BF05980AF29C4108220BF024FF01
:103A6000C4F30A14686920446861DAF800008169C7
:103A700041F010018161059D0BF012FF000340F140
:103A8000F180DAF800000BF0E9FE002800F0EA808F
:103A900006460AF29C404FF4306800244FF0000BB9
:103AA000069019E005EB080002218160B80642BFCC
:103AB00005EB080020218160B80442BF05EB080037
:103AC0004FF4005181600BF1010B760808F12008DA
:103AD00004F1240400F0C680F007F4D0DAF8000006
:103AE0005FFA8BF949460BF0D3FE0746C00760D05A
:103AF00005EB080001218160DAF8000008EB000105
:103B0000036C8A689AF80650012D25D1150733D425
:103B1000950600F19F8043F20B05C4F65475AB4245
:103B2000059D02D312F4004230D10AEB0402D2F810
:103B3000743209696FF3DF41A3EB0101C2F8681227
:103B40009CBBD2F86432002B00F08A80D2F860026D
:103B50000844C2F8600228E043F20B05C4F654752D
:103B6000FF35AB4218D1059D10040FD4900644BF19
:103B70002020886019E000BF43F20B00C4F65470A7
:103B8000059D834215D312F4004012D04FF400403B
:103B9000886038070FD43DE0059D34B9DAF8641227
:103BA00019B90021069A0BF059FB50464946FFF718
:103BB000A3FD38072ED505EB080008218160DAF84F
:103BC000000043F20B02056C40448168C4F6547255
:103BD00095420BD311F4004108D04FF400418160AD
:103BE000504600F037FD059D0AE000BF504600F04A
:103BF00031FD43F20B00C4F654708542059D09D394
:103C00009AF80600012805D1DAF80000069A012189
:103C10000BF024FBF80642BF05EB08001021816081
:103C2000B8077FF543AF6869000604D50499486872
:103C300040F4806048600AEB040090F857120129B4
:103C40007FF430AF002180F857125046494600F00B
:103C500035FB27E720208860059D3807ABD4D9E7DE
:103C600001219FE7DAF80000CDF818A00BF018FE4C
:103C7000400340F1D380069800680BF0E7FD002870
:103C800000F0CC800646069805F5106900F1140195
:103C900000F29C40002703910190CDF8089004E0C9
:103CA000760807F1010700F0B980F007F8D0069810
:103CB0005FFA87FA006851460BF0D8FD0446C0074A
:103CC00026D0049A07F00F00516B012303FA00F08D
:103CD00021EA0000506309EB471083600698807961
:103CE000012811D1039907EBC70001EB8000D0E94F
:103CF00002121144C1603FB9006928B90698019ABF
:103D0000006801210BF0AAFA06985146FFF7EAFC79
:103D1000200742BF09EB471008218160E00642BF3F
:103D200009EB471010218160600642BF09EB471084
:103D300040218160A00716D5284639460BF014FDB6
:103D4000039907EBC70001EB800010F8031F01295E
:103D500005D1002101700698514600F0ABFA09EB3D
:103D600047100221816020069AD5039907EBC7000E
:103D700001EB8008D8E90420824291D30699D8F853
:103D800008300C68111A994238BF0B4604EB4711F2
:103D9000D1F818C903F1030E1FFA8CF3B3EB9E0F91
:103DA0002DD301F5106900BFD8F81020824224D924
:103DB000101A069AD8E902B19579584538BF83465A
:103DC0001FFA8BF3204652460095059D0CF014F91E
:103DD000D8F80C00D8F814105844C8F80C0001EBBF
:103DE0000B00C8F81400D9F818100BF1030289B2BF
:103DF000B1EB920FD8D2D8F81020DDF808908242AB
:103E00003FF64EAF07F00F00D4F83418012202FA43
:103E100000F021EA0000C4F8340841E7DDF818900A
:103E2000D9F800000BF03CFD002821D4D9F800009F
:103E30000BF036FD00053AD4D9F800000BF030FD48
:103E4000C00445D50499486820F001004860D9F8BD
:103E5000000010210BF088FC99F80400010600F026
:103E6000EC80C1B2042900F0030035D200219AE0B1
:103E70000499486820F00100486099F8CC040128B2
:103E800008D1002089F8CC0448460021FFF7B8FB90
:103E900003E000BF484600F0C1FBD9F800004169CB
:103EA00001F0004141610BF0FBFC0005C4D5049812
:103EB0008068C00702D0484600F018FCD9F800001E
:103EC000416901F4006141610BF0EAFCC004B9D41E
:103ED000D9F80000DDE000BF6FF0600202EA411295
:103EE00000234FF67F370021EE18C6F80879D6F880
:103EF0000059803325F40015C6F80059C6F8087B30
:103F0000D6F8005B9A4225F40015C6F8005BD6F897
:103F1000005B01F1040145F00065C6F8005BC6F8DE
:103F20002879D6F8205925F40015C6F82059C6F886
:103F3000287BD6F8205B25F40015C6F8205BD6F860
:103F4000205B45F00065C6F8205BC6F84879D6F8D6
:103F5000405925F40015C6F84059C6F8487BD6F8F4
:103F6000405B25F40015C6F8405BD6F8405B45F091
:103F70000065C6F8405BC6F86879D6F8605925F444
:103F80000015C6F86059C6F8687BD6F8605B25F462
:103F90000015C6F8605BD6F8605B45F00065C6F8B2
:103FA000605B059DA0D1002847D005F5106202EBAB
:103FB00041134FF67F374E019F609559059B25F4BD
:103FC000001503F53063955103EB4115AF609D5922
:103FD000012825F400159D519D5945F000659D511E
:103FE0002BD04E1C02EB46147501A760545903EB0D
:103FF000461624F400145451B7605F59022827F480
:1040000000175F515F5947F000675F5115D0881C5A
:1040100002EB40174FF67F364101BE60575803EB65
:10402000401027F4001757508660585820F40010AD
:104030005850585840F000605850049F8421F86947
:10404000442240F00110F86199F80F0000284FF069
:104050000B0008BF142108BF42F22B007B5808BF99
:10406000102218437850B85840F00B00B850386808
:1040700009F29C4220F4FE603860D9F8000099F8FB
:1040800006100BF0EBF8D9F80000416901F48051FB
:1040900041610BF005FC0146D9F8000089041AD5EE
:1040A0000AF0FCFCD9F800000BF0BEFBD9F8004088
:1040B00089F8070000F0ACFC99F80720014620467B
:1040C0000BF00EFE484600F093FAD9F80000416963
:1040D00001F4005141610BF0E3FB000706D4D9F86D
:1040E00000000BF0DDFB00060DD437E0484600F081
:1040F00099FAD9F80000416901F0080141610BF01B
:10410000CFFB00062AD50599886920F080008861D8
:1041100099F80400022821D309F5157409F1140552
:10412000012640F27B2704E00136864207F124078E
:1041300014D219F807100129F6D106F00F0000EB90
:10414000C0023006D9F8000005EB820158BF04EB2D
:1041500082010BF019FA99F80400E5E7D9F800009C
:104160000BF09EFBC0024FD4D9F800000BF098FB77
:10417000059D800240F1808099F80410022929D31E
:1041800005F53260013909F51F72012305E000BF12
:104190002030013902F124021CD007681678012E64
:1041A000F6D1B7F1FF3FF3DCD9F8D46407F48037D8
:1041B00006F00106B742EBD102F8013CAF6947F0C7
:1041C0008007AF616F693F06E2D40499486840F404
:1041D00000704860D9F80000416901F400114161A4
:1041E0000BF05EFB40004DD54846FFF777FAD9F853
:1041F0000000416901F0804141610BF051FB400733
:104200007FF5DDAB45E000BF99F80400022827D315
:10421000059909F1140401F5126509F13B064FF007
:104220000108012706E000BF01372035874206F16B
:10423000240615D229687278012AF5D1B1F1FF3F21
:10424000F2DC07F00F0000EBC001D9F8000004EB2E
:10425000810186F800800BF097F999F80400E3E7F4
:10426000D9F80000416901F4801141610BF018FB9D
:10427000059D80023FF580AFD9F800000BF010FBE0
:104280004000B1D4D9F800000BF00AFB40077FF5DD
:1042900096ABD9F800004468610704D54846FFF79B
:1042A0004FFAD9F8000041682143416007B0BDE8EA
:1042B000F08F0000D0F8E00409F00CBED0F8E00464
:1042C00009F01EBE002804BF01207047F0B581B080
:1042D0000446056890F8950428B9002084F89404F1
:1042E000204600F041F90320B5F1A04F84F8950471
:1042F00004BF0020A07120680AF0A8FF94E80F0016
:10430000267C00960AF0DAFB002840F00081206845
:1043100000210BF01FFB002840F0F98094F804E026
:10432000BEF1000F00F0EC800EF0030CBEF1040FA4
:104330004FF0000240D30EF0FC03A4F190000321E3
:10434000012500BFCE1E80F8A460A0F8BE608E1EBE
:1043500080F8C860A0F8E2604E1E80F8EC60A0F81B
:10436000066180F81011A0F82A110E1D013180F8A5
:10437000A55080F8A820C0E92B22C0F8B42080F80E
:10438000C95080F8CC20C0E93422C0F8D82080F889
:10439000ED5080F8F020C0E93D22C0F8FC2080F804
:1043A000115180F81421C0E94622C0F82021903034
:1043B00099423146C6D1F21EBCF1000F31D004F152
:1043C000140002EBC20100EB8105012300F821205B
:1043D0000021BCF1010F6B706A832971C5E90211DC
:1043E00029611ED0551C05EBC50600EB8607BCF104
:1043F000020F7B7000F826507D833971C7E90211E6
:1044000039610ED0911C01EBC10200EB8203012542
:1044100000F8221000205D7059831871C3E9020072
:104420001861BEF1000F6BD0BEF1040F4FF0000217
:1044300036D30EF0FC000321234600BFCF1E83F8C5
:1044400054728F1E83F878724F1E83F8C0120D1DB0
:10445000013183F8552283F85822C3E99722C3F823
:10446000642283F8792283F87C22C3E9A022C3F86E
:10447000882283F89D2283F89C7283F8A022C3E9E6
:10448000A922C3F8AC2283F8C12283F8C422C3E96D
:10449000B222C3F8D022903381422946CED1EA1EFF
:1044A000BCF1000F2CD004F5157002EBC20300EB39
:1044B00083070021BCF1010F797000F823203971C6
:1044C000C7E9021139611BD0531C03EBC30700EB92
:1044D0008706BCF1020F717000F827303171C6E910
:1044E000021131610CD0911C01EBC10200EB82037F
:1044F00000275F7000F822101F71C3E902771F6167
:1045000094E80F00277C00970AF044FC30B10220A9
:1045100084F89504012001B0F0BD00BF0020607454
:10452000012084F8950420680AF024FC002001B0E2
:10453000F0BD00000068B0F1A04F18BF704780B513
:1045400043F63400C4F20200016821F080010160EA
:104550000020C4F202004FF4C051FEF77DFD43205D
:10456000BDE88040FEF7E8BFB0B586B00068002423
:10457000B0F1A04F0594CDE903440294019401D019
:1045800006B0B0BD43F630050094C4F202052868B9
:1045900001A940F001002860286800F001000090A7
:1045A00000984FF4C05001900220CDE9020403208E
:1045B00004900A2005900020C4F20200FEF734FEA9
:1045C00068680B2140F080006860009468690022F0
:1045D00040F480406861686900F480400090009871
:1045E0004320FEF7D1FF4320FEF7BCFF06B0B0BD6D
:1045F00010B50446C07928B1022801D0FDF712FF9A
:10460000012100E00021D4F8E00409F0FFFCD4F817
:10461000E004BDE8104009F0AFBC0000D0F8E004B1
:1046200009F0DABCD0F8E00409F0E0BC90F894247A
:10463000012A04BF0220704710B5012280F894249B
:1046400041740268044610460BF038FB002084F8E1
:10465000940410BDD0F8E02400F29C41104609F00B
:10466000EBBC000010B5044690F89404012804BF88
:10467000022010BD2068012184F89414C168490605
:1046800006D5617B012903D1816B41F480318163BF
:104690000BF002F820680AF05DFB002084F8940417
:1046A00010BD0000B0B5044690F89404012804BF82
:1046B0000220B0BD2568012084F8940428460AF041
:1046C000C5FD20680AF056FB206810210BF04CF85D
:1046D000E868400606D5607B012803D1A86B20F46A
:1046E0008030A863002084F89404B0BD10B504465F
:1046F000D0F8E00409F008FD2068D0F8001E41F071
:104700000101C0F8001EE07A002808BF10BD4EF677
:104710001050CEF20000016841F00601016010BDAA
:10472000F0B581B00446006810F0050F2DD0682761
:10473000C4F2472743F670060020C4F20206386030
:10474000FEF74EFE054600BF56F8700C000105D579
:10475000FEF746FE401B0228F6D93FE0D4E90101EE
:10476000090741EA8010706101203860FEF738FEC9
:10477000054600BF56F8700C000105D4FEF730FE68
:10478000401B0228F6D929E0206880074FF000007E
:1047900058D543F67006C4F20206009056F8300C65
:1047A00047F2000740F0805046F8300C56F8300CC5
:1047B000C4F2000700F0805000900098386840F480
:1047C00080703860FEF70CFE054600BF3868C005F3
:1047D00008D4FEF705FE401B0228F7D9032001B0DC
:1047E000F0BD00BF306810F4407013D0E16801F4F0
:1047F000407188420ED0306840F64061C4F24721D3
:10480000012220F440700A6000220A6030603068A3
:10481000C00719D1E06856F8681C4FF6FF4300F452
:10482000407221F4F811C0F6FF730340B2F5407FE7
:1048300008BF194346F8681C31686FF31F300843FE
:104840003060002001B0F0BDFEF7CAFD054641F220
:10485000883700BF30688007DCD4FEF7C1FD401BFD
:10486000B8424FF00300F5D9ECE70000002804BF80
:10487000012070472DE9F04143F60808C4F2020810
:104880000446D8F8F8030D4600F00700884207D226
:1048900088F8F853D8F8F80300F00700A84277D159
:1048A0002068810717D5410705D5D8F8001041F4D5
:1048B000E051C8F80010010705D5D8F8001041F400
:1048C0006041C8F80010D8F80010A26821F0F0018B
:1048D0001143C8F80010C00740D1D8F8F80300F021
:1048E0000700A84207D988F8F853D8F8F80300F071
:1048F0000700A8424CD12068410707D5D8F800101E
:10490000E26821F4E0511143C8F80010000708D50F
:10491000D8F80000216920F4604040EAC100C8F8DE
:10492000000000F0A3F8D8F8001043F69822C1F375
:104930000311C0F60802515C40F2380220FA01F17E
:1049400040F20400C2F200000068C2F200021160EE
:10495000FEF776FD0020BDE8F08100BF6068811E93
:10496000022907D258F8081C89015CBF0120BDE864
:10497000F08111E0012807D158F8081C89035CBFB9
:104980000120BDE8F08107E058F8081C890703D42E
:104990000120BDE8F08100BFD8F8001021F003012C
:1049A0000843C8F80000FEF71BFD064641F28837B1
:1049B000D8F80000616800F00C00B0EB810F8CD0DB
:1049C000FEF70EFD801BB842F2D90320BDE8F0814E
:1049D0000F22026043F60802C4F20202136803F0D9
:1049E00003034360136803F0F0038360136803F468
:1049F000E053C360D2F800C04FF4E05303EADC0395
:104A00000361D2F8F80300F0070008607047000067
:104A100040F23800C2F200000068704740F23800EF
:104A200043F60801C2F20000C4F2020100680968FE
:104A300043F6A822C1F38221C0F60802515CC840A7
:104A40007047000040F2380043F60801C2F200004F
:104A5000C4F202010068096843F6A822C1F342319A
:104A6000C0F60802515CC8407047000010B543F61C
:104A70000404C4F20204606800F00C0142F2004039
:104A80000829C0F2F40007D0042918BF10BD41F274
:104A90000020C0F27A0010BD216801F03F022168B9
:104AA00023684902C3F3881106D4A1FB0001002347
:104AB000FBF7B6FC07E000BF41F20020C0F27A002D
:104AC0004843B0FBF2F021680222C1F3014102EB3E
:104AD0004101B0FBF1F010BD002804BF0120704778
:104AE0002DE9F04182B00446007843F60006C00785
:104AF000C4F202060CD0B06800F00C00042840F0AC
:104B000081803068800303D56068002800F06881E8
:104B1000207880071BD5B06810F00C0F09D0B06862
:104B200000F00C00082840F087807068400200F117
:104B300083803068800703D5E068012840F0508109
:104B40003068216920F0F80040EAC1003060207828
:104B5000000713D4207840072AD4A569002D00F05F
:104B60003A81B06800F00C00082840F0A580012DC3
:104B700040F00E81012002B0BDE8F081606900289C
:104B800000F082800020C4F247200121C0F8801E7E
:104B9000FEF726FC054600BF706F8007DAD4FEF7EB
:104BA0001FFC401B0228F7D9032002B0BDE8F081AA
:104BB000306C5FEAC0080AD400200190306C40F0ED
:104BC00080503064306C00F080500190019847F2C2
:104BD0000007C4F200073868C00547D4386840F4BD
:104BE00080703860FEF7FCFB054600BF3868C005E2
:104BF0003CD4FEF7F5FB401B0228F7D9032002B096
:104C0000BDE8F081B06800F00C00082803D170689E
:104C100040023FF576AF61683068B1F5803F07D05C
:104C2000B1F5A02F40F09A8040F4802030603068C9
:104C300040F4803030609AE0E068002840F20000E4
:104C4000C4F247205CD001210160FEF7C9FB054694
:104C5000306880073FF574AFFEF7C2FB401B0228A7
:104C6000F6D9032002B0BDE8F08100BFA168306F23
:104C7000012905D0052955D140F004003067306F77
:104C800040F00100306756E00020C4F247200021C8
:104C9000C0F8801EFEF7A4FB054600BF706F8007BA
:104CA0007FF558AFFEF79CFB401B0228F6D9032086
:104CB00002B0BDE8F08100BF0027C4F24727002002
:104CC0003866FEF78DFB022D05460DD13068800158
:104CD00040F18A80FEF784FB401B02284FF003005E
:104CE000F4D902B0BDE8F0813068800173D5FEF7D9
:104CF00077FB401B02284FF00300F5D9F1E700BF16
:104D000000210160FEF76CFB054600BF306880079C
:104D10007FF51DAFFEF764FB401B02284FF0030038
:104D2000F4D9DEE720F001003067306F002920F071
:104D3000040030677AD0FEF753FB054641F288370E
:104D4000306F800700F18480FEF74AFB401BB842B9
:104D5000F6D9032002B0BDE8F08100BF20F4803016
:104D600030603068002920F4802030607AD0FEF76F
:104D700037FB0546306880033FF5CAAEFEF730FBCF
:104D8000401B6428F6D9032002B0BDE8F08100BFC3
:104D90007068E16900F480028A4221D1216A00F042
:104DA0003F028A421CD147F6C071626A0140B1EBF2
:104DB000821F15D1A16A4FF6FF73C903994300F40E
:104DC0004032A1F580318A420AD1E16A00F0706078
:104DD000B0EB016F04D1002002B0BDE8F08100BF4C
:104DE000012002B0BDE8F08104F11C052FCD08437D
:104DF00040EA8210D9034FF6FF729143A1F580314A
:104E000040EA05600843706001203866FEF7E8FA62
:104E1000044600BF30688001DDD4FEF7E1FA001BD4
:104E200002284FF00300F5D95BE700BFFEF7D8FA80
:104E3000054641F2883700BF306F800708D5FEF77E
:104E4000CFFA401BB8424FF00300F5D949E700BF45
:104E5000B8F1000F3FF581AE306C20F08050306427
:104E60007BE600BFFEF7BCFA054600BF3068800352
:104E70007FF54EAEFEF7B4FA401B64284FF00300F6
:104E8000F4D92EE710B5006840684FEA1043C0F32C
:104E9000042E00F03F0CC0F34234CB7081F801E0E7
:104EA00081F802C00C700AB1002010BDDCB22409E8
:104EB00004EB840403F00F0303EB4403020ACB70FA
:104EC0004FEA1E1343EA830302F00F0202EB430290
:104ED0004A704FEA1C1242EA820200F00F0000EB17
:104EE00042008870002010BD10B50068836A4B60D6
:104EF00003696FF3DF338B600068C0F30543C0F3D1
:104F0000062E00F07F0CC0F380540B7081F801E096
:104F100081F802C0CC700AB1002010BD020C1B0940
:104F200043EA830302F00F0202EB4302040A0A7011
:104F30004FEA1E1202EB820204F00F0303EB42025F
:104F40004A704FEA1C1202EB820200F00F0000EBE5
:104F500042008870002010BD002804BF0120704767
:104F6000B0B50446407F20B900202077204600F0ED
:104F700071F8022060772168C868C0065ED4CA2034
:104F8000486253204862C868400615D4C86840F09B
:104F90008000C860FEF724FA2168CA6852060BD464
:104FA000054600BFFEF71CFA401BB0F57A7F49D8D2
:104FB0002168C8684006F5D588684FF6BF72CFF6FD
:104FC0008F7210408860D4E9010CD4E9033562691E
:104FD00028438D681043284388600B61086940EAC4
:104FE0000C400861C86820F08000C86088688006AE
:104FF0001AD447F65F70C0F20100C860FEF7F0F9FE
:10500000054600BF2168C86880060DD4FEF7E8F9A0
:10501000401BB0F57A7FF5D9042060772068FF2126
:1050200041620120B0BD00BF086C20F480200864FC
:10503000A0690A6C10430864FF2048620120607771
:105040000020B0BD042060772068C168FF21416264
:105050000120B0BD80B584B0006842F60002C4F201
:105060000002002190420291019101D004B080BD64
:105070000220009040F20030C0F219000390684610
:10508000FFF74EFB002818BFFDF7CCF940F63C6057
:10509000C4F247200121016004B080BD2DE9F04138
:1050A0000446007F01284FF0020008BFBDE8F081F0
:1050B0000123237760773AB14878CA788E78000266
:1050C00040EA024846E000BF48784FF0CD0CC206E7
:1050D00042BF00F0EF000A304870CA788E78A2F123
:1050E0000A07FDB205FB0CF5ED0A05EB8503A7EBFE
:1050F0004303A0F10A0703EB0513FDB25FFA82FE3A
:1051000005FB0CF5BEF1090F88BF03F11002ED0A93
:105110005FFA82FE05EB8502A7EB4202C3B202EB07
:105120000512092B88BF02F11000A6F10A02D3B2C2
:1051300003FB0CF3C0B2DB0A000203EB830740EA77
:105140000E48F0B2A2EB470202EB0312092888BF17
:1051500002F110060F782168CA2048625320486285
:10516000C868400614D4C86840F08000C860FEF7E4
:1051700037F92168CA6852060AD40546FEF730F9A5
:10518000401BB0F57A7F35D82168C8684006F5D550
:10519000F0B240EA08007A0320F0C00010434860F3
:1051A000C86820F08000C8608868800618D447F678
:1051B0005F70C0F20100C860FEF712F9054600BF3B
:1051C0002168C86880060BD4FEF70AF9401BB0F5C9
:1051D0007A7FF5D9042060772168012003E000BFC1
:1051E000012060770020FF224A6200212177BDE87C
:1051F000F08100BF042060772168C8680120F2E7D1
:105200002DE9F0470446007F01284FF0020008BF57
:10521000BDE8F0870D460121217760772168886815
:1052200032B140060CD44FF0000885F803800AE044
:10523000400611D44FF0000885F803800FE000BF4E
:10524000E8784FEA80586A78287895F802A0120228
:1052500042EA004945E000BFE8784FEA80582878E4
:105260004FF0CD0EA0F10A06F3B203FB0EF36A78FD
:10527000DB0A03EB8307A6EB4706A2F10A0706EB5E
:105280000313FEB25FFA80FC06FB0EF695F802A04F
:10529000BCF1090F88BF03F11000F60A5FFA80FC29
:1052A00006EB8600D3B2A7EB400000EB0610092BFB
:1052B00088BF00F11002D0B2AAF10A02D3B203FBF8
:1052C0000EF3DB0A000203EB830740EA0C495FFAA6
:1052D0008AF0A2EB470202EB0312092888BF02F111
:1052E000100ACA20486253204862C868400615D494
:1052F000C86840F08000C860FEF772F82168CA688C
:1053000052060BD4064600BFFEF76AF8801BB0F5C4
:105310007A7F43D82168C8684006F5D55FFA8AF0DD
:1053200040EA090047F67F7240EA0800C0F27F02B7
:1053300010400860886820F480208860D5E9030266
:105340008B68104318438860C86820F08000C860EC
:105350008868800618D447F65F70C0F20100C86004
:10536000FEF73EF8054600BF2168C86880060BD4EA
:10537000FEF736F8401BB0F57A7FF5D90420607748
:105380002168012003E000BF012060770020FF2298
:105390004A6200212177BDE8F08700BF04206077D2
:1053A0002168C8680120F2E77047000090F85100BA
:1053B00070470000B0B582B001684A688B6803F09E
:1053C0004105012D08D112F0400505D0016C02B055
:1053D000BDE8B040084700BF9D0707D512F0800523
:1053E00004D0416C02B0BDE8B040084713F4B07F70
:1053F00018BF12F0200501D102B0B0BD5D0618D56E
:1054000090F85150032D09D100200190C8680190F7
:1054100088680190019802B0B0BD00BF456D45F0AD
:105420000405456500250195CD6801958D680195B8
:10543000019D9D0604D4DB0511D4436DDBB9DBE788
:10544000456D45F001054565002501958D6801957F
:105450000D6825F040050D60019DDB05EDD5436D20
:1054600043F008034365002301938B680193019B7C
:10547000436D002BC0D04B68920723F0E0034B60D4
:105480004FF0010380F8513026D04A684CF60124D1
:1054900022F003024A60C16CC0F6010459B105460E
:1054A00008460C65FDF7CCFB0146284619B1416D55
:1054B00041F040014165816C00299DD00C65044696
:1054C0000846FDF7BDFB002896D0606D40F0400017
:1054D000606502B0B0BD00BF02B0BDE8B040FFF7EC
:1054E00063BF000070B528B1416A29B10021016194
:1054F000142106E0012070BD4168B1F5827F02D021
:105500001C21002242500026866290F8511029B9D1
:1055100080F85060054600F03DF82846022180F8EA
:10552000511090E82E0002F482720C6803F40443D8
:1055300024F040040C601A4405F4006305691A4421
:1055400005F0020345691A4405F001038569C46941
:105550001A4405F400731A4404F03803046A1A4428
:1055600004F08003846A1A4304F400531A430A6067
:10557000436A042202EA154203F010031A444A6007
:10558000CA6922F40062CA610121466580F851109F
:10559000304670BD2DE9F04186B00446006843F600
:1055A0000001C4F2000100268842CDE90466CDE97D
:1055B0000266019656D043F20001C4F2010188420E
:1055C00040F0B98043F630000096C4F20200416911
:1055D00041F480514161416901F480510091009989
:1055E0000096016841F002010160006801A900F025
:1055F000020000900098282001900220CDE90206C8
:10560000032004900520059040F20040C4F20200FF
:10561000FDF70AFE46F25800C4F202004EF67C1571
:1056200000F58060C2F201054FF0C06140224FF4E6
:10563000806385E8470005F110004FF400674FF4E0
:10564000005C80E888102846C5E907666E62FDF7B1
:10565000EBFB002818BFFCF7E5FEA564AC6306B0C1
:10566000BDE8F08143F630000096C4F20200016903
:1056700046F2580841F4804101610169C4F2020810
:1056800001F48041009100990096016841F0020107
:105690000160006801A900F00200009000984FF43A
:1056A000604001900220CDE902060320049005200D
:1056B000059040F20040C4F20200FDF7B5FD44F24F
:1056C000F40508F11800C2F201054021C5E9000601
:1056D00005F108004FF48067C2C02846C5E9056699
:1056E000C5E907666E62FDF79FFB002818BFFCF74F
:1056F00099FEA564AC634EF6DC15C2F201050020EC
:10570000C5E90080C5E90200C5E90470C5E90600E5
:10571000C5E908002846FDF787FB002818BFFCF7FD
:1057200081FE242009210022E564AC63FDF72CFFF3
:105730002420FDF717FF06B0BDE8F08110B590F802
:105740005140012C1ED1D0F808C013460A46BCF1C6
:10575000000F0BD14168B1F5827F07D104241146B7
:1057600080F85140BDE8104000F0A8B9002A4FF081
:10577000010118BF002B01D1084610BD90F8501050
:10578000012901D1022010BD012180F8501004210F
:105790004FF0000E80F85110C0F854E08263838708
:1057A000C387C0E910EEA0F834E0A0F836E0016845
:1057B000BCF5004F07D10B6823F040030B600B686A
:1057C00023F480430B60D0F84CC04CF62D234CF6EC
:1057D0004524C0F60103C0F60104CCE90F434CF6A2
:1057E0000D23C0F60103CCE9133EC38F04460C31F0
:1057F0006046FDF7CBFB48B1606D40F0100060657E
:10580000002084F85000012010BD00BF206801680E
:10581000490603D4016841F040010160002184F889
:105820005010426842F020024260426842F0010299
:105830004260084610BD000070470000704700003D
:105840002DE9F04184B01D4616460F460446FDF78B
:10585000C7FD94F8511001290ED18046002F4FF05A
:10586000010018BF002E03D104B0BDE8F08100BFD5
:1058700094F85000012803D1022004B0BDE8F08163
:10588000012084F850000320002184F85100616554
:105890002763A686E686A163A187E187A0682164C5
:1058A000B0F5004F2068616407D1016821F0400124
:1058B0000160016841F4804101600168490603D438
:1058C000016841F0400101606168731EE268B1FA4D
:1058D00081F1B3FA83F349095B09B2F5006F41EA3C
:1058E000030139D131B137F8021BC1602763E08E63
:1058F0000138E086E08E002870D0681C0BD11AE0D9
:10590000216B31F8022BC2602163E08E0138E08602
:10591000E08E002862D0206881688907F0D4FDF706
:105920005FFDA0EB0800A842F2D338E0FDF758FD78
:10593000E08E002852D0206881688907F6D5216B57
:1059400031F8022BC2602163E08E0138E086E08EE0
:105950000028F0D142E000BF39B139780173206BE3
:1059600001302063E08E0138E086E08EB0B3681C21
:105970000BD123E0216B09780173206B0130206388
:10598000E08E0138E086E08E40B3206881688907A8
:10599000F0D4FDF725FDA0EB0800A842F3D30120C9
:1059A00084F85100002084F85000032004B0BDE8C2
:1059B000F08100BFFDF714FDE08E78B120688168AA
:1059C0008907F7D5216B09780173206B01302063BB
:1059D000E08E0138E086E08E0028EFD120460221DB
:1059E00001222B46CDF8008007F08EF9E0B1606D02
:1059F00040F02000606520206065A06838B9002074
:105A000002902068C168029180680290029801208B
:105A100084F85100002084F85000606D002818BF01
:105A2000012004B0BDE8F08140F23800C2F200006D
:105A3000006849F68171C1F25E61A0FB0101480D69
:105A40004FF47A71484303906068B0F5827F0BD1C0
:105A50002046802100222B46CDF8008007F054F923
:105A60000028C4D1C9E700BF03980028C5D0039817
:105A700001380390206880680006BED5039800288E
:105A8000BBD0039801380390206880680006B4D525
:105A900003980028B1D003980138039020688068EB
:105AA0000006AAD503980028A7D0039801380390D0
:105AB000206880680006D7D49FE7000070B590F892
:105AC0005150012D08D100294FF0010C18BF002AB8
:105AD0000ED1604670BD00BF4468B4F5827F0DD121
