:020000040800F2
:1000000038FA0120F5020008CDBE00081972000878
:10001000A5BE0008212100082102010800000000FF
:1000200000000000000000000000000081D1000876
:10003000D123000800000000A1BF0008A5D10008DE
:100040000F0300080F0300080F0300080F03000848
:100050000F0300080F0300080F0300080F03000838
:100060000F0300080F0300080F0300080F03000828
:100070000F0300080F030008A9210008B52100089C
:10008000C1210008CD2100080F0300080F0300085C
:100090000F0300080F0300080F0300080F030008F8
:1000A0000F0300080F0300080F0300080F030008E8
:1000B0000F0300080F0300080F0300080F030008D8
:1000C0000F0300080F0300080F0300080F030008C8
:1000D000B5CB00080F03000859D900080F0300082A
:1000E0000F0300080F0300080F0300080F030008A8
:1000F000B9D200080F0300080F0300080F0300081F
:100100000F0300080F0300080F0300080F03000887
:100110000F0300080F0300080F0300080F03000877
:100120000F0300080F030008D9210008E52100088B
:100130000F03000800000000000000000F0300088B
:100140000F0300080F0300080F030008EDBE0008AE
:100150000F0300080F0300080F0300080F03000837
:100160000F0300080F0300080F0300080F03000827
:100170000F0300080F03000800000000000000004B
:100180000F0300080F03000800F002F800F0A2F8C7
:100190000AA090E8000C82448344AAF10107DA45E2
:1001A00001D100F097F8AFF2090EBAE80F0013F092
:1001B000010F18BFFB1A43F00103184794D70D0035
:1001C000E4D70D000A4410F8014B14F00F0508BFE6
:1001D00010F8015B240908BF10F8014B6D1E05D013
:1001E00010F8013B6D1E01F8013BF9D1641E03D0EC
:1001F000641E01F8015BFBD19142E4D3704700001B
:100200000023002400250026103A28BF78C1FBD81F
:10021000520728BF30C148BF0B6070476E2900F0FD
:100220008287702900F00D8366293CF06DA3652953
:100230003CF06AA367293CF067A361293CF066A300
:1002400003681B0A28BF41F08001692900F0E8819A
:10025000642900F0E581752900F0E2816F2900F042
:100260009B82782900F0D982E92901F0E381E42911
:1002700001F0E081F52901F0DD81EF2900F098829D
:10028000F82900F0D8820368DB0928BF41F080011B
:10029000632901F09A81732901F09F81E32901F01C
:1002A000BD81F32901F0C281002070471FB57CF0A9
:1002B0001EFB01F083FA0400002000217CF04CF9C1
:1002C000401C6060002000217CF030F9E0601FBD20
:1002D00010B510BD01F0BEFE1146FFF7E7FF63F059
:1002E0000DFB01F0DCFE03B4FFF7F2FF03BC10F0DE
:1002F00061F900000948804709480047FEE7FEE72A
:10030000FEE7FEE7FEE7FEE7FEE7FEE7FEE7FEE7C5
:1003100004480549054A064B70470000A5D200086D
:100320008901000838F4012038FA012038F601204C
:1003300038F60120704753EA020C00F069802DE97D
:10034000F04B4FF00006002B1FBFB3FA83F503FA02
:1003500005F424FA05F65E4012BF1643B2FA82F5A0
:1003600002FA05F4C5F120051EBF22FA05FC44EA95
:100370000C04203556EA044C4FEA144418BF641CA0
:100380004FF000084FF00009904271EB030C39D395
:10039000002919BFB1FA81F701FA07F6B0FA80F720
:1003A00000FA07F6C7F120071EBF20FA07FC46EA4D
:1003B0000C062037B6FBF4FCA7EB0507103F07F04F
:1003C0001F0BCBF120062CFA06F60CFA0BFB44BFF0
:1003D000B3460026202FA4BF5E464FF0000B5BEA19
:1003E000060C08BF4FF0010B19EB0B0948EB060890
:1003F000ABFB027C06FB02CC0BFB03CCC01B71EBFE
:100400000C01C1E70B46024641464846BDE8F08B69
:1004100013B5084318BF4FF0FF300146AFF300801B
:10042000BDE81C40704753EA020C23D010B54C10B5
:1004300084EA530404D54042C1F1000138BF491E8B
:100440001B4204D55242C3F1000338BF5B1EFFF7C5
:1004500072FF14F0804F04D04042C1F1000138BF58
:10046000491E14F0004F04D05242C3F1000338BFBC
:100470005B1E10BD13B540424FF0000070EB01044D
:10048000B8BF012001F0004100281CBF6FF00041FF
:100490004FF0FF30AFF300801CBD00007CB51D465F
:1004A00016460C00009007D04142A14202D32044DE
:1004B000401E01E04FF0FF30064B7B442A46694660
:1004C0000190304601F057F8002C02D0009A00212C
:1004D00011707CBDE91000000FB4044910B503AAE7
:1004E000029801F07FF810BC5DF814FB2433002063
:1004F0000FB41CB5084B06AA7B44694600900598CA
:1005000001F039F804460020694601F047F820461A
:100510001CBC5DF814FB0000A11000000FB41CB55A
:100520000C0007AA009007D04142A14202D3204408
:10053000401E01E04FF0FF30074B7B4469460190BD
:10054000069801F018F80021002C01D0009A1170D3
:100550001CBC5DF814FB00006910000070B5044677
:1005600085690068C10601D5302600E02026C00755
:1005700007D070BDD4E9012130469047206A401C65
:1005800020626D1EF6D570BD70B504468569007891
:10059000C00707D170BDD4E9012120209047206A0F
:1005A000401C20626D1EF6D570BD09684A0501D554
:1005B00040B27047C905FCD500B2704709684A05CA
:1005C00001D5C0B27047C905FCD580B2704770B57F
:1005D0000C460546012A05D02878800600D5EA6930
:1005E000002302E0012305E05B1C934202D2E05CA1
:1005F0000028F9D1A869E618C01AA861286A184429
:1006000028622846FFF7AAFF04E0D5E9012114F883
:10061000010B9047B442F8D32846FFF7B5FF70BDF1
:100620002DE9F0410646002410687529314616A5CB
:1006300010D0FFF7BAFF002802DA404213A507E006
:1006400031688A0701D512A502E0490704D511A532
:10065000012401E0FFF7B2FF00210A2206F124077E
:1006600009E0B0FBF2FCB0FBF2F302FB1C003030FF
:1006700078541846491C0028F3D123462A463046B0
:10068000BDE8F04100F0F6BC000000002D000000C5
:100690002B000000200000002DE9FF5F15468A4670
:1006A0000446DFF8AC80F8440027D8E900103E4645
:1006B000CDE9001010E03AF816106A4602A801F0E1
:1006C0003BF8411C07D02178890603D5E269391827
:1006D00091420DD80744761C2078800602D5E06947
:1006E000B84205DDAE42E6DB3AF816000028E2D15A
:1006F000A069C01BA0612046FFF730FFD8E90010B9
:10070000CDE90010002017E03AF818106A4602A858
:1007100001F012F8B0F1FF3F81460BD000250DF13A
:10072000080B05E0D4E901211BF8050090476D1C7A
:100730004D45F7D308F10100B0428046E4DB206A62
:10074000384420622046FFF71FFFBDE8FF9F0000EE
:1007500066C2070030B4002100F1240408E002F072
:100760000705D208303542EA4372DB086554491C5C
:1007700052EA0305F3D10468002310A2250708D527
:1007800004F020040C4304D0C46901230CA2641EAD
:10079000C46130BC00F06EBC10B504462146106840
:1007A000FFF70CFF02462046BDE810400023D1E7CA
:1007B000D21D22F00701D1E90023CBE700000000A1
:1007C00030000000F0B40D460188090502D5214C27
:1007D0007C4402E01F4C7C440E34002100F12406CE
:1007E00008E002F00F071209E75D42EA03721B09F5
:1007F0007754491C52EA0307F3D102780023120709
:1008000004D5702D06D009B1022311342246F0BC64
:1008100000F030BC01231034F8E770B504460D46F3
:1008200021461068FFF7CAFE024629462046BDE869
:1008300070400023C6E7D21D22F00703D3E900234E
:10084000C0E70368126843F0200303600823C36114
:100850000023B7E744C107002DE9F05F894604464D
:100860004FF0000ADFF874B1FB44C0F820A0204626
:10087000E1688847002874D0252806D0D4E90121F2
:100880009047206A401C2062F1E700265F46204620
:10089000E16888472028054607DB312D05D2781905
:1008A00010F8200C08B10643F1E7B00701D526F097
:1008B0000406C4F81CA00027C4F818A02A2D09D0EB
:1008C00028467BF02BFE38B304EB8708303DC8F890
:1008D000185019E059F8041B204604EB8702916177
:1008E000E1688847012F054618D1E069002820DA21
:1008F00026F020061DE0D8F8180000EB800005EB7C
:1009000040003038C8F818002046E168884705469E
:100910007BF004FE0028EED1012F0AD02E2D08D145
:100920002046E16888477F1C0546022F46F02006D6
:10093000C4DBA069002803DA404246F00106A0614A
:10094000F00701D026F010066C2D0BD0682D09D0D1
:100950004C2D39D06A2D35D0742D35D07A2D33D029
:1009600016E038E0E1682F4620468847B842054641
:1009700009D16C2F26D04FF48060E16806432046F1
:100980008847054604E06C2F1AD04FF48070064368
:100990000DB3A5F14100192802D8203546F40066B0
:1009A0004A462946204626604E46FFF737FC80B16E
:1009B00001280BD0F61D26F0070000F1080956E7C4
:1009C0004020E4E78020D8E70020D6E706F10409BC
:1009D0004DE7284652E7206ABDE8F09FD4C00700E3
:1009E0000FB400B58DB010A9099000910B904FF095
:1009F000FF300A9000200C90064878440690064884
:100A000078446A4607900F9909A800F065FE0DB07A
:100A10005DF814FBFB0C0000130D00002DE9FF5FD7
:100A20001D464FF0FF3B91464FF000085F46D5E969
:100A30000146A96901987F1C8847296A8246884730
:100A40000028F6D1BAF1FF3F0CD0002E24F4C06488
:100A500019DD600614D5BAF12B0F09D0BAF12D0FAC
:100A60000ED103E0584604B0BDE8F09F44F4806422
:100A7000A96901987F1C8847761E8246002E02DDF8
:100A8000BAF1300F03D0B9F1000F26D032E0A969D6
:100A9000761E01987F1C44F400748847002E82461D
:100AA00005DDBAF1780F06D0BAF1580F03D0B9F1CD
:100AB000000F10D01EE0B9F1000F02D0B9F1100FF5
:100AC00018D1A969761E01987F1C24F40074884708
:100AD0008246102002E0082000E00A20814609E05A
:100AE000A96908FB0908761E01987F1C44F400746C
:100AF00088478246002E05DD4946504600F0D8FD65
:100B00000028EDDAE96901988847A00502D46FF062
:100B10000100A8E7E00725D1600613D5600502D5DE
:100B2000C8F1000000E0404629680A1D2A600968F3
:100B3000220501D5087015E0220701D5088011E0D3
:100B400008600FE02868011D29600068210502D5B2
:100B500080F8008006E0210702D5A0F8008001E0BF
:100B6000C0F8008038467EE72DE9FF5F4FF00008AF
:100B70009946144646469169D2E901A7DDF838B096
:100B800001988847054659EA0B0005D009E0A1699C
:100B90000198761C88470546216A28468847002820
:100BA000F5D1681C03D05FEACA7005D015E04FF09C
:100BB000FF3004B0BDE8F09F2068011D2160D0F82F
:100BC00000800AE05FEACA7001D108F8015BA16900
:100BD000761C01987F1E88470546002F1ADD681C89
:100BE00018D0B9F1000F0DD0E81705EBD060421115
:100BF00020F01F0059F822102A1A012090400142CB
:100C0000E0D107E0BBF1000FDCD12846216A88471C
:100C10000028D7D0E16901988847BBF1000F07D1C0
:100C2000002E05DD5FEACA7002D1002188F80010AD
:100C3000A068B84203DDBBF1000F03D017B16FF01D
:100C40000100B6E73046B4E710B5044603E018F0FB
:100C50000DFB401C09D014F8010B05490028F6D102
:100C6000BDE810400A2018F001BB4FF0FF3010BD66
:100C7000243300200EB5054614460E4613A000F09E
:100C80008AFD284600F087FD16A000F084FD30465E
:100C900000F081FD15A000F07EFD00218DF80B1005
:100CA0000A210DF10A008DF80A1008E094FBF1F218
:100CB00001FB124294FBF1F4303200F8012D002CBC
:100CC000F4DC00F068FD00F05BFD00002A2A2A2019
:100CD000617373657274696F6E206661696C6564B7
:100CE0003A2000002C2066696C6520002C206C697D
:100CF0006E652000401ECAB210F8011F8A4202D061
:100D00000029F9D10020704740EA010310B59B0784
:100D10000FD1042A0DD310C808C9121F9C42F8D065
:100D200020BA19BA884201D9012010BD4FF0FF3016
:100D300010BD1AB1D30703D0521C07E0002010BD2C
:100D400010F8013B11F8014B1B1B07D110F8013BB8
:100D500011F8014B1B1B01D1921EF1D1184610BD99
:100D600040EA0103024630B59B0710D14FF0013431
:100D700000E008C208C91D1B9D4315EAC41FF8D036
:100D800013F0FF0102F8011B0DD01B0AF8E711F860
:100D9000013B002B02F8013B05D011F8013B002B71
:100DA00002F8013BF3D130BD10B5431C02E010F84E
:100DB000011B71B18107FAD14FF0013202C88C1AC0
:100DC0008C4314EAC211F9D0C01A0A0603D0C01E1F
:100DD00010BDC01A10BD0A0401D0801E10BD09024A
:100DE000FCD0401E10BDCBB22AB101788B4203D09B
:100DF000401C521EF9D100207047032A40F2308077
:100E000010F0030C00F0158011F8013BBCF1020F4B
:100E1000624498BF11F801CB00F8013B38BF11F8CC
:100E2000013BA2F1040298BF00F801CB38BF00F8E3
:100E3000013B11F0030300F02580083AC0F0088060
:100E400051F8043B083A51F804CBA0E80810F5E744
:100E5000121D5CBF51F8043B40F8043BAFF3008027
:100E6000D20724BF11F8013B11F801CB48BF11F89C
:100E7000012B24BF00F8013B00F801CB48BF00F86C
:100E8000012B704710B5203AC0F00B80B1E8185024
:100E9000A0E81850B1E81850A0E81850203ABFF464
:100EA000F5AF5FEA027C24BFB1E81850A0E8185003
:100EB00044BF18C918C0BDE810405FEA827C24BF57
:100EC00051F8043B40F8043B08BF7047D20728BFE5
:100ED00031F8023B48BF11F8012B28BF20F8023B34
:100EE00048BF00F8012B704702F0FF0343EA0322DA
:100EF00042EA024200F00AB802F0FF0343EA03228A
:100F000042EA024200F024B84FF000020429C0F087
:100F1000128010F0030C00F01B80CCF1040CBCF12B
:100F2000020F18BF00F8012BA8BF20F8022BA1EB7D
:100F30000C0100F00DB85FEAC17C24BF00F8012B62
:100F400000F8012B48BF00F8012B70474FF000025A
:100F500000B5134694469646203922BFA0E80C50AF
:100F6000A0E80C50B1F12001BFF4F7AF090728BF8A
:100F7000A0E80C5048BF0CC05DF804EB890028BF06
:100F800040F8042B08BF704748BF20F8022B11F02F
:100F9000804F18BF00F8012B704710B5044610F0C1
:100FA000030F08BF11F0030F40F015804FF0013E12
:100FB000121FC0F20E8051F8043BA3EB0E0C2CEA7A
:100FC000030C1CEACE1C08BF40F8043BF0D0A1F192
:100FD000040102F10402521E08DB11F8013B00F883
:100FE000013B002BF7D11146FFF78EFF204610BDC5
:100FF00030B44FF0013C50F8042B51F8043BCCFACC
:1010000052F4D51A20D1FCB950F8042B51F8043B06
:10101000CCFA52F4D51A17D1B4B950F8042B51F8C0
:10102000043BCCFA52F4D51A0ED16CB950F8042B0B
:1010300051F8043BCCFA52F4D51A05D1002CDAD081
:1010400030BC4FF00000704729BAB1FA81F111F0BD
:101050001801D1F120008440F2D1CA40CB4012F0F7
:10106000FF0213F0FF0330BCD01A7047704770477F
:10107000704770472DE9F0470D4699469246044661
:1010800000F124080168880604D5E06921F0100108
:10109000216000E00120A84201DD471B00E000279D
:1010A000A1697A1902EB0900081AA0612078C0062C
:1010B00002D42046FFF752FA002608E0D4E90121C5
:1010C0001AF806009047206A401C761C20624E45A4
:1010D000F4DB2078C0060AD52046FFF73FFA06E089
:1010E000D4E9012130209047206A401C2062381E3C
:1010F000A7F10107F4DC07E0D4E9012118F80500A5
:101100009047206A401C2062281EA5F10105F3DCEF
:101110002046FFF739FA2078000602D50220BDE804
:10112000F0870120FBE711680268006A530501D5CA
:1011300008700AE0D30501D5088006E0130603D540
:10114000C217C1E9000200E00860012070472DE9E4
:10115000FF4F0C461E464FF0FF378BB0D2E900011F
:10116000DDF860800A908A46C1F30A5505B93D460C
:10117000002108464FF00000BAF1000F00F44000D3
:1011800005DA00EB80004FF4400101EA50004FEA1D
:101190009059B9F1010F00DDB9460A9850EA4A00AA
:1011A0000ED044F61050A5F2FF3545432F14B8F188
:1011B000000F1ED07542291E1EDDC9F100021CE081
:1011C000B8F1010F4FF0000001D0302103E0F243ED
:1011D00005E02154401CB042FBDB304600220021D8
:1011E00021540B99C1F80880C1E900200FB0BDE877
:1011F000F08FBD1B6D1CDEE74A4600DA694206A887
:1012000000F0A6FE06AB93E8070003AB83E80700F7
:1012100050460A997AF033FD8DE80700A0F500509A
:101220001F3800900398002D0ADD42F21F014A4644
:101230000844002303A9039068467AF09DFF09E063
:10124000A0F500504A461F38002303A903906846C2
:101250007AF0A7FF8DE807000004000C03D04FF0E0
:10126000FF30410800E01046B8F1000F03D0002223
:10127000009215461EE0751E05D400F0A3FA303228
:1012800062556D1EF9D5B3460122084302D00022F3
:101290007F1C04E02078302801D100227F1E002A24
:1012A000099784D01DE0112D07DA00F08BFA303257
:1012B00062556D1C50EA0102F5D1084302D0009836
:1012C000C8B10EE00021681E05E0235C625C635437
:1012D0002254401E491C8142F7DBAB46A81B401E2E
:1012E0000990002004F80B000B98099AC0F80880B8
:1012F000C0E9002B7AE711264FF0000857E72DE9E7
:10130000F04F88460446D21D22F0070191B0D1E982
:101310000001CDE90A017BF07BF802460B98C00F73
:1013200001D02D2007E02068810701D52B2002E0A5
:10133000202101EAC000032A099001D0072A05DB19
:1013400003464146204600F009FC0BE12078800668
:1013500001D5E06900E00620B8F1650F814606D0AE
:10136000B8F1660F18D0B8F1670F70D131E00020E6
:10137000B9F1110F009001DB112301E009F1010324
:101380000AAA01A90CA8FFF7E2FEDDE90C7000260D
:1013900009F10105834647E001204B4600904FF0DC
:1013A00000470AAA01A90CA8FFF7D1FEDDE90DB09C
:1013B0000C995D46002610B909F101000D18B9EB32
:1013C000050003D4C0F1FF3609F10105A5EB0900C2
:1013D0002BE0B9F1010F01DA4FF001090020B9F15A
:1013E000110F0090484601DD112300E003460AAAD0
:1013F00001A90CA8FFF7ABFEDDE90C704D460026F5
:101400008346207800070AD4AB4500DA5D4601A880
:10141000012D04DD411911F8011C302907D04F4579
:1014200002DA17F1040F04DA012082460FE06D1E84
:10143000EEE7002F02DCED1B3E4403E0781CA842DF
:1014400000DD7D1CB81B00F1010A4FF00047207839
:10145000000703D4AA4501DB4FF0FF3A0021B7F1A2
:10146000004F0DF143088DF8431024D002202B23A8
:10147000002F01DA7F422D230A21021EA0F1010074
:1014800000DC5FB197FBF1FC97FBF1F201FB1C7CE8
:1014900017460CF1300C08F801CDEEE7A8F1010079
:1014A00003702188090501D5452100E06521A0F1DF
:1014B000010800F8011C09980FA9A1EB0807FF1DFE
:1014C00000B10120411901EBEA70A1693844081A02
:1014D000401EA0612078C00602D42046FFF73EF8E7
:1014E000099828B1D4E901219047206A401C206264
:1014F0002078C00622D52046FFF730F81EE0002EE7
:1015000004DBB34502DD01A8805D00E03020D4E9B2
:1015100001219047206A401C2062761CAAF101003C
:101520005FEA000A0AD100F049F9C0680168405C2E
:10153000D4E901219047206A401C2062281EA5F1B1
:101540000105DCDC07E0D4E9012118F8010B904724
:10155000206A401C2062381EA7F10107F3DC2046F8
:10156000FFF712F8032011B041E6000001694A1CA0
:1015700002610878704700B58FB0CDE901310021D4
:10158000059105497944CDE9031011466846FFF7F6
:1015900063F90FB000BD0000E5FFFFFF0A6802F825
:1015A000010B0A607047D1E900239A4202D2531C12
:1015B0000B601070704710B5436913B1AFF3008032
:1015C00001E0FFF704F8012010BD127800F12401BA
:1015D0000A7000224A700122EDE711684FF0FF32D5
:1015E000E9E70000074B70B50D467B44FFF7C3FFEA
:1015F0000446284600F01EFD10B14FF0FF3070BDCC
:10160000204670BD7F7C010010B5436913B1AFF374
:10161000008001E0FFF740F8012010BD128800F1C2
:10162000240182840022C2840122EDE711684FF078
:10163000FF32E9E72DE9F0418046D21D22F0070292
:101640000025D2E90002F52915A614D0011E72F179
:10165000000106DA0023D0EB030063EB020211A6BF
:1016600008E0D8F800108B0701D50FA602E0490763
:1016700001D50EA601251146002408F1240704E037
:1016800000F0A0F830323A55641C50EA0102F7D15C
:101690002B46324621464046BDE8F041FFF7EABC02
:1016A000000000002D0000002B00000020000000C2
:1016B0003A2800D2303820F02002412A01D3A2F18A
:1016C0003700884201D34FF0FF3070470268114461
:1016D0001378016018467047D1600549794451611B
:1016E00004497944116200211161114600F076BA73
:1016F000EDFFFFFF69010000426842B1016811F887
:10170000013B23B1521EC0E9001218467047012167
:10171000C160881E704742685AB1C368016843B906
:1017200083688B4205D0491E521CC0E9001200207C
:1017300070474FF0FF3070472DE9F04116460C46D8
:10174000054600F033F8036893F80101012807D03B
:10175000FF2C12D8185D80B101202C70BDE8F081FB
:10176000D3F807013246214603F20713C71828466B
:10177000BC46BDE8F041002360474FF0FF30EDE785
:1017800010B5002000F05AFCFEF7A2FDBDE81040A5
:1017900001200EF00FBF10B5044602E0641C0EF0ED
:1017A0000BFF20780028F9D110BD000010B500F023
:1017B00005F8001D10BD00BFA1AD0700004870472F
:1017C0007431002030B5B0F10A0271F100034FEA24
:1017D000900E4EEA817EB0EB0E0061EB91014FEA74
:1017E000101E4EEA017E10EB0E0041EB11114FEA84
:1017F000102E4EEA016E10EB0E0041EB11214FEA64
:10180000104E4EEA014E10EB0E0041EB1141401814
:1018100041F100014FEAD00040EA41704FEAD101A6
:101820004FEA810444EA907410EB800544EB010414
:101830006D1944EB0404521BA3414FF0000348BF51
:101840000A3200D530BD401C41F1000130BD10B559
:101850000446FFF7ABFF0068005D00F0010010BD1B
:101860002DE9F04F04460D46D21D22F0070089B045
:10187000D0E90097484639467AF0CAFD0246F80F8B
:1018800001D02D2307E02068810701D52B2302E03A
:10189000202101EAC0038DF820300BB1012000E0C7
:1018A0000020032A824601D0072A04DB294620466D
:1018B00000F054F93FE12078800601D40D2500E0C6
:1018C000E569C7F30A560D2D49DA00214FEA175B87
:1018D00008464FF00000002F00F4400007DA00EB4C
:1018E00080004FF4400100EBD07001EA60008115E8
:1018F000012901DD4FF0FF3100224FEA850CBCF1D8
:10190000180F06D31346ACF118004FF08052C240B6
:1019100003E04FF4801323FA0CF30CF10C0CBCF130
:10192000200F04D3ACF1200C09FA0CF001E007FA07
:101930000CF000294FF0004801DD18B90FE00ED17E
:1019400040450CD319EB02095F4121B9404502D152
:101950009F4329EA0209BBEB175F00D0761C208861
:10196000000502D57B48784402E07A48784419386B
:1019700008AA302302F80A30037C0AF10101002E84
:101980000AF1020A53546A4602DC4FF0300101E0CA
:101990004FF031014FF001088DF8001002D0A6F28F
:1019A000FF3603E059EA470100D06B4E002D02DC00
:1019B0002178090704D54FF002082E218DF8011077
:1019C000C44600210BE0C7F303433F01C35C491C3D
:1019D0006D1E02F80830052908F1010801DA002D12
:1019E000F1DC00210CE000EB1973491C1B786D1E23
:1019F000082902F808304FEA091908F1010801DA4C
:101A0000002DF0DC21688B0602D516E0A8F1010854
:101A1000E04505DD02EB080313F8013C302BF5D05F
:101A2000B8F1000F09DD02EB080313F8013C2E2B7F
:101A300003D1090701D4A8F10108002D05DD3E21DD
:101A400002F808106D1E08F10108407C002E02F813
:101A5000080008F1010804DA2D20764202F8080097
:101A600002E02B2002F808000A214FF47A70864227
:101A700008F101080BDB96FBF0F3303302F8083075
:101A800096FBF0F308F1010800FB136601E0642EF9
:101A90000CDB642096FBF0F3303302F8083096FB41
:101AA000F0F308F1010800FB136601E00A2E06DBE3
:101AB00096FBF1F0303002F8080008F1010896FBBF
:101AC000F1F001FB1060303002F80800A16908F164
:101AD000010808EB050202EB0A00081AA061207851
:101AE000C00602D42046FEF739FD216A08AE01EB9C
:101AF0000A00206204E0D4E9012116F8010B9047A6
:101B0000BAF1010AF7D22078C00602D52046FEF7C6
:101B100025FD6E4609E016F8010B3E280FD0D4E9EA
:101B200001219047206A401C2062B8F10108F2D2DE
:101B30002046FEF729FD09B00320BDE8F08F206A9A
:101B40002844206203E0D4E90121302090476D1E33
:101B5000EBD3F8E7FAAF070002FCFFFF2DE9F041F5
:101B60001F46044603260168072A01F4006004DBCF
:101B700008B116A505E016A503E008B115A500E01B
:101B800015A521F010002060A069C01EA0610FB152
:101B9000401EA0612046FEF7E1FC4FB1D4E90121CF
:101BA00038469047206A401C2062C01C206206E034
:101BB000206AFAE7D4E9012115F8010B9047761E57
:101BC000F8D22046FEF7E0FCBDE8F0814E414E0021
:101BD0006E616E00494E4600696E66002DE9F34F56
:101BE0004FF0000A0C4656468DB001200C9001F1D2
:101BF0000C000B9062690B9801219047051E2DD0B7
:101C0000252D2CD0216A8847C0B162690B9801212B
:101C10009047216A88470028F7D16269411E0B98D6
:101C2000904700E0761CA1690D988847216A884793
:101C30000028F7D1E1690D988847DBE7A1690D9885
:101C40008847A842074601D1761CD3E7E1690D9881
:101C500088477F1C02D1BAF1000F6FD06BE1626937
:101C60000B9800273D46394690472A2804D16269DF
:101C70000B98012190470125DFF8D08262690B980B
:101C800001219047A0F130010A290AD24745E5DC3D
:101C900007EB870100EB4107303FDFD445F010052B
:101CA000ECE7E90601D46FF000476C280AD04C2815
:101CB00014D0682815D06A280DD074281CD07A2832
:101CC0001AD01DE062690B98012190476C2802D060
:101CD00045F0040514E045F002050DE045F020054F
:101CE0000AE062690B9801219047682802D045F00C
:101CF000080505E045F4006562690B9801219047ED
:101D0000C4E9015765283DD019DC58287AD00CDC8D
:101D1000452837D004DC252826D041289ED131E043
:101D200046282FD0472899D12CE05B2877D061280E
:101D300028D063287CD0642823D15AE0F6E06F28AD
:101D400048D008DC66281DD067281BD0692821D020
:101D50006E2816D127E0702845D0732868D07528E2
:101D600047D078280DD14DE0A1690D9888472528E6
:101D700005463FF469AFE1690D9888476D1C3FF453
:101D80006AAFD8E00D9923466A466FF00100AFF3C1
:101D90000080C5E045F0400023464FF0000260603F
:101DA000A80736D43EE0E8077FF447AF2068011D5E
:101DB00021600068290501D506701BE7290701D5B8
:101DC000068017E7A90703D5F117C0E9006111E7FD
:101DD00006600FE745F0400023464FF008026060C0
:101DE000A80716D41EE040F60E0125EA0100606047
:101DF00016E045F0400023464FF00A026060A80755
:101E000007D40FE045F040006060A80708D52346DE
:101E100010220D996FF00100AFF3008080E007E021
:101E2000102223460D996FF00100FEF7F7FD77E0D1
:101E30004FF0000963284F46C8464B46CB4602D0B8
:101E40005B2806D038E0E80601D40120A060012715
:101E500032E06269D4F80CB00B98012190475E28FB
:101E600007D14FF0010949466269D4F80CB00B98CC
:101E70009047216939B900210A4603AB43F8212074
:101E8000491C0829FADBD8B3216949B308F10108D4
:101E900062690B98012190475D28F4D1B9F1000FD8
:101EA00009D0002003A951F82020D24341F8202076
:101EB000401C0828F7DB03AB2069002820794FEA93
:101EC00040701ED05B462246CDF80080CDE90197D8
:101ED0000D9900286FF0010020DAAFF300801FE0B9
:101EE000C11703AA00EBD1614B1121F01F0102EBD6
:101EF0008302411A13680120884003431360C7E737
:101F000019E00D99224600286FF00100009702DACF
:101F1000AFF3008004E0FEF727FE01E0AFF300809E
:101F200000280ADA401C06D10C9820B14FF0FF308F
:101F30000FB0BDE8F08F5046FAE7E90701D10AF18A
:101F4000010A064400200C9054E60000CCCCCC0CD6
:101F50002DE9F047814616468AB0354878440DC8C9
:101F60008DE80D0032487844801C03AC0DC884E82D
:101F70000D0041F69B300844372190FBF1F290FBB5
:101F8000F1F5A5F1800501FB12041B3C02D564426A
:101F9000012000E00020DFF898A080460027FA44E6
:101FA000AAF1BE0A0EE0E0070AD03246684607EB07
:101FB000470101230AEB81017AF0F3F88DE807006D
:101FC00064107F1C002CEED1194F7F44AE3F19E006
:101FD000E80715D007EB04100DF1180A90E80E0081
:101FE0008AE80E00C068F04201D198190890324684
:101FF000012306A903A87AF0D4F803AB83E807000D
:102000006D10641C002DE3D14FF001033246694688
:10201000B8F1000F03A802D07AF0AEF801E07AF030
:10202000C0F8C9E90001C9F808200AB0BDE8F08786
:1020300094AA0700007B00F08000704710B500F004
:102040003DF8BDE8104000F033B80000004870478C
:10205000543100207546FFF7F9FFAE46050069468A
:10206000534620F00700854618B020B5FEF750F91A
:10207000BDE820404FF000064FF000074FF0000889
:102080004FF0000BAC46ACE8C009ACE8C009ACE8C6
:10209000C009ACE8C00921F007018D46704710B5B2
:1020A0000446AFF300802046BDE81040FEF71BB9A0
:1020B000002801D00EF07EBA7047000010B5002154
:1020C00002A000F013F8012010BD00005349474161
:1020D0004252543A2041626E6F726D616C20746599
:1020E000726D696E6174696F6E00000070B50546AF
:1020F0000C460A2000E06D1C0EF05EFA35B128781F
:102100000028F8D102E0641C0EF056FA14B12078D1
:102110000028F8D1BDE870400A200EF04DBA00004A
:102120004AF23770C0F60D0002A1FEF7D5F900BFE4
:10213000FEE700BF4275734661756C745F48616E5F
:10214000646C65720000000010B5846B204600F0DE
:10215000E5FB0120207110BD10B5846B204600F016
:10216000A7FB0120207110BD10B5846B206940F0E1
:1021700004002061204600F0D9FB0120207110BD31
:1021800010B5846B206940F004002061204600F007
:1021900093FB0120207110BD806B00F0C3BB0000D9
:1021A000806B00F087BB00004EF69C10C2F201006D
:1021B00000F02CBD44F22410C2F2010000F026BD54
:1021C00044F2C400C2F2010000F020BD4EF6FC1043
:1021D000C2F2010000F01ABD44F28410C2F2010004
:1021E00000F014BD4EF63C10C2F2010000F00EBD2E
:1021F0002DE9F04F85B040F2004A42F224076846CC
:10220000C4F2020AC4F2000700F10805002441F2FA
:10221000670B41F2680800264FF001090CE000BF8F
:102220000028C6F3460118BF012041EAC016B9F1E3
:10223000080F09F1010951D201200221C5E900442A
:10224000AC600090039101905046694600F0BCFFDD
:1022500050460121002201F091F83C603868A7281F
:1022600008D83868A72805D83868A72802D8386859
:10227000A828F3D350460121012201F07FF8012064
:10228000CDE9000450466946C5E90044AC6000F061
:102290009BFF3C60386800093E280BD8386800096D
:1022A0003E2807D8386800093E2803D83868B0F5BA
:1022B0007C7FEFD35046012101F05AF83C6000BF0B
:1022C00039685945ACD839685945A9D8396859454C
:1022D000A6D839684145F3D3A2E700BF304605B020
:1022E000BDE8F08F2DE9F04786B040F20048044683
:1022F000C4F202084FF00009022042F22406CDF891
:1023000014900125049001A94046C4F20006CDF8BE
:102310000C900195029500F057FF41F2AF3741F262
:10232000B03A04E06408082D05F101054CD240469E
:102330000121002201F022F8E007C6F8009021D127
:102340003068B84208D83068B84205D83068B8421A
:1023500002D830685045F3D340460121012201F0F4
:102360000DF8C6F8009000BF3068A728DAD83068AA
:10237000A728D7D83068A728D4D83068A828F3D39E
:10238000D0E700BF3068A72808D83068A72805D84C
:102390003068A72802D83068A828F3D34046012126
:1023A000012200F0EBFFC6F8009000BF3068B84291
:1023B000B8D83068B842B5D83068B842B2D83068BA
:1023C0005045F3D3AEE700BF06B0BDE8F08700008C
:1023D000704700004AF236704AF23D71C0F60D00B7
:1023E000C0F60D01FEF778F872B600BFFEE70000F8
:1023F00070B581B00022009290F83C20012A03D1F0
:102400000221084601B070BD0E6801220A2E80F834
:102410003C2009D3B2B25200D0F800E012FA86F2A2
:102420001E3A0EF10C0305E0D0F800E006EB460280
:102430000EF110034FF0070C1D680CFA02F4A543CF
:102440001D608D681C6805FA02F222431A60496813
:1024500006290FD801EB81014A1F71461F2351F84D
:10246000345F934025EA03030B60B3B203FA02F230
:1024700014E000BF01EB81030C29B2B204D871460D
:1024800051F8304F233B03E0714651F82C4F413B4C
:102490001F259D4024EA05059A400D600B6842F215
:1024A000043CC4F2010C1A43ACF541739E450A602A
:1024B0003BD1122E06D1DCF8001041F48001CCF89B
:1024C000001032E026F0010110292ED1DCF80010B6
:1024D000102E41F40001CCF8001026D140F21C016E
:1024E000C2F2000109684DF68362C4F21B32A1FBFF
:1024F0000212910C01EB8101490000910099A1B1F8
:10250000009901390091009979B100990139009140
:10251000009951B1009901390091009929B10099B0
:102520000139009100990029EAD1002180F83C107E
:10253000084601B070BD00000068C06C7047000024
:10254000002804BF0120704710B50446006C002825
:102550003ED0206CC00645D4206C41F20211884365
:10256000023042F204312064C4F20101086820F410
:10257000403008600A6894E809101A43D4F810E063
:102580000A604168012321F4807141604168C0F60E
:10259000007341EA0E214160416821F040714160C1
:1025A000416841EA0C014160816821F40061816069
:1025B000E168826811438160A16A8268994222F0D1
:1025C00070628260826813D122F0405119E000BF2E
:1025D000204600F065F80020606484F83C00206C20
:1025E000C006B9D50120002184F83C1010BD00BF01
:1025F00011438160816821F040518160E16A826805
:1026000011438160816821F0020181608168227E2E
:1026100094F8203041EA42018160416883B141F47D
:102620000061416041684EF2000221F46041416066
:10263000616ACFF6FF72436802EB4131194301E052
:1026400021F400614160C16A40F2000C21F4700184
:10265000C162E2696169CFF6F07CC36A0CEB025299
:102660001A43C262826822F40072826094F83020B9
:10267000836843EA42228260826822F48062826038
:10268000826842EA8121816000206064216C01221D
:1026900062F301012164002184F83C1010BD0000A8
:1026A00080B586B0006842F20012C4F20102002137
:1026B0009042CDE90411CDE90211019124D042F2FA
:1026C0000001C4F20101884244D1002043F63001E8
:1026D0000090C4F202014A6942F480724A614A6978
:1026E00002F480720092009A0090086840F00100A5
:1026F00008600868012100F00100009000980020A7
:10270000C4F202001EE000BF43F630000091C4F2A4
:102710000200426942F400724261426902F40072AE
:102720000092009A0091016841F004010160006884
:10273000082100F00400009000980020C4F202007C
:1027400000F500600191032102910021039101A98C
:1027500000F03AFD06B080BD10B581B000210091B7
:1027600090F83C10012903D1022001B010BD00BF38
:102770000468012180F83C10214651F8083FDB072E
:1027800029D10B684DF6836243F001030B6040F2E0
:102790001C03C2F200031B68C4F21B32A3FB02231A
:1027A0009A0C02EB42020092009AA2B1009A013AFE
:1027B0000092009A7AB1009A013A0092009A52B1BE
:1027C000009A013A0092009A2AB1009A013A0092C6
:1027D000009A002AEAD10A68036CD2070AD143F0B2
:1027E0001001016400F1440101200A6810430860EF
:1027F00056E000BF40F2017223EA020202F5807245
:1028000002646268520504D5026C012363F30D3241
:102810000264026C4FF0000E0023D20444BF426CED
:1028200022F0060342F2043C436480F83CE06FF07F
:102830002200C4F2010C2060DCF80000C0060DD0BC
:10284000ACF5417084422BD14FF60450CFF6FF70A7
:102850005CF8000010F0405F22D125E042F2000059
:10286000C4F20100844217D042F20020C4F20100F9
:1028700084420DD042F20010C4F2010084420FD114
:10288000DCF80000C00607D0ACF58270844207D1A6
:10289000DCF80000C00603D4086810F0405F03D0E5
:1028A000002001B010BD00BF4FF080409DE7000048
:1028B00070470000704700007047000010B5002806
:1028C0004FF0010318BF002902D1184610BD00BF08
:1028D0004379012B4FF00203F7D00371036802F034
:1028E000100ED3F800C0D1E9004140F6FE7202FAA2
:1028F0000EF221432CEA020201FA0EF11143196093
:10290000C0211A6801FA0EF122EA010119600121C1
:10291000002301714371184610BD0000002007F02C
:102920002FBF0000012007F02BBF00007047000000
:10293000002804BF0120704710B50446007920B973
:1029400000206071204600F007F80220207100206E
:1029500001212061217110BDF0B587B0044647F216
:1029600000402168C4F200000026814206960596C8
:1029700002D007B0F0BD00BF43F630010196C4F2AB
:1029800002010A6900F5C63042F000520A610A6984
:1029900002F000520192019A01960A6842F0010287
:1029A0000A60096801F00101019101991021029169
:1029B0000321CDE9031602A900F006FC44F2C40588
:1029C00046F28800C2F20105C4F202004FF06061D5
:1029D00040224FF4806385E8470005F110004FF472
:1029E000006C4FF4005E4FF4807780E80850284672
:1029F000C5E907766E6200F0E9F9002818BFFFF715
:102A0000E9FCA560AC6307B0F0BD000070B568B329
:102A10000446407901284FF0020008BF70BD0D4602
:102A2000DDF810C00121617120710DB3E06842F240
:102A3000591642F2A11EC0F60006C0F6000EC0E90B
:102A40000F6E42F281162168C0F60006C6640E6859
:102A5000BCF1040F46F080560E602BD0BCF1000F85
:102A600014BF01F11C0C01F1140C25E0012070BD14
:102A7000A06842F2491E42F29916C0F6000EC0F656
:102A80000006C0E90FE642F269162168C0F60006AA
:102A9000C6640E68BCF1040F46F480560E6029D05F
:102AA000BCF1000F14BF01F1100C01F1080C4FF440
:102AB000005E03E001F1180C4FF0005E0E6846EA7C
:102AC0000E060E601146624600F032FA0021617176
:102AD00030B104F1100104220B681A430A6070BD82
:102AE00005F010020123216803FA02F20B681A4371
:102AF0000A6070BD01F10C0C4FF4005EDEE70000CF
:102B000070B54FF0010420B305462A6801F01000AB
:102B10004FF4805CD2F800E00CFA00F32EEA0303D5
:102B20001360136804FA00F023EA000010600C2020
:102B3000002908BF082028586FF0005608BF6FF41E
:102B4000005600F009F828680168314001602C71D6
:102B50000024204670BD000070B5866D044600F06C
:102B600013FC94F83510022928D105462068216C01
:102B7000026822F016020260426922F0800242617D
:102B800009B9A16C19B1016821F00801016001685F
:102B900021F00101016000BF20680068C00715D066
:102BA00000F0F2FB401B0628F6D3202060650320CE
:102BB00084F83500002184F8341070BD80206065F1
:102BC0000120002184F8341070BD00BFE06D3F216A
:102BD00001FA00F0B060012084F8350000200021E7
:102BE00084F8341070BD000090F83510022909D126
:102BF000052180F835100068016821F001010160AD
:102C0000002070478021416501207047F0B581B0F8
:102C100004460020009040F21C00C2F2000002684E
:102C2000D4E9166048F2B51337680821C1F64E336F
:102C300081403942A2FB03250CD0226813685B0750
:102C400008D5136823F004031360B160616D41F08F
:102C50000101616501218140394208D02268526931
:102C6000120604D5B160616D41F002016165042175
:102C70008140394208D022681268920704D5B160B9
:102C8000616D41F00401616510218140394217D026
:102C900020680268120713D5B16002680168520308
:102CA00008D4C90508D4016821F008010160216C2D
:102CB00021B905E008033FD4216C09B120468847BB
:102CC000E16D202000FA01F23A4241D02068036809
:102CD000DB063DD5B26094F835300268052B1BD178
:102CE00022F016020260426922F080024261226CE8
:102CF0000AB9A26C1AB1026822F0080202603F20F1
:102D00008840B060012084F83500216D0020002942
:102D100084F8340052D157E00168520310D4C90539
:102D200012D4016821F010010160012084F83500FF
:102D3000002084F8340007E0A16C0029BED1BFE771
:102D4000080301D4616C00E0E16B09B120468847BB
:102D5000606DC8B3606DC0072ED0052084F83500C3
:102D60002068A90A026822F001020260009A01327A
:102D70008A4200921AD80268D20717D0009A01320C
:102D80008A42009212D80268D2070FD0009A01320C
:102D90008A4200920AD80268D20707D0009A01320C
:102DA0008A42009202D80268D207DFD1012084F85B
:102DB0003500002084F83400E16C29B1204601B0D0
:102DC000BDE8F040084700BF01B0F0BD2DE9F0417B
:102DD000044600F0D9FAECB10546022084F835002B
:102DE0000020216884F83400086820F001000860A1
:102DF00021680868C00711D000F0C6FA401B0528FA
:102E0000F6D9032520230320636584F83550BDE8F7
:102E1000F08100BF0120BDE8F08100BF086848F2E2
:102E20003F02CFF21002D4E9013500EA020C04F1AE
:102E30000C0898E8C10143EA0C032B431843D4E97A
:102E4000072E304338431043626A40EA0E00042ADA
:102E500040EA08031CD1206BD4E90A2E40EA0E0098
:102E6000184308604869BEF1000F20F0030040EAF3
:102E7000020040F0040C11D0B8F5005F36D0B8F174
:102E8000000F45D1022A46D0012A3BD032B942E098
:102E90000B60486920F0070040EA020C01F0F800DE
:102EA0004AF6AB221038CAF6AA22A0FB02231A095E
:102EB0004CF69C53C0F607039A5C40F2FF335F2840
:102EC0004FF03F00C1F814C021EA030100FA02F0FC
:102ED00088BF0431C4E91612886000230125002050
:102EE000636584F83550BDE8F08100BF032AD5D86A
:102EF000012540230120DFE802F0030E030500BF97
:102F000082E700BFAEF1C070B0FA80F0400904E083
:102F1000032A04D3C2D1CEF300600028BED001251D
:102F200040230120636584F83550BDE8F08100003E
:102F300070B590F834C0BCF1010F46D04FF0010CD1
:102F400080F834C0D0F858E090F835C0BCF1010FDB
:102F500038D14FF0020C80F835C04FF0000CC0F8AB
:102F600054C0D0F800C08468056CC06DDCF8006007
:102F7000402C26F48026CCF80060CCF804300B46B8
:102F800004BF13460A463F2101FA00F0CCF808308E
:102F9000CCF80C20CEF80800DCF8000040F0160059
:102FA000CCF800002DB1DCF8000040F00800CCF8AF
:102FB0000000DCF8000040F00100CCF80000002028
:102FC00070BD00BF002180F83410022070BD0000E9
:102FD000B0B5044600F0D8F9054640F20000C2F250
:102FE00000000078611C18BF044400BF00F0CCF959
:102FF000401BA042FAD3B0BD2DE9F04F81B000F1E3
:103000003E4241F6004743F6004902F1FF72C4F226
:1030100002070826C4F201094FEAB223B84208BFEA
:103020000726072B38BF4FEAB22604220024A9F551
:103030007E7A4FF00F0C0025009628E0A31C06684E
:10304000032707FA03F39E4306606FF0030606EAC0
:103050005507074402F01C08D7F820B00EFA08F60E
:103060002BEA06063E62C6689E43C660466806EACC
:103070000C07476087684FF00F0C27EA0303836053
:1030800004340235202C02F1080200F0998001235B
:1030900003FA05F70F4255D025F00303A2F1040807
:1030A0005AF8036008F0080B4FF00F0E009B0EFA61
:1030B0000BFC06EA0C0603FA0BF39E426FEA070BC1
:1030C00020D1D9F8003043F60C4603EA0B03C9F8C7
:1030D0000030D9F80430C4F2010603EA0B03C9F842
:1030E0000430336803EA0B033360D9F80830AE08C4
:1030F00003EA0B03C9F808305AF8263023EA0C0318
:103100004AF826300368032707FA04F6B34303603E
:103110006FF0030303EA5507074408F0180CD7F8CB
:1031200020800EFA0CF328EA03033B62C3684FF0D9
:103130000F0CB343C360436803EA0B034360836827
:10314000B3438360022303FA05F707EA0103BB4296
:1031500096D125F003035AF8036002F00C030CFA31
:1031600003F806EA080C009E4FF00F0E06FA03F370
:103170009C456FEA070C7FF461AFD9F8003043F645
:103180000C4603EA0C03C9F80030D9F80430C4F245
:10319000010603EA0C03C9F80430336803EA0C03A0
:1031A0003360D9F80830AE0803EA0C03C9F80830D8
:1031B0005AF8263023EA08034AF826303EE700BFD3
:1031C00001B0BDE8F08F00002DE9F04F82B000F1B2
:1031D0003E4241F6004502F1FF77C4F202050822A3
:1031E00043F6004E4FEAB726A84208BF0722C4F2B2
:1031F000010E072E38BF4FEAB7220125002600270F
:103200004FF00008009208E008F101080437B8F117
:10321000100F06F1020600F0A7800C6805FA08F905
:1032200014EA090FF0D0D1F804B003220BF0030C1C
:10323000ACF10104B240012C6FEA020A10D8826896
:10324000CC6802EA0A02B440224382604268CBF3AF
:10325000001422EA090204FA08F42243426005E05D
:10326000BCF1030F02D14FF0030C20E0C2688C6860
:1032700002EA0A02B4402243BCF1020FC26016D136
:103280006FF0030202EA58020244D2F820C007F0AD
:103290001C050F230C69AB402CEA030304FA05F567
:1032A0002B431362D1F804B001250BF0030C026824
:1032B0000CFA06F302EA0A021A431BF4403F0260CA
:1032C000A2D0002243F644030192C4F202031A681A
:1032D0004FF6084C42F480421A601A68CFF6FF7C21
:1032E00002F480420192019A28F00302724452F8DB
:1032F0000C3007F00C050F24AC40A343009C04FAEB
:1033000005F52B4342F80C30DEF808204B6842EA02
:10331000090543F60C4CDC0258BF22EA0905CEF839
:103320000850C4F2010CDCF800209C0242EA0905B6
:1033300058BF22EA0905CCF80050DEF804209C03AF
:1033400042EA090558BF22EA0905CEF80450DEF822
:103350000020DB0342EA090558BF22EA0905CEF83E
:103360000050012550E700BF02B0BDE8F08F00001B
:103370000069084018BF012070470000002A08BFFC
:1033800009048161704700004FF2E030C2F2010091
:103390000068704740F200004FF2E031C2F20000D6
:1033A000C2F2010100780A6810440860704700000A
:1033B00080B543F60040C4F20200016841F4007198
:1033C0000160016841F480610160016841F480712D
:1033D0000160032000F0E0F80F2000F005F800F095
:1033E00061F8002080BD000070B586B0002543F66E
:1033F00040010195C4F202010A68044642F08002CD
:103400000A60096801A801F08001019101996946EB
:1034100001F0DCFA049E002E18BF012601F0FCFA30
:103420004DF68361B040C4F21B31A0FB01014FF0A7
:10343000FF3000EB91414EF6B87041F60042C2F207
:103440000100C4F2000240F2E733C0E90021C0E904
:1034500002530561856102F0A1FC054610B12846C2
:1034600006B070BD4EF6B870C2F2010002F0AAFDBF
:1034700005460028F3D12C2000F04EF80F2C0DD873
:103480002C2021460022002500F05AF840F20400CA
:10349000C2F200000460284606B070BD012528462F
:1034A00006B070BD82B0002043F640010190C4F226
:1034B00002014A6842F480424A604A6802F480424B
:1034C0000192019A00900868002240F08050086044
:1034D00008680F2100F08050009000986FF0010004
:1034E00002B000F02DB80000002848BF7047C1B2FC
:1034F00000F01F00012202FA00F04EF28012CEF21C
:10350000000242EAD10121F003010860BFF34F8FAE
:10351000BFF36F8F70470000002848BF7047C1B2EB
:1035200000F01F00012202FA00F04EF20012CEF26B
:10353000000242EAD10121F0030108607047000057
:1035400010B54EF60C5CCEF2000CDCF80030C3F384
:10355000022E8EF00704042C28BF0424BEF10303BE
:103560004FF0FF3E0EFA04F438BF0023A143994008
:103570000EFA03F39A43114300F00F0200F1604387
:103580000901043A03F564436244002848BF02F18C
:103590000C03197010BD00004EF60C51CEF2000164
:1035A0000A684FF6FF031A4060F30A2242F0806077
:1035B00040F0FD700860704770470000026800200E
:1035C000516270472DE9F043D0F80090D9F82400FB
:1035D000A1B1D9F82830B1F1010800EB13435DD057
:1035E000A8F10100C0B2032808F0030C0ED24FF07E
:1035F000010E0027BCF1000F33D14FE040EA02403A
:10360000C9F828000020BDE8F08300BF08F0FC0ED8
:1036100009F1F404002009F5827500BF54F8107F09
:10362000064603EB174046F00103DBB246F0020703
:1036300055F82330FFB255F8277000EB134000EB2C
:10364000174346F00300C0B255F82010301DC7B232
:10365000774503EB1143E1D106F1050EBCF1000FF4
:103660001CD009EB8700D0F80401BCF1010F03EB7B
:10367000104313D05FFA8EF009EB8000D0F80401FC
:10368000BCF1020F03EB104308D00EF10100C0B2F1
:1036900009EB8000D0F8040103EB104343EA024039
:1036A00009EB8801C1F804010020BDE8F0830000A7
:1036B000D0F8E0040AF07ABC01EBC102D0F8E034A3
:1036C00000EB8200026A18460AF0C6BB01EBC10299
:1036D000D0F8E03400EB8200D0F8602218460AF0FF
:1036E00017BC000010B538B10446032084F89504D7
:1036F00020680CF05FFC08B1012010BD204600F0EE
:103700001DFF002084F8950410BD0000D0F8E004EF
:103710000AF04EBC10B5044648B2B0F1FF3F01F0CC
:103720000F0000EBC00104EB810205DD02F515710D
:10373000002382F8553203E0012302F1140153758E
:1037400094F894240870012A04BF022010BD206858
:10375000012284F894240BF0A7FB002084F8940441
:1037600010BD0000B0B50279044601F00F00904290
:1037700084BF0120B0BD49B2B1F1FF3F0ADD00EBCB
:10378000C00104EB810202F51571002382F8553265
:1037900008E000BF00EBC00104EB8102012302F14D
:1037A0001401537594F894240025012A8D70087033
:1037B00004BF0220B0BD2068012284F894240BF0DD
:1037C0005FFE284684F89454B0BD000010B504464E
:1037D00090F89404012804BF022010BD4BB2206869
:1037E0000122B3F1FF3F84F8942405DD0CF036F894
:1037F000002084F8940410BD01F00F010CF08EF845
:10380000002084F8940410BD01F00F0101EBC10108
:1038100000EB8100D0F868027047000070B50646E2
:1038200048B2B0F1FF3F01F00F0000EBC00107DD2F
:1038300006EB810404F51571002584F8555206E065
:1038400006EB810C01240CF114018CF815404D7825
:103850006FF3DF22002D08708A600B7118BF488358
:10386000022B04BF0020487196F89404012804BF7D
:10387000022070BD3068012286F894240BF0B8F95C
:10388000002086F8940470BD10B501F00F0404EB1D
:10389000C40100EB810E4FF0000CCEF868C28EF828
:1038A00055C290F806C0CEF86022CEF86432BCF162
:1038B000010F8EF8544208BFCEF8702200680EF552
:1038C000157162460BF026FE002010BDB0B504460F
:1038D000007901F00F05854284BF0120B0BD48B2D8
:1038E000B0F1FF3F0ADD01EBC10004EB800000F501
:1038F0001571002280F8552208E000BF05EBC500D5
:1039000004EB8000012200F11401427594F8940444
:10391000012201288A700D7004BF0220B0BD20680A
:1039200084F894240BF0D6FD25B1002084F894048B
:10393000B0BD00BF2068A17904F29C420BF072FD7B
:10394000002084F89404B0BD80B501F00F0C0CEB9E
:10395000CC0100EB810E714601F814CF4FF0000C42
:10396000C1F814C04FF0010C81F801C090F806C0F6
:10397000CA60BCF1010F0B6108BFCEF830200068AF
:1039800062460BF0C7FD002080BD00002DE9F04F1E
:1039900089B00568064628460CF02EF810B109B02B
:1039A000BDE8F08F30680CF055F80028F7D0D5F856
:1039B0000808C0F30D213068C6F8D4140CF04AF89A
:1039C00001463068890703D5416901F00201416170
:1039D00005F500670CF03EF801463068C906089608
:1039E00004953CD5816921F0100181612C6AC4F3F2
:1039F0004340062804F00F051AD0022829D147F6C3
:103A0000F07014EA000824D005EBC50006EB80092D
:103A1000D9F860124FEA1814049822460CF01EF8E8
:103A2000D9F8600200EB1810C9F8600208E000BF86
:103A3000049806F29C4108220CF010F8C4F30A1412
:103A400005EBC50006EB8000D0F868122144C0F8F1
:103A500068123068816941F010018161049D03970B
:103A60000BF0F8FF000340F1EB80089800680BF0C2
:103A7000CFFF002800F0E480064608984FF4306439
:103A800000F29C4100F51D784FF0000B079118E003
:103A90002819022181605FEA8A6042BF281920212B
:103AA00081605FEA8A4042BF28194FF4005181606B
:103AB0000BF1010B760804F1200408F1240800F052
:103AC000BF80F007F4D008985FFA8BF90068494688
:103AD0000BF0B8FF8246C00762D02819012181602F
:103AE000089F38682118036C8A68BF79012F29D193
:103AF000170735D4970600F19B8012F0280F4FD19D
:103B000043F20B07C4F65477BB4202D312F40042CF
:103B10002FD1D8F800200969BBF1000F6FF3DF4106
:103B2000A2EB010148F80C1C35D1089BD3F86422A4
:103B3000002A00F08380D3F860020844C3F86002D2
:103B400029E000BF43F20B07C4F65477FF37BB42AE
:103B500016D110040DD4900644BF202088601AE0CE
:103B600043F20B00C4F65470834219D312F40040A0
:103B700016D04FF4004088605FEA0A7013D437E033
:103B8000BBF1000F07D10899D1F8641219B90021CF
:103B9000079A0BF047FC08984946FFF797FD00BFCE
:103BA0005FEA0A7024D5281908218160089843F239
:103BB0000B020068C4F65472056C20448168571EDD
:103BC000BD4205D911F400411CBF4FF40041816092
:103BD000089800F03FFDBD42049D09D908988079FE
:103BE000012805D10898079A006801210BF01AFCFA
:103BF0005FEACA6042BF2819102181605FEA8A70BB
:103C00007FF549AF6869000604D50399486840F418
:103C10008060486018F81D0C01287FF439AF00203F
:103C200008F81D0C0898494600F04AFB30E700BF31
:103C3000202088605FEA0A70B5D4D9E70121A7E7A0
:103C4000DDF820B0DBF800000BF004FF400340F18A
:103C5000D580DBF800000BF0D3FE002800F0CE800A
:103C6000824605F5106002900BF29C4000270190FF
:103C700006E000BF5FEA5A0A07F1010700F0BE80C4
:103C80005FEACA70F6D0DBF80000F9B207910BF0DA
:103C9000C7FE029E0446C00726D0039A07F00F0015
:103CA000516B012303FA00F021EA0000506306EB98
:103CB000471083609BF80600012811D107EBC7006D
:103CC0000BEB8000D0E907121144016247B9DBF821
:103CD000240028B9DBF80000019A01210BF0A2FBB7
:103CE00007995846FFF7E8FC200742BF06EB47104C
:103CF00008218160E00642BF06EB47101021816079
:103D0000600642BF06EB471040218160A00715D531
:103D1000284639460BF002FE07EBC7000BEB80008C
:103D200010F8171F012905D1002101700799584685
:103D300000F0C2FA06EB471002218160200699D5F7
:103D400007EBC7000BEB8002914659F8241FC846C9
:103D500058F8040F81428DD3DBF8006093465BF87E
:103D60001C5F0B1AAB4238BF1D46069606EB471385
:103D7000D3F818C905F1030E1FFA8CF5B5EB9E0FA9
:103D800028D303F5106102F120050591D9F8001040
:103D900081421FD9DBF80040089A081AA04229681E
:103DA000967938BF0446DDE90602A3B200960CF00E
:103DB00001FA2868D8F800102044286008190599ED
:103DC000C8F800008969E21C89B2B1EB920FDDD21C
:103DD000D9F80010DDF820B0049D81423FF64AAFCB
:103DE000069B07F00F00D3F83418012202FA00F006
:103DF00021EA0000C3F834083CE700BFDBF800000C
:103E00000BF028FE002827D4DBF80000DDF80C803A
:103E10000BF020FE000540D4DBF800000BF01AFE8A
:103E2000C0044BD5D8F80400102120F00100C8F8D8
:103E30000400DBF800000BF071FD9BF804000106A4
:103E400000F0F9804FF0FF3151FA80F1032900F0C2
:103E5000030C37D20021A1E0DDF80C80D8F8040073
:103E600020F00100C8F804009BF8CC04012807D119
:103E700000208BF8CC0458460021FFF79DFB02E0A0
:103E8000584600F0CBFBDBF80000416901F000412F
:103E900041610BF0DFFD0005BED5D8F80800C00772
:103EA00002D0584600F022FCDBF80000416901F422
:103EB000006141610BF0CEFDC004B3D4DBF800001B
:103EC000EDE000BFC0B200F0FC0E05F536634FF622
:103ED000A0564FF6C0554FF6E0544FF60060002153
:103EE0004FF67F37CFF6FF76CFF6FF75CFF6FF742C
:103EF000CFF6FF70A3F5187297609A59043122F437
:103F000000129A5143F8587C53F8602C8E4522F4E5
:103F1000001243F8602C53F8602C42F0006243F822
:103F2000602CA3F5107297605A5922F400125A516E
:103F300043F8387C53F8402C22F4001243F8402C0C
:103F400053F8402C42F0006243F8402CA3F508726D
:103F500097601A5922F400121A5143F8187C53F84A
:103F6000202C22F4001243F8202C53F8202C42F08D
:103F7000006243F8202CA3F5007297601A5822F4CF
:103F800000121A509F601A6822F400121A601A6810
:103F900042F000621A6003F18003ABD1049DBCF1D2
:103FA000000F48D005F5106000EB41124FF67F334B
:103FB0004F019360C65905F5306226F40016C651CC
:103FC00002EB4116B360D659BCF1010F26F400167E
:103FD000D651D65946F00066D6512CD04F1C00EB76
:103FE00047157E01AB60855902EB471725F4001594
:103FF0008551BB609359BCF1020F23F40013935118
:10400000935943F00063935115D0023100EB4117EF
:104010004FF67F364B01BE60C75827F40017C750D4
:1040200002EB41108660D05820F40010D050D058D8
:1040300040F00060D050D8F81C0040F00110C8F8E3
:104040001C009BF80F0048B1D8F8840040F00B002A
:10405000C8F8840008F1440009E000BFD8F8140053
:1040600042F22B010843C8F8140008F1100001685F
:104070000BF29C4241F00B010160D8F8000020F4E3
:10408000FE60C8F80000DBF800009BF806100BF09B
:10409000C9F9DBF80000416901F4805141610BF07E
:1040A000D9FC0146DBF8000089041AD50AF0E2FDCC
:1040B000DBF800000BF092FCDBF800408BF8070007
:1040C00000F0A4FC9BF80720014620460BF0E2FE1E
:1040D000584600F08DFADBF80000416901F4005108
:1040E00041610BF0B7FC000706D4DBF800000BF0D1
:1040F000B1FC00060DD435E0584600F093FADBF829
:104100000000416901F0080141610BF0A3FC0006C9
:1041100028D50499886920F0800088619BF8040004
:1041200002281FD3012440F27B2504E0013484429D
:1041300005F1240516D21BF805100129F6D104F06B
:104140000F0000EBC0000BEB80022006DBF8000044
:1041500002F1140158BF02F515710BF0EFFA9BF84C
:104160000400E3E7DBF800000BF074FCC0024FD45E
:10417000DBF800000BF06EFC049D800240F17E80B5
:104180009BF8041002292AD305F5326001390BF59A
:104190001F72012305E000BF2030013902F1240223
:1041A0001DD007681678012EF6D1B7F1FF3FF3DC7A
:1041B000DBF8D46407F4803706F00106B742EBD190
:1041C00002F8013CAF6947F08007AF616F693F06B5
:1041D000E2D4D8F8040040F40070C8F80400DBF81A
:1041E0000000416901F4001141610BF033FC400013
:1041F0004AD55846FFF75CFADBF80000416901F048
:10420000804141610BF026FC40077FF5C8AB42E0DE
:104210009BF80400022825D304990BF13C0501F515
:1042200012640126012705E001372034874205F199
:10423000240517D221682A78012AF5D1B1F1FF3F70
:10424000F2DC07F00F0000EBC0000BEB8001DBF8A5
:104250000000143105F8016C0BF070FA9BF80400B3
:10426000E2E700BFDBF80000416901F48011416121
:104270000BF0F0FB049D80023FF582AFDBF80000FD
:104280000BF0E8FB4000B4D4DBF800000BF0E2FBDD
:1042900040077FF584ABDBF800004468610704D574
:1042A0005846FFF733FADBF80000416821434160CC
:1042B00009B0BDE8F08F0000D0F8E00409F0E6BED8
:1042C000D0F8E00409F0F6BEF0B581B0002800F0A7
:1042D00025810446056890F8950428B9002084F8E3
:1042E0009404204600F044F90320B5F1A04F84F86F
:1042F000950404BF0020A07120680BF08BF894E8AF
:104300000F00267C00960AF0C5FC002840F00381CF
:10431000206800210BF0F8FB002840F0FC80217998
:10432000002900F0F180A1F1010C01F0030EBCF1B5
:10433000030F4FF0000045D301F0FC0504F19A0291
:10434000012600235F1C02F8627C22F8487C9F1C37
:1043500002F8863C22F86C3C02F83E7C22F8247C71
:10436000DF1C043302F8856C02F8820C42F87E0CE4
:1043700042F87A0C42F8760C02F8616C02F85E0C96
:1043800042F85A0C42F8560C42F8520C02F83D6CB6
:1043900002F83A0C42F8360C42F8320C42F82E0C75
:1043A00002F8196C02F81A7C178002F8160C42F811
:1043B000120C42F80E0C42F80A0CAB4202F19002C9
:1043C000C0D11846BEF1000F2CD000EBC00204EBA8
:1043D000820501230022BEF1010F6B752875E88567
:1043E0002A76C5E907226A621CD0451C05EBC50682
:1043F00004EB8606BEF1020F73753575F5853276CE
:10440000C6E9072272620DD0023000EBC00204EB55
:10441000820201231075D085002053751076C2E901
:104420000700506200296FD0BCF1030F4FF000026B
:1044300033D301F0FC0004F5347100235F1C01F854
:10444000587C9F1C01F87C3C01F8347CDF1C043351
:1044500001F87B2C01F8782C41E91D2241F86C2CE5
:1044600001F8572C01F8542C41E9142241F8482C4A
:1044700001F8332C01F8302C41E90B2241F8242CAF
:1044800001F80F2C01F8107C01F80C2C41E90222F4
:1044900041F8902B8342D1D11A46BEF1000F33D0A0
:1044A00002EBC20004EB80010020BEF1010F81F895
:1044B000550281F8542281F85802C1E99700C1F8E9
:1044C000640221D0511C01EBC10304EB8303BEF154
:1044D000020F83F8550283F8541283F85802C3E997
:1044E0009700C3F864020FD0901C00EBC00104EBEE
:1044F0008101002281F8552281F8540281F8582266
:10450000C1E99722C1F8642294E80F00277C009744
:104510000AF02EFD30B1022084F8950401252846CA
:1045200001B0F0BD00250120657484F89504206871
:104530000AF00EFD284601B0F0BD000080B500680D
:10454000B0F1A04F18BF80BD43F63400C4F20200A2
:10455000016821F0800101600020C4F202004FF4E4
:10456000C051FEF749FD4320BDE88040FEF7BCBFC7
:10457000B0B586B00068B0F1A04F01D006B0B0BDB4
:10458000002543F630040195C4F20204206801A915
:1045900040F001002060206800F0010001900198C7
:1045A0004FF4C05001900220CDE902050320049091
:1045B0000A2005900020C4F20200FEF705FE6068A4
:1045C0000B2140F08000606000956069002240F49B
:1045D00080406061606900F4804000900098432052
:1045E000FEF7AEFF4320FEF797FF06B0B0BD000018
:1045F00010B50446C07928B1022818BFFDF7EAFEBD
:10460000012100E00021D4F8E00409F0D9FDD4F83C
:10461000E004BDE8104009F087BD0000D0F8E004D8
:1046200009F0B6BDD0F8E00409F0BCBD10B50446F1
:1046300090F89404012804BF022010BD012084F8E2
:104640009404617420680BF013FC002084F8940437
:1046500010BD0000D0F8E02400F29C41104609F0A3
:10466000C5BD000010B5044690F89404012804BFAD
:10467000022010BD2068012184F89414C168490605
:1046800006D5617B012903D1816B41F480318163BF
:104690000BF0DCF820680AF04BFC002084F894044E
:1046A00010BD0000B0B5044690F89404012804BF82
:1046B0000220B0BD2568012084F8940428460AF041
:1046C000A9FE20680AF044FC206810210BF026F9AE
:1046D000E868400606D5607B012803D1A86B20F46A
:1046E0008030A863002084F89404B0BD10B504465F
:1046F000D0F8E00409F0E2FD2068D0F8001E41F097
:104700000101C0F8001EE07A002808BF10BD4EF677
:104710001050CEF20000016841F00601016010BDAA
:10472000F0B581B00446006810F0050F2DD0682761
:10473000C4F2472743F670060020C4F20206386030
:10474000FEF722FE054600BF56F8700C000105D5A5
:10475000FEF71AFE401B0228F6D93FE0D4E901100B
:10476000000740EA8110706101203860FEF70CFEFE
:10477000054600BF56F8700C000105D4FEF704FE94
:10478000401B0228F6D929E0206880074FF000007E
:1047900058D543F67006C4F20206009056F8300C65
:1047A00047F2000740F0805046F8300C56F8300CC5
:1047B000C4F2000700F0805000900098386840F480
:1047C00080703860FEF7E0FD054600BF3868C00520
:1047D00008D4FEF7D9FD401B0228F7D9032001B009
:1047E000F0BD00BF306810F4407013D0E16801F4F0
:1047F000407188420ED0306840F64061C4F24721D3
:10480000012220F440700A6000220A6030603068A3
:10481000C00719D1E06856F8681C4FF6FF4300F452
:10482000407221F4F811C0F6FF730340B2F5407FE7
:1048300008BF194346F8681C31686FF31F300843FE
:104840003060002001B0F0BDFEF79EFD054641F24C
:10485000883700BF30688007DCD4FEF795FD401B29
:10486000B8424FF00300F5D9ECE700002DE9F04124
:10487000002800F08B8043F60808C4F202080446C2
:10488000D8F8F8030D4600F00700884207D288F8F0
:10489000F853D8F8F80300F00700A84276D1206852
:1048A000810717D5410705D5D8F8001041F4E0512C
:1048B000C8F80010010705D5D8F8001041F4604190
:1048C000C8F80010D8F80010A26821F0F0011143D8
:1048D000C8F80010C0073FD1D8F8F80300F007006F
:1048E000A84207D988F8F853D8F8F80300F0070071
:1048F000A8424BD12068410707D5D8F80010E268DC
:1049000021F4E0511143C8F80010000708D5D8F889
:104910000000216920F4604040EAC100C8F80000AE
:1049200000F0A2F8D8F800104CF64822C1F30311A9
:10493000C0F60702515C40F21C0220FA01F140F27D
:104940000400C2F200000068C2F200021160FEF72B
:104950004BFD0020BDE8F0816068811E022907D26E
:1049600058F8081C89015CBF0120BDE8F08111E006
:10497000012807D158F8081C89035CBF0120BDE855
:10498000F08107E058F8081C890703D40120BDE82E
:10499000F08100BFD8F8001021F003010843C8F8E7
:1049A0000000FEF7F1FC064641F28837D8F8000017
:1049B000616800F00C00B0EB810F8DD0FEF7E4FCD5
:1049C000801BB842F2D90320BDE8F0810F220260BB
:1049D00043F60802C4F20202136803F003034360C3
:1049E000136803F0F0038360136803F4E053C360BB
:1049F000D2F800C04FF4E05303EADC030361D2F8BD
:104A0000F80300F0070008607047000040F21C0047
:104A1000C2F200000068704740F21C0043F6080133
:104A2000C2F20000C4F20201006809684CF6582284
:104A3000C1F38221C0F60702515CC84070470000F4
:104A400040F21C0043F60801C2F20000C4F2020169
:104A5000006809684CF65822C1F34231C0F60702DB
:104A6000515CC8407047000010B543F60404C4F21E
:104A70000204606800F00C0142F200400829C0F214
:104A8000F40007D0042918BF10BD41F20020C0F285
:104A90007A0010BD216801F03F02216823684902B5
:104AA000C3F3881106D4A1FB00010023FBF743FCEC
:104AB00007E000BF41F20020C0F27A004843B0FB9B
:104AC000F2F021680222C1F3014102EB4101B0FB87
:104AD000F1F010BD2DE9F04182B0002868D0044605
:104AE000007843F60006C007C4F202060BD0B06897
:104AF00000F00C00042840F09F803068800302D54D
:104B00006068002854D0207880071AD5B06810F06B
:104B10000C0F09D0B06800F00C00082840F0A68007
:104B20007068400200F1A2803068800702D5E0681A
:104B300001283DD13068216920F0F80040EAC10029
:104B400030602078000737D4207840074CD4A5691E
:104B500055B3B06800F00C00082840F0BB80012D70
:104B600026D07068E16900F480028A4220D1216A6F
:104B700000F03F028A421BD147F6C071626A0140D1
:104B8000B1EB821F14D1A16A4FF6FF73C903994399
:104B900000F44032A1F580318A4209D1E16A00F087
:104BA0007060B0EB016F03D1002002B0BDE8F0816E
:104BB000012002B0BDE8F0816069002840F20000E9
:104BC000C4F2472076D00121C0F8801EFEF7DCFB3E
:104BD000054600BF706F8007B6D4FEF7D5FB401BBB
:104BE0000228F7D9DDE000BF306C10F080580AD100
:104BF00000200190306C40F080503064306C00F048
:104C000080500190019847F20007C4F2000738680D
:104C1000C00541D4386840F480703860FEF7B4FBBA
:104C2000054600BF3868C00536D4FEF7ADFB401B13
:104C30000228F7D9B5E000BFB06800F00C000828E2
:104C400003D1706840023FF558AF6068B0F5803F0F
:104C500007D0B0F5A02F40F08D80306840F4802060
:104C60003060306840F4803030608DE0E0680028CB
:104C700052D00020C4F2472001210160FEF784FBDE
:104C8000054600BF306880073FF554AFFEF77CFB58
:104C9000401B0228F6D984E0A068012805D0052829
:104CA0004ED1306F40F004003067306F40F00100AB
:104CB00030674FE00021C0F8801EFEF765FB054617
:104CC000706F80077FF540AFFEF75EFB401B022848
:104CD000F6D966E00027C4F2472700203866FEF7C1
:104CE00053FB022D05460BD1306880015ED5FEF7DF
:104CF0004BFB401B02284FF00300F5D955E700BFDE
:104D0000306880017FF550AFFEF73EFB401B022864
:104D10004FF00300F4D948E70020C4F247200021F7
:104D20000160FEF731FB0546306880077FF509AF6B
:104D3000FEF72AFB401B02284FF00300F4D934E7AA
:104D4000316F002821F001013167316F21F004013A
:104D500031674DD0FEF718FB054641F2883700BF9A
:104D6000306F800756D4FEF70FFB401BB842F7D9CF
:104D700017E000BF3168002821F4803131603168CC
:104D800021F4802131604FD0FEF7FEFA054600BFC6
:104D9000306880033FF5B7AEFEF7F6FA401B642893
:104DA000F6D9032002B0BDE8F08100BF04F11C0574
:104DB0002FCD084340EA8210D9034FF6FF7291438A
:104DC000A1F5803140EA0560084370600120386633
:104DD000FEF7DAFA044600BF306880013FF5E4AE22
:104DE000FEF7D2FA001B02284FF00300F4D9DCE6EC
:104DF000FEF7CAFA054641F2883700BF306F8007D8
:104E000008D5FEF7C1FA401BB8424FF00300F5D9B0
:104E1000CBE600BFB8F1000F7FF499AE306C20F004
:104E20008050306493E600BFFEF7AEFA054600BF3F
:104E3000306880037FF567AEFEF7A6FA401B642852
:104E40004FF00300F4D9B0E610B5006840684FEAAF
:104E50001043C0F3042E00F03F0CC0F34234CB707B
:104E600081F801E081F802C00C700AB1002010BD89
:104E7000DCB2240904EB840403F00F0303EB4403C6
:104E8000020ACB704FEA1E1343EA830302F00F02BB
:104E900002EB43024A704FEA1C1242EA820200F01F
:104EA0000F0000EB42008870002010BD10B50068B4
:104EB000836A4B6003696FF3DF338B600068C0F374
:104EC0000543C0F3062E00F07F0CC0F380540B7036
:104ED00081F801E081F802C0CC700AB1002010BD59
:104EE000020C1B0943EA830302F00F0202EB4302A8
:104EF000040A0A704FEA1E1202EB820204F00F034A
:104F000003EB42024A704FEA1C1202EB820200F0ED
:104F10000F0000EB42008870002010BDB0B50028E3
:104F20005FD00446407F20B900202077204600F063
:104F300071F8022060772168C868C0065ED4CA2074
:104F4000486253204862C868400615D4C86840F0DB
:104F50008000C860FEF718FA2168CA6852060BD4B0
:104F6000054600BFFEF710FA401BB0F57A7F49D81E
:104F70002168C8684006F5D588684FF6BF72CFF63D
:104F80008F7210408860D4E9010CD4E9033562695E
:104F900028438D681043284388600B61086940EA04
:104FA0000C400861C86820F08000C86088688006EE
:104FB0001AD447F65F70C0F20100C860FEF7E4F94A
:104FC000054600BF2168C86880060DD4FEF7DCF9ED
:104FD000401BB0F57A7FF5D9042060772068FF2167
:104FE00041620120B0BD00BF086C20F4802008643D
:104FF000A0690A6C10430864FF20486201206077B2
:105000000020B0BD042060772068C168FF214162A4
:105010000120B0BD80B584B0006842F60002C4F241
:105020000002002190420291019101D004B080BDA4
:105030000220009040F20030C0F219000390684650
:10504000FFF76EFB002818BFFDF7C4F940F63C607F
:10505000C4F247200121016004B080BD2DE9F04178
:105060000446007F01284FF0020008BFBDE8F08130
:105070000123237760773AB14878CA788E780002A6
:1050800040EA024842E000BF48784FF0CD0CC2062B
:1050900042BF00F0EF000A304870CA784FF0010EAE
:1050A000A2F10A03DFB207FB0CF7FD0A05EB850549
:1050B000A3EB45038E780EEBD727092A88BF43EA76
:1050C0000712A0F10A03DFB207FB0CF7FD0A05EB9C
:1050D0008505A3EB45030EEBD725092888BF43EAD6
:1050E0000510C0B2D2B2000240EA0248A6F10A009E
:1050F000C2B202FB0CF2D30A03EB8303A0EB430022
:105100000EEBD222092E88BF40EA02160F782168E2
:10511000CA20486253204862C868400614D4C86850
:1051200040F08000C860FEF72FF92168CA68520677
:105130000AD40546FEF728F9401BB0F57A7F35D82A
:105140002168C8684006F5D5F0B240EA08007A0345
:1051500020F0C00010434860C86820F08000C8609C
:105160008868800618D447F65F70C0F20100C860F6
:10517000FEF70AF9054600BF2168C86880060BD40F
:10518000FEF702F9401BB0F57A7FF5D9042060776D
:105190002168012003E000BF012060770020FF228A
:1051A0004A6200212177BDE8F08100BF04206077CA
:1051B0002168C8680120F2E72DE9F0470446007F26
:1051C00001284FF0020008BFBDE8F0870D4601211D
:1051D000217760772168886800F0400032B158B9C3
:1051E0004FF0000885F8038009E000BF80B94FF058
:1051F000000885F803800EE0E8784FEA80586A7866
:10520000287895F802A0120242EA004941E000BF66
:10521000E8784FEA805828784FF0CD0CA0F10A03C7
:10522000DEB206FB0CF6F70A6A7807EB8707A3EBFA
:1052300047034FF0010E95F802A00EEBD626092881
:1052400088BF43EA0610A2F10A03DEB206FB0CF6A1
:10525000F70A07EB8707A3EB47030EEBD626092ACD
:1052600088BF43EA0612D2B2C0B2120242EA004933
:10527000AAF10A00C2B202FB0CF2D30A03EB8303C9
:10528000A0EB43000EEBD222BAF1090F88BF40EA2F
:10529000021ACA20486253204862C868400615D4E2
:1052A000C86840F08000C860FEF76EF82168CA68E0
:1052B00052060BD4064600BFFEF766F8801BB0F519
:1052C0007A7F43D82168C8684006F5D55FFA8AF02E
:1052D00040EA090047F67F7240EA0800C0F27F0208
:1052E00010400860886820F480208860D5E90302B7
:1052F0008B68104318438860C86820F08000C8603D
:105300008868800618D447F65F70C0F20100C86054
:10531000FEF73AF8054600BF2168C86880060BD43E
:10532000FEF732F8401BB0F57A7FF5D9042060779C
:105330002168012003E000BF012060770020FF22E8
:105340004A6200212177BDE8F08700BF0420607722
:105350002168C8680120F2E77047000090F851000A
:1053600070470000B0B582B00446006841688268AA
:1053700012F0400305D112F0010518BF11F04005ED
:1053800012D1950708D511F0800505D0616C204633
:1053900002B0BDE8B040084712F4B07F18BF11F06A
:1053A000200507D102B0B0BD216C204602B0BDE897
:1053B000B0400847BBB194F85130032B08D100210D
:1053C0000191C168019180680190019802B0B0BD5F
:1053D000636D43F00403636500230193C368019385
:1053E00083680193019B12F0200302F4807203D1C1
:1053F0008AB9626DDAB9D5E7636D43F0010363657D
:105400000023019383680193036823F04003036042
:10541000019B002AEDD0626D42F008026265002215
:10542000019282680192019A626D002ABAD04268A4
:10543000890722F0E00242604FF0010284F8512017
:1054400020D041684CF6C13521F003014160E06C89
:10545000C0F6000538B10565FDF7C6FB18B1606DF3
:1054600040F040006065A06C00289BD00565FDF70A
:10547000BBFB00283FF496AF606D40F040006065D4
:1054800002B0B0BD204602B0BDE8B040FFF764BF37
:1054900070B538B10446406A30B10020206104F193
:1054A000140007E0012070BD6068B0F5827F03D072
:1054B00004F11C00002101600026A66294F851004E
:1054C00020B9204684F8506000F03CF8022084F8AF
:1054D000510094E80F0001F48271056802F404425F
:1054E00025F040050560114403F40062236911446E
:1054F00003F002026369114403F00102A369E56944
:10550000114403F40072114405F03802256A114475
:1055100005F08002A56A114305F4005211430160B1
:10552000626A042101EA134102F010021144416051
:10553000C16921F40061C1610120666584F85100F0
:10554000304670BD2DE9F04186B00446006843F650
:105550000001C4F2000100268842CDE90466CDE9CD
:105560000266019658D043F20001C4F2010188425C
:1055700040F0BB80002643F630000096C4F20200E3
:10558000416941F480514161416901F480510091C8
:1055900000990096016841F002010160006801A9CC
:1055A00000F0020000900098282001900220CDE930
:1055B0000206032004900520059040F20040C4F24A
:1055C0000200FDF701FE46F25800C4F202004EF65A
:1055D0003C1500F58060C2F201054FF0C061402229
:1055E0004FF4806385E8470005F110004FF4006731
:1055F0004FF4005C80E888102846C5E907666E62B3
:10560000FDF7E4FB002818BFFCF7E4FEA564AC63DB
:1056100006B0BDE8F08100BF43F630000096C4F24A
:105620000200016946F2580841F4804101610169B4
:10563000C4F2020801F480410091009900960168CB
:1056400041F002010160006801A900F00200009031
:1056500000984FF4604001900220CDE9020603203B
:1056600004900520059040F20040C4F20200FDF7CE
:10567000ABFD44F2241508F11800C2F201054021E7
:10568000C5E9000605F108004FF48067C2C028464E
:10569000C5E90566C5E907666E62FDF797FB002858
:1056A00018BFFCF797FEA564AC634EF69C15C2F2DA
:1056B00001050020C5E90080C5E90200C5E90470C4
:1056C000C5E90600C5E908002846FDF77FFB00286C
:1056D00018BFFCF77FFE242009210022E564AC639B
:1056E000FDF72EFF2420FDF717FF06B0BDE8F0817F
:1056F00010B5044690F8510001281DD113460A4602
:10570000A16869B96068B0F5827F09D14FF0040CD7
:105710002046114684F851C0BDE8104000F0A8B9F9
:10572000002A4FF0010018BF002B01D110BD00BFAF
:1057300094F85000012801D1022010BD012084F806
:10574000500004204FF0000C84F85100C4F854C0FD
:10575000A263A387E387C4E910CCA4F834C0A4F8FB
:1057600036C0D4F800E0B1F5004F0BD1DEF80000F0
:1057700020F04000CEF80000DEF8000020F4804069
:10578000CEF80000E06C4CF6ED314CF60543C0F667
:105790000001C0F60003C0E90F314CF6CD31C0F670
:1057A0000001C0E9131CE38F0EF10C01FDF7C0FBF3
:1057B00040B1606D40F010006065002084F850003A
:1057C000012010BD21680868400603D4086840F035
:1057D00040000860002084F850004A6842F020022F
:1057E0004A604A6842F001024A6010BD70470000FA
:1057F000704700002DE9F04184B01D4616460F4663
:105800000446FDF7C1FD94F8511001290ED18046E0
:10581000002F4FF0010018BF002E03D104B0BDE8E7
:10582000F08100BF94F85000012803D1022004B099
:10583000BDE8F081012084F850000320002184F8A5
:10584000510061652763A686E686A163A187E1878B
:10585000A0682164B0F5004F2068616407D1016839
:1058600021F040010160016841F48041016001685C
:10587000490603D4016841F0400101606168731E6C
:10588000E268B1FA81F1B3FA83F349095B09B2F531
:10589000006F41EA030139D131B137F8021BC16011
:1058A0002763E08E0138E086E08E002870D0681C07
:1058B0000BD11AE0216B31F8022BC2602163E08E1C
:1058C0000138E086E08E002862D020688168890770
:1058D000F0D4FDF759FDA0EB0800A842F2D338E060
:1058E000FDF752FDE08E002852D0206881688907BC
:1058F000F6D5216B31F8022BC2602163E08E0138AE
:10590000E086E08E0028F0D142E000BF39B139785E
:105910000173206B01302063E08E0138E086E08E59
:10592000B0B3681C0BD123E0216B09780173206BA5
:1059300001302063E08E0138E086E08E40B32068BD
:1059400081688907F0D4FDF71FFDA0EB0800A8428D
:10595000F3D3012084F85100002084F85000032084
:1059600004B0BDE8F08100BFFDF70EFDE08E78B118
:10597000206881688907F7D5216B09780173206B4E
:1059800001302063E08E0138E086E08E0028EFD100
:105990002046022101222B46CDF8008007F094FA20
:1059A000E0B1606D40F02000606520206065A06877
:1059B00038B9002002902068C16802918068029086
:1059C0000298012084F85100002084F85000606D96
:1059D000002818BF012004B0BDE8F08140F21C008F
:1059E000C2F20000006849F68171C1F25E61A0FB5D
:1059F0000101480D4FF47A71484303906068B0F597
:105A0000827F0BD12046802100222B46CDF80080DA
:105A100007F05AFA0028C4D1C9E700BF039800284C
:105A2000C5D0039801380390206880680006BED571
:105A300003980028BBD00398013803902068806841
:105A40000006B4D503980028B1D00398013803901C
:105A5000206880680006AAD503980028A7D003987C
:105A600001380390206880680006D7D49FE70000C3
:105A700070B590F851500446012D07D100294FF020
:105A8000010018BF002A0DD170BD00BF6068B0F5DD
:105A9000827F0ED1A06800284FF0020008BF042DBD
:105AA000F2D1EBE7002B08BF70BD94F8500001283D
:105AB00002D1022070BD00BF012084F8500094F88C
:105AC0005100002604281CBF052084F8510066659B
:105AD0002163A386E386A263A387E387C4E91066F4
