:020000040800F2
:1010000040520020DD130008F1130008EF13000820
:10101000F3130008F5130008F713000800000000A0
:10102000000000000000000000000000F9130008AC
:10103000FB13000800000000FD130008FF13000868
:101040000114000803140008000000000000000064
:101050000514000807140008091400080B14000800
:101060000D1400080F1400081114000813140008D0
:101070001514000817140008191400081B140008A0
:101080001D1400081F140008211400082314000870
:101090002514000827140008291400082B14000840
:1010A0002D1400082F140008311400083314000810
:1010B0003514000837140008391400083B140008E0
:1010C0003D1400083F1400084114000843140008B0
:1010D0004514000847140008491400084B14000880
:1010E0004D1400084F1400080000000051140008BF
:1010F0005314000855140008571400085914000828
:101100005B1400085D1400085F14000861140008F7
:10111000631400080000000065140008671400084C
:10112000691400086B1400086D1400086F1400089F
:101130007114000873140008000000007514000802
:1011400077140008791400087B1400087D14000847
:101150007F14000881140008831400088514000817
:101160008714000889140008000000000000000037
:1011700000000000000000008B14000800000000C8
:101180008D1400088F14000891140008000000005E
:1011900093140008000000000000000000000000A0
:1011A00095140008000000009714000800000000DB
:1011B000991400080000000000000000000000007A
:1011C0009B140008000000009D14000800000000AF
:1011D000000000000000000000000000000000000F
:1011E00000000000000000000000000000000000FF
:1011F000000000009F140008000000000000000034
:1012000000000000000000000000000000000000DE
:1012100000000000000000000000000000000000CE
:1012200000000000000000000000000000000000BE
:1012300000000000000000000000000000000000AE
:10124000000000000000000000000000000000009E
:10125000000000000000000000000000000000008E
:10126000000000000000000000000000000000007E
:10127000000000000000000000000000000000006E
:10128000000000000000000000000000000000005E
:10129000000000000000000000000000000000004E
:1012A000000000000000000000000000000000003E
:1012B000000000000000000000000000000000002E
:1012C000000000000000000000000000000000001E
:1012D000000000000000000000000000000000000E
:1012E00000000000000000000000000000000000FE
:1012F00000000000000000000000000000000000EE
:1013000000000000000000000000000000000000DD
:1013100000000000000000000000000000000000CD
:1013200000000000000000000000000000000000BD
:1013300000000000000000000000000000000000AD
:10134000000000000000000000000000000000009D
:10135000000000000000000000000000000000008D
:10136000000000000000000000000000000000007D
:10137000000000000000000000000000000000006D
:10138000000000000000000000000000000000005D
:10139000000000000000000000000000000000004D
:1013A000000000000000000000000000000000003D
:1013B000000000000000000000000000000000002D
:1013C0000000000000000000DFF80CD000F0C0FAC0
:1013D0000048004709350008405200203048314994
:1013E0000860006885463048804730480047FEE77F
:1013F000FEE7FEE7FEE7FEE7FEE7FEE7FEE7FEE7C5
:10140000FEE7FEE7FEE7FEE7FEE7FEE7FEE7FEE7B4
:10141000FEE7FEE7FEE7FEE7FEE7FEE7FEE7FEE7A4
:10142000FEE7FEE7FEE7FEE7FEE7FEE7FEE7FEE794
:10143000FEE7FEE7FEE7FEE7FEE7FEE7FEE7FEE784
:10144000FEE7FEE7FEE7FEE7FEE7FEE7FEE7FEE774
:10145000FEE7FEE7FEE7FEE7FEE7FEE7FEE7FEE764
:10146000FEE7FEE7FEE7FEE7FEE7FEE7FEE7FEE754
:10147000FEE7FEE7FEE7FEE7FEE7FEE7FEE7FEE744
:10148000FEE7FEE7FEE7FEE7FEE7FEE7FEE7FEE734
:10149000FEE7FEE7FEE7FEE7FEE7FEE7FEE7FEE724
:1014A0000010000808ED00E0052A0008C913000834
:1014B0002DE9F05F0546002092469B468846064689
:1014C000814640241BE0284641464746224600F01C
:1014D00076F853465A46C01A914110D31146184621
:1014E000224600F05DF82D1A67EB01084F462246B0
:1014F0000120002100F054F817EB00094E41201E96
:10150000A4F10104DFDC484631462A464346BDE8E3
:10151000F09F40EA01039B0703D009E008C9121FAE
:1015200008C0042AFAD203E011F8013B00F8013B9D
:10153000521EF9D27047D2B201E000F8012B491EC9
:10154000FBD270470022F6E710B513460A46044660
:101550001946FFF7F0FF204610BD30B504460020C5
:10156000034600E05B1C934203D2E05CCD5C401B71
:10157000F8D030BD30B50B460146002020220124B2
:1015800009E021FA02F59D4205D303FA02F5491B51
:1015900004FA02F52844151EA2F10102F1DC30BD67
:1015A000202A04DB203A00FA02F100207047914023
:1015B000C2F1200320FA03F3194390407047202A18
:1015C00004DB203A21FA02F00021704721FA02F3ED
:1015D000D040C2F1200291400843194670472DE9DE
:1015E000FE4F804681EA0300C00F0C46009021F0B8
:1015F000004123F00045B8EB0200A94105D2404666
:10160000214690461C460B46024623F000401043FC
:1016100047D0270DC7F30A00C3F30A510290401ABE
:10162000019040286BDAC3F3130040F4801B00984C
:10163000924620B10023D2EB030A63EB0B0B019817
:101640005946C0F140025046FFF7AAFF06460D4634
:1016500050465946019A00F08DF910EB080061419F
:10166000002487EA115284EAE7731A4340D0009AB3
:1016700062B3019A012A4FEA075215DC001B61EBA5
:1016800002014FF0004202EA0752CDE90042001C7D
:1016900041F5801132462B4600F08DF903B0BDE8CC
:1016A000F08F40462146F9E7001B61EB0201001C68
:1016B00041F5801300185B412018A2F5001747EB95
:1016C000030140EAD570B6196D4111E06D084FEA8B
:1016D000360645EAC0754FEA0752001B61EB02016E
:1016E000001C41F5801149084FEA300000195141B2
:1016F00032462B4603B0BDE8F04F00F04DB90098DC
:10170000012240000023D0EB020263EBE07300985B
:1017100021464FEAE074B8EB000061EB0401E9E711
:1017200083F000435BE781F0004158E72DE9FE4F6D
:1017300081EA030404F0004421F0004100944FF0DA
:10174000000B23F0004350EA01045ED052EA030488
:101750005BD0C3F30A54C1F30A552C44A4F2F3340A
:101760000194A0FB0254C1F3130141F48011C3F3AF
:10177000130343F4801301FB024400FB034E840A6D
:10178000970A44EA815447EA8357A4FB0768029505
:101790008D0A05FB07854FEA932C04FB0C542705A3
:1017A000029D4FEA065847EA1637B5EB08056EEB7F
:1017B000070C870E920E47EA811742EA8312A7FBB5
:1017C0000201B6EB0B0164EB00042B0D43EA0C3372
:1017D0005E1844EB1C50DA465146E7FB0201C5F3A4
:1017E00013044FEA0B3343EA14534FEA0432019CCB
:1017F00043EA0603A4F10C040294009CCDE900B472
:1018000000F0D9F803B0BDE8F08F00200146F9E7F9
:101810002DE9F04D81EA030404F0004B21F000456E
:1018200014464FF0000A23F0004150EA050220D090
:1018300054EA01021DD0C5F30A570246C5F313034B
:10184000C1F31300C1F30A5640F4801543F480132A
:10185000A7EB0608101BD64608F2FD3873EB05000F
:1018600002D308F1010801E092185B41B8F1000FC2
:1018700003DA00200146BDE8F08D00204FF480110E
:10188000064684460EE0171B73EB050705D3121BB3
:1018900063EB050306434CEA010C49084FEA3000AC
:1018A00092185B4150EA0107EDD152EA030012D0D1
:1018B00082EA040083EA0501084305D0101BAB410E
:1018C00006D20122002306E000224FF0004302E08E
:1018D0006FF0010253101AEB06004CEB085110EBAD
:1018E0000A0041EB0B01BDE8F04D00F055B8C1F323
:1018F0000A52C1F3130140F2FF3341F480119A42BE
:1019000002DA00200146704740F233439A42A2F2C5
:10191000334202DC5242FFF752BEFFF741BE0000E5
:1019200030B5041E71F1000404DB4FF00044404266
:1019300064EB0101141E73F1000405DB1C464FF03B
:101940000043524263EB0403994208BF904230BD0A
:10195000064C074D06E0E06840F0010394E80700FC
:1019600098471034AC42F6D3FFF732FD744A0008B2
:10197000A44A0008202A06DBCB17203A41FA02F0DD
:1019800043EAE07306E041FA02F3D040C2F12002DC
:10199000914008431946704710B5141E73F10004B6
:1019A00008DA401C41F1000192185B411A4301D151
:1019B00020F0010010BD2DE9F04D92469B4611B17B
:1019C000B1FA81F202E0B0FA80F220329046FFF7DD
:1019D000E7FD04460F4640EA0A0041EA0B01534680
:1019E0005A46084313D0114653EA010019D0C8F1F2
:1019F00040025046FFF7E3FD05460E465046594665
:101A00004246FFF7CDFD084305D0012004E0204603
:101A10003946BDE8F08D0020054346EAE0762C43C8
:101A200037430A986305E40AA0EB08000022FD0A88
:101A300044EA47540A3002D500200146E9E701058F
:101A400010196941DDE9084500196941BDE8F04D0B
:101A5000A2E7000085B0049003910398406A20F04B
:101A60001F0001900398416A806A01F01F01084439
:101A700000900499486A20F080404862002002905B
:101A8000FFE702980099884216D2FFE70198029971
:101A90000844049988620499486A40F0004048620A
:101AA000FFE70498406AC00F08B1FFE7F9E7FFE7D6
:101AB000029820300290E4E705B0704781B00090B2
:101AC000FFE70098006A8000002801D5FFE7F8E7EB
:101AD0000099486A40F0804048620099486A40F0A6
:101AE00000404862FFE70098406AC00F08B1FFE776
:101AF000F9E701B07047000080B58CB00690059101
:101B0000069800EB400143F6EC60C0F6000000EBE5
:101B1000C10004900498007800F00F00022804D05F
:101B2000FFE700208DF81F00C7E000200390049815
:101B3000017D01200129019008D0FFE70498007D74
:101B40000338B0FA80F040090190FFE7019800F0F7
:101B500001008DF80B009DF80B00C007B8B1FFE73E
:101B60000598049991F9111088420AD3FFE7049867
:101B7000407A411E012000FA01F1039808430390C6
:101B800004E0049890F911000590FFE7FFE704983E
:101B9000007D01280CDCFFE70598049991F91120DC
:101BA000801A097CB0FBF1F10398084303905EE0D2
:101BB0000498007D032838DCFFE70498007C0228A5
:101BC00032D1FFE70598049991F9111088422BD979
:101BD000FFE7049890F911000A900A9820B9FFE7EE
:101BE00020208DF82F0005E00A98B0FA80F08DF8DB
:101BF0002F00FFE79DF82F000090059808900898A7
:101C000020B9FFE720208DF8270005E00898B0FAFA
:101C100080F08DF82700FFE700989DF82710411A03
:101C2000039808430390FFE720E00498007D042810
:101C30001BD1FFE7059804990B7CA3F1200200FA61
:101C400002FCC3F1200120FA01F1002A58BF6146CD
:101C50009840002A58BF002048F28042C0F21E027D
:101C60000023FFF725FC0390FFE7FFE7FFE703985A
:101C70000499497AC1F120024FF0FF31D1408842E6
:101C800004D9FFE700208DF81F0016E00498C06813
:101C9000006804990B7A4A7AC2F1200C4FF0FF32A7
:101CA00022FA0CF29A409043039A9A401043C96872
:101CB000086001208DF81F00FFE79DF81F000CB0A1
:101CC00080BD000080B588B006908DF8171006988A
:101CD00000EB400143F6EC60C0F6000000EBC100F1
:101CE00004900498007800F00F00022804DBFFE75E
:101CF00000208DF81F0083E00498407A20B9FFE7A8
:101D000001208DF81F007BE09DF8170000F0010016
:101D100001900498007800F00F0100200129029042
:101D200006D1FFE70498007C80F001000290FFE7F5
:101D30000198029901F0010190EA010F0AD0FFE732
:101D40000498027A012101FA02F2C168086810437E
:101D5000086009E00498027A012101FA02F2C168E0
:101D6000086890430860FFE7069816280ED1FFE741
:101D700043F6E401C4F2020100913F200860012013
:101D800000F02CFE009900200860FFE7049801781D
:101D90000020B0EB111F04D1FFE701208DF81F00D8
:101DA0002EE00498007800098DF80F00FFE70498F2
:101DB000C06800680499097A0131C84000F0010048
:101DC0009DF8171001F00101884204D1FFE70120BE
:101DD0008DF81F0014E09DF80F00002818BF4FF485
:101DE0007A7000F0FBFDFFE79DF80F00411E8DF8B3
:101DF0000F100028DBD1FFE700208DF81F00FFE760
:101E00009DF81F0008B080BD80B58EB00C900C9876
:101E100000EB400143F6EC60C0F6000000EBC100AF
:101E20000B900B98007800F00F00014603910428F6
:101E300000F2B7800399DFE801F01B033354A100DF
:101E40000B98C06801680B98027A007CD14048402A
:101E5000C043C00730B1FFE70B980079FFF7D4FF0C
:101E6000029002E000200290FFE702980D909CE0B3
:101E70000B98407A50B1FFE70B98C06800680B9947
:101E8000097A0131C840C00720B1FFE70B9800690B
:101E9000019002E000200190FFE701980D9084E09E
:101EA0000C9800F085F80A900B980079FFF7ACFFCA
:101EB00009900B98007D04280DD1FFE7099848F29E
:101EC0008041C0F21E01A0FB01010A9A0023FFF726
:101ED000EFFA0D9069E009980A99B0FBF1F00D90C6
:101EE00063E00C9800F008F908900B980079FFF770
:101EF0008BFF0021079106900B98007D012838D1B7
:101F0000FFE706980799089AA0FB020301FB02313C
:101F100048F28042C0F21E020023FFF7C9FA07917F
:101F200006900B98407C70B1FFE70B9890F9110078
:101F3000FFF76AFF024606990798891840F10000EA
:101F400006910790FFE7069A48F21F50C5F2EB1082
:101F5000A2FB00104009642100FB112005900698A7
:101F6000059A801A00F16401282A88BF08460D905E
:101F70001BE00698089948430D9016E00C9800F075
:101F80000FF904900498242803D1FFE70020009063
:101F900004E00498FFF738FF0090FFE700980D90E9
:101FA00003E0FFE700200D90FFE70D980EB080BD25
:101FB00088B00690069800EB400143F6EC60C0F64E
:101FC000000000EBC10005900598007800F00F00BC
:101FD000022803D0FFE70020079089E00598C06839
:101FE000006805990A7A497AD040C1F120024FF081
:101FF000FF31D140084004900598017D012001295E
:10200000009008D0FFE70598007D0338B0FA80F013
:1020100040090090FFE7009800F001008DF80F00E4
:102020009DF80F00C007B0B1FFE704980599497A01
:102030000139C84018B9FFE70120079058E005981A
:10204000407AC0F121014FF0FF3020FA01F10498ED
:1020500008400490FFE70598007D01280ADCFFE7AF
:102060000598007C0499059A92F9112000FB012043
:1020700004903AE00598007D032819DCFFE70598F5
:1020800090F91100029000200190FFE70198049957
:1020900088420AD2FFE70598017C029848430290E3
:1020A000FFE7019801300190F0E7029804901BE0EF
:1020B0000598007D042816D1FFE7049848F2804176
:1020C000C0F21E01A0FB0101059A127CD040C2F1B2
:1020D000200301FA03F31843203AD140002A58BFE5
:1020E00008460490FFE7FFE7FFE704980790FFE743
:1020F000079808B07047000084B00290029800EB87
:10210000400143F6EC60C0F6000000EBC100019016
:102110000198007800F00F00032803D0FFE70020AB
:10212000039039E00198C068006801990A7A497AF9
:10213000D040C1F120024FF0FF31D1400840009063
:102140000198007D48B9FFE7019A107C009992F947
:10215000112000FB012003901EE00198007D012862
:1021600016D1FFE7009848F28041C0F21E01A0FBA3
:102170000101019A127CD040C2F1200301FA03F35D
:102180001843203AD140002A58BF0846039003E084
:10219000FFE700200390FFE7039804B070470000BA
:1021A00084B00290029800EB400143F6EC60C0F668
:1021B000000000EBC10001900198007800F00F00D2
:1021C000042803D0FFE7242003901FE00198C06893
:1021D000006801990A7A497AD040C1F120024FF093
:1021E000FF31D14008408DF803009DF803000199AC
:1021F0000979884203DDFFE72420039006E0019877
:102200009DF803100844007C0390FFE7039804B096
:102210007047000080B586B004900391049800EBED
:10222000400143F6EC60C0F6000000EBC1000290F4
:102230000298007800F00F00032804D0FFE7002088
:102240008DF8170063E0002001900298007D50B9DE
:10225000FFE70398029991F91120801A097CB0FBDD
:10226000F1F001903CE00298007D012837D1FFE7B2
:102270000298407CC0B1FFE703984DF68361C4F239
:102280001B31A0FB0110C00C0090029890F91100C6
:102290000099FFF7BFFF009843F6095141430398A7
:1022A000A0EBC1100390FFE7039802990B7CA3F108
:1022B000200200FA02FCC3F1200120FA01F1002AF9
:1022C00058BF61469840002A58BF002048F280421B
:1022D000C0F21E020023FFF7EBF80190FFE7FFE7D3
:1022E0000298C068006802990B7A4A7AC2F1200C01
:1022F0004FF0FF3222FA0CF29A409043019A9A4032
:102300001043C968086001208DF81700FFE79DF8A9
:10231000170006B080BD000080B586B00490039120
:10232000049800EB400143F6EC60C0F6000000EBBF
:10233000C10002900298007800F00F00042804D039
:10234000FFE700208DF8170068E000200190FFE70C
:1023500001980299097988425CD2FFE702980199B5
:102360000844007C039988424FD1FFE70298C06877
:10237000006802990B7A4A7AC2F1200C4FF0FF32C2
:1023800022FA0CF29A409043019A9A401043C9688D
:102390000860029801780020B0EB111F04D1FFE71C
:1023A00001208DF8170039E00298007800098DF8B7
:1023B0000300FFE70298C068006802990A7A497A28
:1023C0000A44D040C1F120024FF0FF31D140084013
:1023D0000199884204D1FFE701208DF817001DE024
:1023E0009DF80300002818BF4FF47A7000F0F6FA49
:1023F000FFE79DF80300411E8DF803100028D9D196
:10240000FFE700208DF8170008E0FFE70198013092
:1024100001909DE700208DF81700FFE79DF8170059
:1024200006B080BD80B590B001210691084600F04D
:1024300081F90699102000F097F90020C4F20200FB
:1024400002900A210722009200F0D2F8009A029826
:10245000092100F0CDF802980699002204920E920C
:102460000F91022101910C914FF400720B920D918A
:102470000BA9039100F058F8019A029803990C9265
:102480004FF480620B9200F04FF804984FF4E13162
:102490000791ADF82000ADF82200ADF82400ADF8AA
:1024A00028000C20ADF8260041F20000C4F2010023
:1024B000059007A900F00AFB0598069900F0C6FAF6
:1024C00010B080BD80B582B0019072B671B6242084
:1024D00002680199002090478DF8030061B662B64A
:1024E0009DF8030002B080BD10B586B0DDF820C0B5
:1024F000059004910392029372B671B62820D0F829
:1025000000C005980499039A029BDDF820E06C4610
:10251000C4F800E0E0478DF8070061B662B69DF8A8
:10252000070006B010BD000085B0049003910020A4
:102530000290019000900290FFE702980F2854D873
:10254000FFE70299012088400190039800680199F3
:102550000840009000980199884241D1FFE7049813
:10256000006802994A000321914088430399496811
:10257000914008430499086003984068012805D0F9
:10258000FFE70398406802281AD1FFE704988068A3
:1025900002994A0003219140884303998968914038
:1025A00008430499886004984068029A0121914088
:1025B0008843039989899140084304994860FFE75B
:1025C0000498C068029A91B24B0003219940884355
:1025D000039909695200914008430499C860FFE7D4
:1025E000FFE7029801300290A7E705B070470000AE
:1025F00083B00290ADF806108DF805200298BDF862
:10260000061047F6FC7202EA51010844006A009085
:10261000BDF8060000F0070081000F2000FA01F16C
:102620000098884300909DF80500BDF8061001F061
:102630000701890000FA01F1009808430090009812
:102640000299BDF8063002EA53021144086203B051
:102650007047000081B00090009943F61440C4F226
:102660000200016002688A42FCD101B0704700009C
:1026700010B581B00090009868B9FFE743F61441A7
:10268000C4F2020108684CF6FF42904344F66E42E1
:102690001043086026E043F61441C4F202010868C2
:1026A0004FF6FF729043009A147892F801E092F886
:1026B00002C0D37804F0010440EAC4300EF0010EE9
:1026C00040EA8E300CF0030C40EA0C2003F00F03BC
:1026D00040EA0310127902F00F02104400F5406046
:1026E0000860FFE701B010BD80B586B0059001A875
:1026F00000F054F8059888B9FFE743F61441C4F296
:1027000002010868019A4DF68363C4F21B33A2FBF1
:1027100003329208C0EA0200086009E043F614415F
:10272000C4F202010868059AC0EA02400860FFE7A7
:1027300006B080BD82B001900091009848B1FFE7DB
:10274000019A43F63001C4F20201086810430860A0
:1027500008E0019A43F63001C4F202010868904390
:102760000860FFE702B0704782B0019000910098C6
:1027700048B1FFE7019A43F64401C4F20201086838
:102780001043086008E0019A43F64401C4F20201D4
:10279000086890430860FFE702B0704780B582B0D8
:1027A00001900A20FFF730FB019908600B20FFF72A
:1027B0002BFB019948600F20FFF726FB01998860E9
:1027C0001020FFF721FB0199C86002B080BD000016
:1027D00070B58AB09C4696460C46054611981099ED
:1027E0000F9A0E9B8DF827508DF82640ADF824E007
:1027F0008DF823C08DF822308DF821208DF820101F
:102800008DF81F0000F0B2F89DF827100020C907CE
:10281000039031B1FFE701210846FFF753FA039017
:10282000FFE7039800F00100069000208DF81700E4
:1028300043F61440C4F20200006843F6F071084009
:102840000490FFE79DF81700C00740B1FFE7069925
:102850000920FFF761FD0498FFF7FCFEFFE79DF8F4
:102860001700C007002843D0FFE700F07FF80320DF
:1028700001900021FFF726FA06990220FFF74CFD90
:102880009DF826100420FFF737F9BDF82410052025
:10289000FFF7C0FC062006909DF82310FFF72CF9E7
:1028A0009DF822100720FFF727F99DF82110082036
:1028B000FFF722F9019801210291FFF703FA02992B
:1028C0000A20FFF719F99DF820100B20FFF714F9E3
:1028D0009DF81F100F20FFF70FF99DF81F10102013
:1028E000FFF70AF9049844F2040108430490FFE753
:1028F0009DF81700C00740B1FFE706990920FFF7D0
:102900000BFD0498FFF7A6FEFFE79DF81700C00730
:1029100098B9FFE709200090FFF742FC01460098B4
:10292000FFF7FAFC43F61440C4F202000068FFF718
:1029300091FE01208DF8170084E700F017F8049845
:1029400040F23021C2F2000109684DF68362C4F200
:102950001B32A1FB02120021C1F6FF7101EA9201B4
:102960000843FFF777FE0AB070BD000080B582B063
:102970000A20FFF749FA40F23021C2F20001086054
:1029800042F6DD10C0F60000B0F1005F03D3FFE7B0
:10299000062001900AE042F6DD11C0F60001042095
:1029A000B1F1011F38BF0C200190FFE7019840F200
:1029B0003421C2F20001086040F23020C2F200006F
:1029C00000684DF68362C4F21B32A0FB0220800B2C
:1029D0000A68B0FBF2F0086002B080BD81B00090E0
:1029E000009840F23421C2F20001096800FB01F0B6
:1029F0004FEA10100A3838BF0020013800BFFCD25F
:102A000001B0704780B584B041F20000C0F600000C
:102A10004EF60851CEF2000108604EF68851CEF213
:102A20000001086840F47000086069460220C86030
:102A300088600620486008600C214FF496720123DC
:102A40001846FFF7C5FE04B080BD000082B00190BB
:102A50000091009830B1FFE70199888940F4005057
:102A6000888105E00199888920F400508881FFE77A
:102A700002B0704784B00390ADF80A1000200190B6
:102A8000BDF80A00B0F5007F01D1FFE7FFE703982A
:102A90000088ADF802000398808B00F02001BDF89B
:102AA000020040EA4110ADF80200BDF80200BDF896
:102AB0000A100840000418B1FFE70120019002E06D
:102AC00000200190FFE7019804B0704780B586B000
:102AD00005900491002003900290019000900498CA
:102AE000808908B1FFE7FFE70598008A0390039803
:102AF00020F4405003900498C18803980843039041
:102B0000039805990882059880890390039841F2FB
:102B10000C6188430390049988880A891043498985
:102B20000143039808430390039805998881059809
:102B3000808A0390039820F4407003900498818960
:102B40000398084303900398059988820F20FFF7A4
:102B50005BF9029005988089000400280AD5FFE7F8
:102B6000029819214843049909684900B0FBF1F023
:102B7000019009E0029819214843049909688900E5
:102B8000B0FBF1F00190FFE7019848F21F51C5F248
:102B9000EB11A0FB01016FF00F0000EA5100039060
:102BA000019A03980009642100FB11200090059808
:102BB00080890004002810D5FFE70099322000EB3F
:102BC000C10048F21F51C5F2EB11A0FB0110C0F388
:102BD00042110398084303900FE00099322000EB64
:102BE000011048F21F51C5F2EB11A0FB0110C0F318
:102BF0004311039808430390FFE703980599088160
:102C00000498C08930B1FFE70599888B20F0020055
:102C1000888305E00599888B40F002008883FFE7F0
:102C200006B080BD82B00190ADF80210BDF8020080
:102C30006FF35F200199888002B0704710B5A8B08B
:102C4000269025910120249017A805903421049105
:102C5000FEF778FC04990AA80690FEF773FC059924
:102C60000020C0F6020000F089FB069909900020C0
:102C7000C0F6040000F082FB0890099868B9FFE7ED
:102C8000089848B9FFE744F20670C0F6000000F06B
:102C9000B3FC0120279059E1A6E00AA80C3017A93F
:102CA0000C3100F0F1FB38B1FFE744F63D00C0F60F
:102CB000000000F0A1FC97E013982099884207D902
:102CC000FFE744F66000C0F6000000F095FC8BE0E2
:102CD0009DF88C0070282DD0FFE79DF88C1044F6ED
:102CE0003F10C0F6000000F087FC0020C0F6020094
:102CF00017A900F02FF90990099848B9FFE744F2A5
:102D0000D060C0F6000000F077FC012027901DE1A4
:102D1000099917A800F024FC2490249818B1FFE723
:102D20002498279012E144F60210C0F6000000F04B
:102D300063FC06E044F6EA00C0F6000000F05CFC2C
:102D4000FFE7269828B3FFE7269903911798189A6A
:102D5000199BDDF868C0DDF86CE01C9C4C61C1F883
:102D600010E0C1F80CC08B604A6008601D981E9A84
:102D70001F9BDDF880C0DDF884E0229CCC62C1F8A6
:102D800028E0C1F824C00B62CA61886123980863F7
:102D9000FFE7259828B3FFE7259902910A980B9A37
:102DA0000C9BDDF834C0DDF838E00F9C4C61C1F8B5
:102DB00010E0C1F80CC08B604A6008601098119A4E
:102DC000129BDDF84CC0DDF850E0159CCC62C1F8D8
:102DD00028E0C1F824C00B62CA61886116980863B4
:102DE000FFE700202790B1E00020C0F604000AA908
:102DF00000F0B0F80890089848B9FFE744F2E560A1
:102E0000C0F6000000F0F8FB012027909EE000F0E3
:102E10009BF92490249818B1FFE72498279095E017
:102E20000020C0F6020017A900F094F80990099854
:102E300080B3FFE7099917A800F092FB249024982B
:102E400018B1FFE72498279080E06FF40F400790B7
:102E500008984FF6FC71C0F60301084407A9042244
:102E600000F0C0FB0020C0F604000AA900F072F8D0
:102E700008909DF8590070280BD0FFE79DF8591075
:102E800044F26C70C0F6000000F0B6FB0120279001
:102E90005CE008E044F2C670C0F6000000F0ACFB55
:102EA0000120279052E0269828B3FFE72699019148
:102EB0001798189A199BDDF868C0DDF86CE01C9C27
:102EC0004C61C1F810E0C1F80CC08B604A6008602A
:102ED0001D981E9A1F9BDDF880C0DDF884E0229CBF
:102EE000CC62C1F828E0C1F824C00B62CA618861D5
:102EF00023980863FFE7259828B3FFE725990091F9
:102F00000A980B9A0C9BDDF834C0DDF838E00F9C72
:102F10004C61C1F810E0C1F80CC08B604A600860D9
:102F20001098119A129BDDF84CC0DDF850E0159C0A
:102F3000CC62C1F828E0C1F824C00B62CA61886184
:102F400016980863FFE700202790FFE7279828B02E
:102F500010BD0000B0B58AB008900791089A079B91
:102F600044F29B70C0F6000044F6AA11C0F60001BE
:102F700000F042FB089800F580600690069844F245
:102F80004C61C0F600010822FEF7E7FA48B1FFE7FE
:102F900044F69600C0F6000000F02EFB00200990D9
:102FA000CEE044F62700C0F6000000F025FBFFE766
:102FB0000698C06844F64561C0F24401884209D0D1
:102FC000FFE744F6B700C0F6000000F015FB002054
:102FD0000990B5E044F63000C0F6000000F00CFBAC
:102FE000FFE7089806998968084405900698806864
:102FF000013048B9FFE744F2DA70C0F6000000F093
:10300000FBFA002009909BE0059844F25C61C0F651
:1030100000010822FEF7A1FA48B1FFE744F6A60036
:10302000C0F6000000F0E8FA0020099088E044F6BD
:103030002200C0F6000000F0DFFAFFE70598806A82
:1030400044F64561C0F24401884209D0FFE744F6E6
:10305000C600C0F6000000F0CFFA002009906FE033
:1030600044F63000C0F6000000F0C6FAFFE705980D
:103070002C2100F05DF9049004980599C96A8842F2
:103080000CD0FFE704990598C26A44F66B10C0F6AD
:10309000000000F0B1FA0020099051E044F615005C
:1030A000C0F6000000F0A8FAFFE7089806998968C2
:1030B00000F03EF90390039805998968884209D089
:1030C000FFE744F68200C0F6000000F095FA002009
:1030D000099035E044F60400C0F6000000F08CFAD8
:1030E000FFE7079838B3FFE7079901910598029029
:1030F00002684368D0F808C0D0F80CE0046945695C
:103100004D610C61C1F80CE0C1F808C04B600A6069
:103110008269C369D0F820C0D0F824E0846AC56A07
:10312000CD628C62C1F824E0C1F820C0CB618A6115
:10313000006B0863FFE70698806834300990FFE76A
:1031400009980AB0B0BD000080B582B0012001909E
:103150000020C0F6040000F00FF80090009828B19D
:10316000FFE7009800F054F8019002E00120019080
:10317000FFE7019802B080BD80B584B00390039A48
:1031800044F61910C0F6000044F6C111C0F6000163
:1031900000F032FA039800F580600290029880688F
:1031A00000F5806001900298806800F58060B0F5BD
:1031B000003F03D9FFE70020009002E00198009053
:1031C000FFE700980190019804B080BD80B582B0FF
:1031D0000120019044F29570C0F6000044F6E5111C
:1031E000C0F6000100F008FA44F6D600C0F6000070
:1031F00044F69511C0F6000144F6A112C0F6000293
:1032000000F0FAF900F05AF80190019802B080BD80
:1032100080B588B00790079A44F6F110C0F6000018
:1032200044F63421C0F6000100F0E6F90020C0F6B3
:10323000020000F0DCF900200690FFE706980799ED
:10324000884232D2FFE707980699401AB0F5805FAE
:1032500004D9FFE74FF48050029004E007980699E4
:10326000401A0290FFE70298059006980021C0F6E8
:103270000401084404900499059A40F23C20C2F2EB
:1032800000000190FEF745F9019906980022C0F66A
:1032900002021044039003984FF4805200F0A2F908
:1032A0000599069808440690C8E744F60420C0F63D
:1032B000000000F0A1F9002008B080BD80B582B008
:1032C00000200190FFF7D4F90198FFF70DFA01985B
:1032D00002B080BD80B584B00290029A44F62810F6
:1032E000C0F6000044F6D511C0F60001019100F0CF
:1032F00083F90298416840F23820C2F20000016070
:103300004EF21002CEF2000200211160029909680B
:103310000391039981F3088800688047019944F27A
:10332000B870C0F6000000F067F904B080BD00007E
:1033300084B0039002914FF0FF3000900020019084
:10334000FFE701980299884214D2FFE70099039899
:10335000019A805C4840C2B244F24C20C0F60000A2
:1033600050F8220080EA11200090FFE70198013018
:103370000190E6E70098C04304B07047B0B588B04C
:1033800006900591069800F58060049006980499CF
:1033900089680844039004988068013048B9FFE7C1
:1033A00044F2DA70C0F6000000F026F90020079021
:1033B0004CE003982C21FFF7BBFF02900298039981
:1033C000C96A88420CD0FFE702990398C26A44F6A2
:1033D0006B10C0F6000000F00FF90020079035E0F8
:1033E00044F61500C0F6000000F006F9FFE7059866
:1033F00038B3FFE70599009103980190026843688C
:10340000D0F808C0D0F80CE0046945694D610C6142
:10341000C1F80CE0C1F808C04B600A608269C3695A
:10342000D0F820C0D0F824E0846AC56ACD628C62EE
:10343000C1F824E0C1F820C0CB618A61006B086349
:10344000FFE70498806834300790FFE7079808B0DA
:10345000B0BD000080B582B0019000919DF80410CD
:1034600041F20000C4F20100FFF7DCFBFFE741F28C
:103470000000C4F201008021FFF7FCFA08B9FFE761
:10348000F5E7019802B080BD84B002900191002060
:103490000090FFE7009817282EDCFFE7009804282B
:1034A00010D0FFE7009807280CD0FFE700980A2803
:1034B00008D0FFE700980D2804D0FFE700981028F7
:1034C00001D1FFE714E00298009A805C0199895CC1
:1034D00088420CD0FFE70298009A815C0198825CD8
:1034E00000209142C8BF01208DF80F0008E0FFE7DF
:1034F000009801300090CDE700208DF80F00FFE725
:103500009DF80F0004B0704780B584B00020019092
:1035100003900290FEF786FF44F29060C0F6000030
:1035200000F06AF8FFF752FE01990846FFF786FBA4
:1035300040B1FFE744F2AD60C0F6000000F05CF877
:10354000FFE7FEE70020C0F60200FFF7C3FEFFE73B
:1035500044F2BF60C0F6000000F04EF8F8E700004B
:1035600080B584B002900191029890F83000FF2855
:103570000CD0FFE7029890F8301044F22070C0F6AB
:10358000000000F039F80120039028E06FF08F0070
:10359000009001984FF6FC71C0F60101084469469D
:1035A000042200F01FF802990020C0F60200FFF785
:1035B000D1FC0190029890F8300070280CD0FFE701
:1035C000029890F8301044F24370C0F6000000F00A
:1035D00013F80120039002E000200390FFE7039816
:1035E00004B080BD40F2891CC2F2000C604740F27A
:1035F000311CC2F2000C60470FB4054B10B503A993
:10360000044A029800F0DAF810BC5DF814FB0000E0
:10361000553400082C02002002E008C8121F08C11F
:10362000002AFAD170477047002001E001C1121F43
:10363000002AFBD1704700002DE9FF5F82B0002116
:10364000DDE90430020DDDF840B0034318D044F644
:103650001050A2F2FF3242431514119801281FD0D6
:10366000A5EB0B00401C5FEA000A4FF000064E4F2E
:10367000DFF83891B046504615D5CAF1000413E082
:10368000119801244AA3012801D16FEA0B01029885
:10369000119AC0E90031C0E9024206B0BDE8F09FCE
:1036A000CBF10000DFE704460021404A491842EB15
:1036B0000450CDE9001012E0E00707D032463B4647
:1036C00040464946FEF732F88046894632463B4638
:1036D00010461946FEF72AF806460F466410002CDD
:1036E000EAD1DDE90401DDE90023BAF1000F06DAD1
:1036F000FEF71CF842464B46FEF718F805E0FEF7C9
:1037000087F842464B46FEF783F804460E460022F1
:10371000284BFEF705F903D84FF0FF30014607E0CC
:103720000022254B20463146FDF759FFFEF7DFF812
:10373000102409E0002C0ADB0A220023FDF7B8FE62
:10374000039B30321A55641E50EA0102F2D1641C08
:10375000039AC4F111031444119A012A03D00122DF
:1037600008430DD10AE0084304D000204FF0110BAC
:10377000119072E7A3EB0B056D1E0DE05B4504DDB8
:103780004FF0000205F1010504E003DA4FF00002FA
:10379000A5F10105002AECD002981199C0E9023187
:1037A000C0E9004579E70000000014400000F03F48
:1037B000300000000000F0430000E03F2DE9FF4F23
:1037C00095B09B468946064600250FE2252877D10D
:1037D00000242746F84A0121059400E0044316F826
:1037E000013F203B01FA03F01042F7D130782A283C
:1037F00011D06FF02F033078A0F13002092A16D8CB
:10380000059A44F0020402EB820203EB42021044E8
:10381000761C0590EFE759F8042B0592002A03DA8D
:10382000504244F40054059044F00204761C307871
:103830002E2816D116F8010F44F004042A280DD0C2
:103840006FF02F023078A0F13003092B09D807EB75
:10385000870302EB4303C718761CF3E759F8047B90
:10386000761C30786C280FD006DC4C2817D06828DE
:103870000DD06A2814D104E0742810D07A280FD112
:103880000DE044F400140AE044F4801401E044F430
:1038900040147278824202D104F58014761C761CA2
:1038A000307866280BD013DC582877D009DC002844
:1038B00075D04528F6D04628F4D047281AD19DE186
:1038C00018E0632835D0642879D0652812D195E1B5
:1038D000702873D008DC6728F1D069286FD06E2873
:1038E0000DD06F2806D1B5E073282CD0752875D07F
:1038F000782874D05A46179990476D1C75E1C4F327
:103900000250022809D003280DD0D9F8001004284D
:103910000DD00D6009F1040967E1D9F80010EA172C
:10392000C1E90052F6E7D9F800100D80F2E70D70FA
:10393000F0E719F8041B8DF8001000208DF8010045
:10394000EA46012003E059F804AB4FF0FF3061076D
:103950004FF0000102D40DE008F101018846B942A0
:103960000FDA8045F8DB1AF808100029F4D108E0D6
:1039700008F1010188468142FADB1AF80810002993
:10398000F6D105985B46A0EB080721463846179A02
:1039900000F094FA284400EB080507E04DE029E127
:1039A0000DE01AF8010B5A4617999047B8F1010833
:1039B000F7D25B4621463846179A13E142E00A22C5
:1039C0000092C4F302524FF0000A022A08D059F8BC
:1039D00004CB032A4FEAEC710AD00DE029E02AE07B
:1039E00009F1070121F00702F2E802C1914609E05E
:1039F0000FFA8CFC4FEAEC71042A03D14FFA8CFCCD
:103A00004FEAEC71002907DA0A460021DCF1000CCC
:103A100061EB02012D2202E0220504D52B228DF854
:103A20000420012203E0E20701D02022F7E79046BC
:103A300059E00A2102E010220DE010214FF0000AA7
:103A400000910BE010224FF0000A44F00404082714
:103A5000009203E008224FF0000A0092C4F30252E1
:103A6000022A05D059F804CB0021032A08D009E026
:103A700009F1070121F00702F2E802C1914605E0D1
:103A80001FFA8CFC042A01D10CF0FF0C4FF0000847
:103A9000220728D5702806D0009B83F0100353EA34
:103AA0000A0305D00EE040228DF80420012208E030
:103AB0005CEA010206D030228DF804208DF8050062
:103AC00002229046009B83F0080353EA0A030AD1BE
:103AD0005CEA010201D1620705D530228DF804208D
:103AE0004FF001087F1E582804D034A003900EA880
:103AF00002900DE036A0F9E753466046009AFDF7C4
:103B0000D7FC84460398825C0298401E02900270A3
:103B10005CEA0100F0D1029806A9081A00F1200A17
:103B2000600702D524F4803400E00127574502DD08
:103B3000A7EB0A0000E0002000EB0A0100900598C6
:103B40004144401A0590E00306D45B462146179A8B
:103B5000059800F0B3F90544002706E001A85A468D
:103B6000C05D179990476D1C7F1C4745F6DBE0034D
:103B70000CD55B462146179A059800F09FF905443D
:103B800004E030205A46179990476D1C0099481E52
:103B900000900029F5DC08E0029802995A46007866
:103BA000491C0291179990476D1CBAF10001AAF1C6
:103BB000010AF1DC65E100000928010030313233EF
:103BC0003435363738396162636465660000000059
:103BD0003031323334353637383941424344454643
:103BE0000000000000F058F90544761C30780028E9
:103BF0007FF4ECAD19B02846BDE8F08F620700D421
:103C0000062709F1070222F0070CFCE80223E1462F
:103C100003F000485FEA080C02D00FF2702C0DE0B0
:103C20005FEA045C02D50FF2682C07E05FEAC47C0F
:103C300002D00FF2602C01E0AFF2700C4FF0FF38B1
:103C400023F00043CDF850C065280CD006DC452891
:103C500009D046281DD047283DD13DE0662818D020
:103C600067287ED138E00021112F01DB112000E010
:103C7000781CCDE9000106A90EA8FFF7DDFCDDE9FF
:103C80000F010E9A03910021009207F1010A04919D
:103C90004DE04FF000400097CDE9011006A90EA8B5
:103CA000FFF7CAFCDDE90F0203920E9B1199002277
:103CB000DDF80CA00093049211B9791C00EB010A05
:103CC000B7EB0A0004D4C0F1FF3007F1010A0490F9
:103CD000AAEB0700019044E0012F00DA0127002140
:103CE000112F01DD112000E03846CDE9000106A9C1
:103CF0000EA8FFF7A1FCDDE90F010E9A0391002148
:103D000004910092BA4621070CD40399514500DA78
:103D10008A46BAF1010F05DD009AAAF10101515C52
:103D2000302908D0B84202DA10F1040F06DA012176
:103D3000CDE9011015E0AAF10101E9E7002805DC51
:103D4000049901440491AAEB000102E0411C514591
:103D500000DD8A460499401A401C01904FF0004053
:103D60000290200704D40198504501DBCDF804806F
:103D700000208DF84F0002980DF14F07B0F1004F71
:103D800025D02B200E9002984FF0020800280CDA64
:103D9000404202902D200E9007E00A210298FDF784
:103DA000E9FB3031029007F8011DB8F10001A8F1DC
:103DB0000108F2DC02980028EFD1791E0E980870F5
:103DC000307800F0200040F0450007F8020D12A8FE
:103DD000C01B00F107081498007800B1012000EB27
:103DE0000A01019801EBE07105984144401A401E18
:103DF0000590E00306D45B462146179A059800F02B
:103E00005DF805441498007818B15A461799904700
:103E10006D1CE00324D55B462146179A059800F0F7
:103E20004DF805441CE00498002807DBDDE9030198
:103E3000884203DD0098405C179901E01799302013
:103E40005A469047049805F10105401C04900198DA
:103E5000401E019004D12E205A46179990476D1CA0
:103E6000BAF10001AAF1010ADDDC05E017F8010B47
:103E70005A46179990476D1CB8F10001A8F1010846
:103E8000F4DC5B462146179A0598ABE62D0000004E
:103E90002B000000200000002DE9F0410446002521
:103EA0001E461746880404D405E039462020B04752
:103EB0006D1C641EF9D52846BDE8F0812DE9F0415E
:103EC000044600251E469046C80301D5302700E071
:103ED0002027880404D505E041463846B0476D1CCC
:103EE000641EF9D52846BDE8F081000020000000DE
:103EF000000000000002000000380240001BB70074
:103F000000000000A00000000000000010020000FF
:103F100000380240001BB700000000000400000051
:103F200002000000160100000438024000010000F9
:103F300000000000A10000000200000018010000C5
:103F400000380240010000000000000002000000F4
:103F500003000000000600000438024001000000D9
:103F6000000000000300000004000000060900003B
:103F700004380240010000000000000002000000C0
:103F80000500000010030000043802400202000097
:103F900001000000020000000500000018040000FD
:103FA0000438024001000000000000000200000090
:103FB000050000001C04000004380240010000005D
:103FC00000000000040000000300000000020000E8
:103FD0000838024000010600000000000200000056
:103FE0000900000000040000E8380240020200005E
:103FF00003000000020000000A00000004040000AA
:104000000838024002020000030000000000000027
:1040100000000000000000000000000000000000A0
:104020000000000000000000000000000000000090
:104030000000000000000000000000000000000080
:104040000000000000000000000000000000000070
:1040500000000000020000000B0000000A03000046
:1040600008380240020200000300000002000000C5
:104070000B0000000D03000008380240020200009F
:104080000300000021000000040000001A010000ED
:1040900000380240010000000000000003000000A2
:1040A00011000000060900008438024001000000F1
:1040B00000000000020000001200000010030000D9
:1040C00084380240020200000100000002000000EB
:1040D00012000000180400008438024001000000B3
:1040E0000000000002000000120000001C0400009C
:1040F000843802400100000000000000A100000020
:10410000020000001C010000003802400100000015
:104110000000000003000000160000000016000070
:10412000CC3802400E000000010000000200000038
:104130001700000000160000D03802400E000000FA
:10414000040000000200000017000000001600003C
:10415000D43802400E0000000400000002000000FD
:104160001700000000160000D83802400E000000C2
:10417000040000000200000017000000001600000C
:10418000DC3802400E0000000400000002000000C5
:104190001700000000160000E03802400E0000008A
:1041A000040000000000000000000000000000000B
:1041B00000380240001BB7000000000004000000AF
:1041C000020000001701000008380240181D00001E
:1041D00000000000040000000400000000020000D5
:1041E0008C38024015141308000000000400000081
:1041F000020000001B0100008C3802401B07000079
:104200000000000004000000020000001C0100008B
:104210008C380240200B000000000000020000006B
:104220000A00000000040000143C024001020000EB
:1042300000000000020000000A000000040400006A
:10424000E838024001020000010000000000000008
:10425000963007772C610EEEBA51099919C46D0793
:104260008FF46A7035A563E9A395649E3288DB0EEE
:10427000A4B8DC791EE9D5E088D9D2972B4CB609D1
:10428000BD7CB17E072DB8E7911DBF906410B71DAE
:10429000F220B06A4871B9F3DE41BE847DD4DA1AE7
:1042A000EBE4DD6D51B5D4F4C785D38356986C1318
:1042B000C0A86B647AF962FDECC9658A4F5C011491
:1042C000D96C0663633D0FFAF50D088DC8206E3B6F
:1042D0005E10694CE44160D5727167A2D1E4033C81
:1042E00047D4044BFD850DD26BB50AA5FAA8B535A8
:1042F0006C98B242D6C9BBDB40F9BCACE36CD83297
:10430000755CDF45CF0DD6DC593DD1ABAC30D9263D
:104310003A00DE518051D7C81661D0BFB5F4B42140
:1043200023C4B3569995BACF0FA5BDB89EB802283D
:104330000888055FB2D90CC624E90BB1877C6F2FC2
:10434000114C6858AB1D61C13D2D66B69041DC76BD
:104350000671DB01BC20D2982A10D5EF8985B17196
:104360001FB5B606A5E4BF9F33D4B8E8A2C9077845
:1043700034F9000F8EA8099618980EE1BB0D6A7FDC
:104380002D3D6D08976C6491015C63E6F4516B6B95
:1043900062616C1CD83065854E0062F2ED95066C4A
:1043A0007BA5011BC1F4088257C40FF5C6D9B065BF
:1043B00050E9B712EAB8BE8B7C88B9FCDF1DDD621C
:1043C000492DDA15F37CD38C654CD4FB5861B24D82
:1043D000CE51B53A7400BCA3E230BBD441A5DF4A4C
:1043E000D795D83D6DC4D1A4FBF4D6D36AE969430F
:1043F000FCD96E34468867ADD0B860DA732D0444BA
:10440000E51D03335F4C0AAAC97C0DDD3C710550E4
:10441000AA41022710100BBE86200CC925B568578B
:10442000B3856F2009D466B99FE461CE0EF9DE5ED4
:1044300098C9D9292298D0B0B4A8D7C7173DB35985
:10444000810DB42E3B5CBDB7AD6CBAC02083B8ED16
:10445000B6B3BF9A0CE2B6039AD2B1743947D5EA23
:10446000AF77D29D1526DB048316DC73120B63E352
:10447000843B64943E6A6D0DA85A6A7A0BCF0EE4B1
:104480009DFF099327AE000AB19E077D44930FF06C
:10449000D2A3088768F2011EFEC206695D5762F763
:1044A000CB67658071366C19E7066B6E761BD4FEA0
:1044B000E02BD3895A7ADA10CC4ADD676FDFB9F97D
:1044C000F9EFBE8E43BEB717D58EB060E8A3D6D63F
:1044D0007E93D1A1C4C2D83852F2DF4FF167BBD16D
:1044E0006757BCA6DD06B53F4B36B248DA2B0DD870
:1044F0004C1B0AAFF64A0336607A0441C3EF60DF13
:1045000055DF67A8EF8E6E3179BE69468CB361CBFB
:104510001A8366BCA0D26F2536E2685295770CCC20
:1045200003470BBBB91602222F260555BE3BBAC561
:10453000280BBDB2925AB42B046AB35CA7FFD7C252
:1045400031CFD0B58B9ED92C1DAEDE5BB0C2649B43
:1045500026F263EC9CA36A750A936D02A906099C76
:104560003F360EEB8567077213570005824ABF95E9
:10457000147AB8E2AE2BB17B381BB60C9B8ED2926C
:104580000DBED5E5B7EFDC7C21DFDB0BD4D2D386C3
:1045900042E2D4F1F8B3DD686E83DA1FCD16BE8136
:1045A0005B26B9F6E177B06F7747B718E65A088807
:1045B000706A0FFFCA3B06665C0B0111FF9E658F98
:1045C00069AE62F8D3FF6B6145CF6C1678E20AA042
:1045D000EED20DD75483044EC2B30339612667A7C8
:1045E000F71660D04D476949DB776E3E4A6AD1AE17
:1045F000DC5AD6D9660BDF40F03BD83753AEBCA9A6
:10460000C59EBBDE7FCFB247E9FFB5301CF2BDBD12
:104610008AC2BACA3093B353A6A3B4240536D0BA1B
:104620009306D7CD2957DE54BF67D9232E7A66B3B8
:10463000B84A61C4021B685D942B6F2A37BE0BB465
:10464000A18E0CC31BDF055A8DEF022D4D482D4264
:104650004F4F540000000000454E44004D482D458A
:10466000454E440000000000000000000000000073
:10467000000000000000000000000000000000003A
:1046800000000000454E440000000000FFFFFFFF57
:104690000A0A0A3E3E3E204D4820414220626F6F8A
:1046A000742044656D6F2056312E300A003E3E3E28
:1046B00020636865636B206661696C65640A003E0F
:1046C0003E3E206A756D70206661696C65640A0003
:1046D000617070204120636865636B206661696C5E
:1046E0006564200A00617070204220636865636B16
:1046F000206661696C6564206265666F726520631F
:104700006F7079200A004E6F206170705F412061E8
:104710006E64204E6F206170705F422121210A007B
:104720006170702041207768697465626F6172649E
:104730002076616C7565206572723A252378212197
:10474000210A006170702041207768697465626F8A
:104750006172642077726974652076616C7565207A
:104760006572723A2523782121210A006170702038
:1047700042207768697465626F617264207772693C
:1047800074652076616C7565206572723A252378B0
:104790002121210A00257328290A0025732862692E
:1047A0006E427566663A2523782C206F75747265A3
:1047B000733A252378290A00257328292C2066615D
:1047C000696C65640A0061707020412063686563EC
:1047D0006B206661696C65640A007461696C206FA6
:1047E00066667365742069732072657365742076DC
:1047F000616C75652C206E6F207369676E617475CE
:1048000072650A006669726D776172652063726312
:10481000206F6B0A007461696C20637263206F6B98
:104820000A007461696C2068656164206F6B0A001E
:104830007461696C20656E64206F6B0A0041707052
:104840002042207369672D74696D65206973206E3D
:10485000657765722C20636F7079206170700A0033
:1048600041707020422056657273696F6E206973C3
:10487000206E657765722C20636F7079206170708F
:104880000A006669726D77617265206372632065E4
:1048900072726F720A0074616720686561642065D6
:1048A00072726F720A007461696C206865616420BD
:1048B0006572726F720A0074616720656E642065AC
:1048C00072726F720A007461696C20656E64206593
:1048D00072726F720A00636F6D70696C6520746923
:1048E0006D653A25732C25730A0061707020412094
:1048F0006661737420636865636B2C2070617373E9
:104900000A0061707020412066756C6C20636865D8
:10491000636B20706173730A00257328252378293F
:104920002C73746172740A00257328616464726563
:1049300073733A252378292C73746172740A0066A4
:1049400061737420636865636B206661696C65647C
:104950002C207768697465626F6172642076616C7F
:104960007565206973202523780A007461696C20BD
:10497000637263206572726F722C2063616C3A30CF
:1049800078253038782C2073617665643A30782544
:104990003038780A004465632032332032303235B3
:1049A0000031373A32373A3238006162626F6F74E1
:1049B0005F636865636B5F7369676E617475726569
:1049C000006162626F6F745F6765745F6170705FD2
:1049D00073697A65006162626F6F745F6A756D708A
:1049E0005F617070006162626F6F745F696E69749D
:1049F0000025732873697A653A25642062797465A5
:104A000073290A00636F70792066696E6973680A9A
:104A10000025732864657374696E6174696F6E3AFA
:104A20002523782C206C656E3A2564292C737461DB
:104A300072740A006162626F6F745F696F5F6669AA
:104A4000726D776172655F636F70795F625F746FBB
:104A50005F6100464C4153485F49665F4572617330
:104A60006500464C4153485F49665F5772697465FB
:104A700000000000A84A0008000000202C020000EE
:104A800018360008D44C00082C0200200C0000004E
:104A900018360008E04C00083802002008500000DA
:104AA000283600080000000084B0029001910298AE
:104AB000006943F61841C4F2020108600298C06818
:104AC00043F60441C4F20201086043F60041C4F217
:104AD000020108684FF60E42C0F2FF021040029A2F
:104AE000137840EA0360536840EA0320926840EA82
:104AF00002100130086000200090FFE70098019943
:104B000088421DD2FFE743F63040C4F2020000683D
:104B1000C00780B1FFE743F63441C4F2020101202F
:104B2000086043F61C40C4F2020000680299486124
:104B30000020039007E0FFE7009804300090DDE7D5
:104B400001200390FFE7039804B07047FFE74CF2A1
:104B50002000C4F2020000688000002801D5FFE7B1
:104B6000F5E7FFE74CF22040C4F202000068800045
:104B7000002801D5FFE7F5E77047000080B588B051
:104B80000690FFF7E3FF069840B9FFE79F208DF8F6
:104B9000000000200190032002900AE006980078AF
:104BA0008DF8000006984068019006988068029091
:104BB000FFE768464CF25031FFF776FF18B1FFE788
:104BC0000120079004E0059820F07F400790FFE760
:104BD000079808B080BD000080B584B00390039AA8
:104BE00044F62810C0F6000044F65321C0F6000138
:104BF00000F052F82020029000200190FFE7019879
:104C0000029988420BD2FFE70398019900EB01302B
:104C100000F047F8FFE7019801300190EFE74CF210
:104C20000040C4F2020000F041F8002004B080BD52
:104C300080B598B0179016911592179A159B44F667
:104C40001120C0F6000044F66221C0F6000100F019
:104C500023F80D2014900120139032201290179AFF
:104C6000159B16986946086012A80021029100F071
:104C700022F803A801903C2100F022F8019917982E
:104C80000C9015980D904CF20040C4F2020000F018
:104C90001CF8029818B080BD43F2F95CC0F6000C15
:104CA000604742F2C54CC0F6000C604741F6BD2C8F
:104CB000C0F6000C604742F2E94CC0F6000C6047B9
:104CC00041F2455CC0F6000C604741F6552CC0F639
:104CD000000C60470000000000A3E111B0040000D8
:04000005080013C913
:00000001FF
