:040000050800018965
:020000040800F2
:1000000000140120A50200084D480008C13E000868
:1000100029480008E50C0008E5750008000000000C
:10002000000000000000000000000000655900080A
:10003000A30D000800000000414E000867590008A9
:10004000BF020008BF020008BF020008BF0200088C
:10005000BF020008BF020008BF020008BF0200087C
:10006000BF020008BF020008BF020008BF0200086C
:10007000BF020008BF020008090D0008150D0008A6
:10008000210D00082D0D0008BF020008BF02000866
:10009000BF020008BF020008BF020008BF0200083C
:1000A000BF020008BF020008BF020008BF0200082C
:1000B000BF020008BF020008BF020008BF0200081C
:1000C000BF020008BF020008BF020008BF0200080C
:1000D0001D550008BF020008995F0008BF02000814
:1000E000BF020008BF020008BF020008BF020008EC
:1000F000155A0008BF020008BF020008BF0200082E
:10010000BF020008BF020008BF020008BF020008CB
:10011000BF020008BF020008BF020008BF020008BB
:10012000BF020008BF020008390D0008450D000895
:10013000BF0200080000000000000000BF0200082D
:10014000BF020008BF020008BF020008694800089B
:10015000BF020008BF020008BF020008BF0200087B
:10016000BF020008BF020008BF020008BF0200086B
:10017000BF020008BF0200080000000000000000ED
:10018000BF020008BF02000800F002F800F07AF891
:1001900014A696E8000CB244B344DA4501D100F04D
:1001A00071F8BAE80F000FA696E83000A5EB040539
:1001B00004EB0607AAEB0704A7F101074FEA1515A0
:1001C0004FEA3414A4F10104AC4201D300F05AF810
:1001D00013F0010F18BFFB1A43F0010300F001F800
:1001E000DBE718476CB700008CB70000103A24BF5B
:1001F00078C878C1FAD8520724BF30C830C144BF8C
:1002000004680C6070470000704700000023002461
:1002100000250026103A28BF78C1FBD8520728BF16
:1002200030C148BF0B607047692900F043816429E1
:1002300000F04081752900F03D816F2900F0D481E4
:10024000782900F0FB810368DB0928BF41F08001B9
:10025000632900F07B84732900F08084E32900F097
:100260009D84002070471FB50AF0BCFE00F000FD21
:100270000400002000210AF09FFE401C60601FBDAA
:1002800010B510BD00F000FD1146FFF7ECFF0AF0BD
:1002900021F800F01EFD03B4FFF7F2FF03BC07F0E6
:1002A000E5F900000948804709480047FEE7FEE7F6
:1002B000FEE7FEE7FEE7FEE7FEE7FEE7FEE7FEE716
:1002C00004480549054A064B70470000055A0008D6
:1002D0008901000850E400200014012050F400209F
:1002E00000040120704753EA020C00F069802DE9F8
:1002F000F04B4FF00006002B1FBFB3FA83F503FA53
:1003000005F424FA05F65E4012BF1643B2FA82F5F0
:1003100002FA05F4C5F120051EBF22FA05FC44EAE5
:100320000C04203556EA044C4FEA144418BF641CF0
:100330004FF000084FF00009904271EB030C39D3E5
:10034000002919BFB1FA81F701FA07F6B0FA80F770
:1003500000FA07F6C7F120071EBF20FA07FC46EA9D
:100360000C062037B6FBF4FCA7EB0507103F07F09F
:100370001F0BCBF120062CFA06F60CFA0BFB44BF40
:10038000B3460026202FA4BF5E464FF0000B5BEA69
:10039000060C08BF4FF0010B19EB0B0948EB0608E0
:1003A000ABFB027C06FB02CC0BFB03CCC01B71EB4E
:1003B0000C01C1E70B46024641464846BDE8F08BBA
:1003C00013B5084318BF4FF0FF300146AFF300806C
:1003D000BDE81C40704700000FB4044910B503AAE3
:1003E000029800F0BFFB10BC5DF814FB0024002055
:1003F00070B5044685690068C10601D5302600E065
:100400002026C00707D070BDD4E9012130469047AF
:10041000206A401C20626D1EF6D570BD70B5044682
:1004200085690078C00707D170BDD4E9012120207B
:100430009047206A401C20626D1EF6D570BD096889
:100440004A0501D540B27047C905FCD500B27047D6
:1004500009684A0501D5C0B27047C905FCD580B20C
:10046000704770B50C460546012A05D028788006ED
:1004700000D5EA69002302E0012305E05B1C9342FA
:1004800002D2E05C0028F9D1A869E618C01AA86178
:10049000286A184428622846FFF7AAFF04E0D5E935
:1004A000012114F8010B9047B442F8D32846FFF716
:1004B000B5FF70BD2DE9F04106460024106875298E
:1004C000314616A510D0FFF7BAFF002802DA4042E5
:1004D00013A507E031688A0701D512A502E0490794
:1004E00004D511A5012401E0FFF7B2FF00210A2283
:1004F00006F1240709E0B0FBF2FCB0FBF2F302FBCB
:100500001C00303078541846491C0028F3D123468B
:100510002A463046BDE8F04100F09CBA00000000D9
:100520002D0000002B000000200000002DE9FF5FDF
:1005300015468A460446DFF8AC80F8440027D8E91F
:1005400000103E46CDE9001010E03AF816106A4659
:1005500002A800F02FFB411C07D02178890603D5A3
:10056000E269391891420DD80744761C207880063C
:1005700002D5E069B84205DDAE42E6DB3AF8160086
:100580000028E2D1A069C01BA0612046FFF730FF20
:10059000D8E90010CDE90010002017E03AF8181053
:1005A0006A4602A800F006FBB0F1FF3F81460BD07F
:1005B00000250DF1080B05E0D4E901211BF8050029
:1005C00090476D1C4D45F7D308F10100B0428046BD
:1005D000E4DB206A384420622046FFF71FFFBDE8B5
:1005E000FF9F0000C2AA000070B5044621461068B3
:1005F000FFF72EFF002104F1240505E000F00702BB
:100600003032C0086A54491C0028F7D12068002302
:1006100008A2050708D500F02000084304D0E069CF
:10062000012305A2401EE0612046BDE8704000F0B5
:1006300011BA0000000000003000000070B5044650
:100640000D4621461068FFF703FF2188090502D5F2
:100650000F4A7A4402E00E4A7A440E32002104F135
:10066000240305E000F00F060009965D5E54491C66
:100670000028F7D120780023000704D5702D02D080
:1006800009B1022311322046BDE8704000F0E2B902
:10069000B2A900002DE9F05F894604464FF0000A38
:1006A000DFF874B1FB44C0F820A02046E168884719
:1006B000002874D0252806D0D4E901219047206A6B
:1006C000401C2062F1E700265F462046E16888472B
:1006D0002028054607DB312D05D2781910F8200CAB
:1006E00008B10643F1E7B00701D526F00406C4F8C7
:1006F0001CA00027C4F818A02A2D09D028460AF00B
:1007000053FC38B304EB8708303DC8F8185019E0A3
:1007100059F8041B204604EB87029161E168884781
:10072000012F054618D1E069002820DA26F02006BE
:100730001DE0D8F8180000EB800005EB40003038D1
:10074000C8F818002046E168884705460AF02CFCE6
:100750000028EED1012F0AD02E2D08D12046E168C5
:1007600088477F1C0546022F46F02006C4DBA0699F
:10077000002803DA404246F00106A061F00701D0EC
:1007800026F010066C2D0BD0682D09D04C2D39D0D9
:100790006A2D35D0742D35D07A2D33D016E038E05F
:1007A000E1682F4620468847B842054609D16C2F9C
:1007B00026D04FF48060E16806432046884705460E
:1007C00004E06C2F1AD04FF4807006430DB3A5F1EE
:1007D0004100192802D8203546F400664A462946C9
:1007E000204626604E46FFF71FFD80B101280BD042
:1007F000F61D26F0070000F1080956E74020E4E75F
:100800008020D8E70020D6E706F104094DE7284606
:1008100052E7206ABDE8F09F88A9000010B50446A1
:1008200003E008F09FFF401C09D014F8010B0549B4
:100830000028F6D1BDE810400A2008F093BF4FF021
:10084000FF3010BD0024002040EA010310B59B07D3
:100850000FD1042A0DD310C808C9121F9C42F8D02A
:1008600020BA19BA884201D9012010BD4FF0FF30DB
:1008700010BD1AB1D30703D0521C07E0002010BDF1
:1008800010F8013B11F8014B1B1B07D110F8013B7D
:1008900011F8014B1B1B01D1921EF1D1184610BD5E
:1008A000CBB22AB101788B4203D0401C521EF9D141
:1008B00000207047032A40F2308010F0030C00F053
:1008C000158011F8013BBCF1020F624498BF11F88A
:1008D00001CB00F8013B38BF11F8013BA2F1040243
:1008E00098BF00F801CB38BF00F8013B11F00303BB
:1008F00000F08481083AC0F0088051F8043B083ABF
:1009000051F804CBA0E80810F5E7121D5CBF51F8C0
:10091000043B40F8043BAFF30080D20724BF11F83A
:10092000013B11F801CB48BF11F8012B24BF00F89F
:10093000013B00F801CB48BF00F8012B70474FF096
:1009400000020429C0F0128010F0030C00F01B809C
:10095000CCF1040CBCF1020F18BF00F8012BA8BFAA
:1009600020F8022BA1EB0C0100F00DB85FEAC17C6E
:1009700024BF00F8012B00F8012B48BF00F8012B21
:1009800070474FF0000200B5134694469646203952
:1009900022BFA0E80C50A0E80C50B1F12001BFF438
:1009A000F7AF090728BFA0E80C5048BF0CC05DF89E
:1009B00004EB890028BF40F8042B08BF704748BFEC
:1009C00020F8022B11F0804F18BF00F8012B704760
:1009D00030B44FF0013C50F8042B51F8043BCCFAF2
:1009E00052F4D51A20D1FCB950F8042B51F8043B2D
:1009F000CCFA52F4D51A17D1B4B950F8042B51F8E7
:100A0000043BCCFA52F4D51A0ED16CB950F8042B31
:100A100051F8043BCCFA52F4D51A05D1002CDAD0A7
:100A200030BC4FF00000704729BAB1FA81F111F0E3
:100A30001801D1F120008440F2D1CA40CB4012F01D
:100A4000FF0213F0FF0330BCD01A704770477047A5
:100A5000704770472DE9F0470D4699469246044687
:100A600000F124080168880604D5E06921F010012E
:100A7000216000E00120A84201DD471B00E00027C3
:100A8000A1697A1902EB0900081AA0612078C00652
:100A900002D42046FFF7ACFC002608E0D4E901218F
:100AA0001AF806009047206A401C761C20624E45CA
:100AB000F4DB2078C0060AD52046FFF799FC06E053
:100AC000D4E9012130209047206A401C2062381E62
:100AD000A7F10107F4DC07E0D4E9012118F80500CB
:100AE0009047206A401C2062281EA5F10105F3DC16
:100AF0002046FFF793FC2078000602D50220BDE8CF
:100B0000F0870120FBE7000001694A1C02610878B8
:100B1000704700B58FB0CDE901310021059105493D
:100B20007944CDE9031011466846FFF7B3FD0FB0D5
:100B300000BD0000E5FFFFFF10B5436913B1AFF33F
:100B4000008001E0FFF78DFC012010BD127800F15C
:100B500024010A7000224A700122EDE711684FF06B
:100B6000FF32E9E7074B70B50D467B44FFF7D1FF35
:100B70000446284600F080F810B14FF0FF3070BDF9
:100B8000204670BDF78B000010B5436913B1AFF379
:100B9000008001E0FFF7CAFC012010BD128800F1BF
:100BA000240182840022C2840122EDE711684FF003
:100BB000FF32E9E72DE9F04116460C46054600F004
:100BC0004FF8036893F80101012807D0FF2C12D8D1
:100BD000185D80B101202C70BDE8F081D3F80701C9
:100BE0003246214603F20713C7182846BC46BDE823
:100BF000F041002360474FF0FF30EDE710B5203A99
:100C0000C0F00B80B1E81850A0E81850B1E81850B7
:100C1000A0E81850203ABFF4F5AF5FEA027C24BF89
:100C2000B1E81850A0E8185044BF18C918C0BDE872
:100C300010405FEA827C24BF51F8043B40F8043B3B
:100C400008BF7047D20728BF31F8023B48BF11F8F0
:100C5000012B28BF20F8023B48BF00F8012B70474A
:100C600010B500F005F8001D10BD00BF4DA3000039
:100C70000048704720010020007B00F08000704792
:100C800000487047000100207546FFF7F9FFAE46A7
:100C900005006946534620F00700854618B020B588
:100CA000FFF70EFBBDE820404FF000064FF00007B5
:100CB0004FF000084FF0000BAC46ACE8C009ACE8C0
:100CC000C009ACE8C009ACE8C00921F007018D46B5
:100CD000704710B50446AFF300802046BDE81040D1
:100CE000FFF7D9BA024803A1FFF776FBFEE700BF82
:100CF000C8B200084275734661756C745F48616ED6
:100D0000646C657200000000014800F0A9BB00BFE0
:100D10001CCA0020014800F0A3BB00BF7CCA002011
:100D2000014800F09DBB00BF5CC90020014800F0F5
:100D300097BB00BF3CCB0020014800F091BB00BF37
:100D4000DCCA0020014800F08BBB00BFBCC90020FA
:100D5000026840F2FF3122EA010102F0F802103A83
:100D60005F2A88BF043181651823B2FBF3F202A326
:100D70009A5CC265084670470006101600061016F9
:100D8000B0B50468806825684028084625F48025A9
:100D90002560636008BF1046A06008BF0A46E26095
:100DA000B0BD704702A004A1FFF716FB72B6FEE7C4
:100DB0000A257328290A00004572726F725F486124
:100DC0006E646C65720000004B4A0329136823F4BB
:100DD000407313604FF4407338BF0B02116819431E
:100DE0001160116821F0F8011160116841EAC0003A
:100DF00040F002001060106840F4803010607047CE
:100E00001348016889050FD5016821F4007101605C
:100E1000016841F400610160016821F40061016032
:100E2000016841F400710160016849050FD501684E
:100E300021F480610160016841F480510160016822
:100E400021F480510160016841F4806101607047C4
:100E5000003C024028490A6822F440720A600A688D
:100E600042F004020A600A6842EA002040F480303E
:100E700008607047204A136823F4407313601368B6
:100E80001360136843F0010313600170704700BFE3
:100E900010B519490C6824F440740C600C6844F4D3
:100EA00040740C600C6844F001040C600260BFF3F5
:100EB0006F8F436010BD00BF0F4A136823F4407367
:100EC0001360136843F480731360136843F00103E5
:100ED00013600180704700BF074A136823F4407312
:100EE0001360136843F400731360136843F0010345
:100EF00013600160704700BF103C02402D4801683C
:100F0000C90606D52A49CA6942F01002CA611021F1
:100F100001600168890606D52549CA6942F00802C0
:100F2000CA61202101600168490606D52049CA69C5
:100F300042F00402CA61402101600168090606D539
:100F40001B49CA6942F00202CA618021016001683E
:100F5000890706D51649CA6942F02002CA610221F2
:100F600001607047F8B5044611480021114EC16177
:100F700000F05AFD0546671C3068C00309D5002FF4
:100F8000FAD024B100F050FD401BA042F4D9032058
:100F9000F8BD3068C0071CBF01203060306810F019
:100FA000F20F04BF0020F8BDFFF7A8FF0120F8BD35
:100FB0004CD300200C3C0240F8B50022009290F87F
:100FC0003C20012A01D1022171E0012280F83C205D
:100FD0000A680A2A1FFA82FC09D34FEA4C0313FA63
:100FE00082F3A3F11E05036803F10C0604E0036815
:100FF00002EB420503F1100607273468AF40BC43FB
:1010000034608C68AC4035682C43346049680629EC
:1010100009D801EB81014C1F1F2101FA04F5194683
:1010200051F8346F14E001EB81050C2908D8A5F1C3
:1010300023041F2101FA04F5194651F8306F07E027
:10104000A5F141041F2101FA04F5194651F82C6F4E
:1010500026EA05050CFA04F40D600D682C430C60BB
:101060006349A1F54174A3421ED1122A04D10A6832
:1010700042F480020A6017E022F00103102B13D122
:101080000B68102A43F400030B600DD109490A4A8A
:101090000968B1FBF2F101EB81014900009100996F
:1010A00011B100990139F9E7002180F83C10084698
:1010B000F8BD00BF4400002040420F00002841D08E
:1010C00070B50446006C30B9204600F099F8002055
:1010D00084F83C006064206CC00635D4206C41F27A
:1010E00002118843424902302064086820F44030ED
:1010F000086094E80D0025690E6832430A60416873
:1011000021F480714160416841EA052141604168F4
:1011100021F04071416041681943364B416081685C
:1011200021F400618160E168826811438160816817
:1011300021F070618160A26A81689A4206D121F033
:1011400040510CE00120704701204CE011438160C8
:10115000816821F040518160E16A826811438160B9
:10116000816821F00201816094F82020217E83684B
:1011700043EA4101816041686AB141F400611E4A5D
:101180004160416821F460414160616A02EB413194
:101190004268114301E021F400614160174BC16ACC
:1011A00021F47001C162E269616903EB0252C36A12
:1011B0001A43C262826822F40072826094F830207E
:1011C000836843EA42228260826822F480628260FD
:1011D000826842EA81210122816000206064216CE2
:1011E00062F301012164002184F83C1070BD00BF4E
:1011F000042301400100000F00E0FFFF0000F0FFAA
:1012000010B586B0044601A81421FFF7BAFB206888
:10121000214988421BD0214988423AD100206549A2
:1012200000904A6942F480724A614A6902F480720D
:101230000092009A0090086840F001000860086879
:10124000012100F0010000900098154819E00020ED
:10125000584900904A6942F400724A614A6902F4AE
:1012600000720092009A0090086840F00400086044
:101270000868082100F0040000900098084800F574
:101280000060002203920322CDE9011201A900F0BF
:10129000F9FA06B010BD00BF002101400020014056
:1012A0000000024010B309B3B0B544790223012C09
:1012B00019D0037102F0100240F6FE7304689340E7
:1012C000256825EA0303D1E9001529439140194314
:1012D00000232160C0219140226822EA010121609F
:1012E000012143710171BDE8B04000E001231846BF
:1012F000704778B110B50446007920B900206071BC
:10130000204600F009F80220012120710020206110
:10131000217110BD01207047F0B587B0044602A8C6
:101320001421FFF72EFB2168214881423ED100267F
:10133000204900F5C63001960A6942F000520A6160
:101340000A6902F000520192019A01960A6842F07D
:1013500001020A60096801F001010191032104966C
:10136000039110210291019902A900F08BFA124D0C
:1013700012494FF0606040274FF4807C4FF4005ECC
:101380004FF400624FF48063C5E900102846C5E9B8
:101390000866C5E90276C5E90432C5E906EC00F045
:1013A0000DF908B1FFF7FEFCAC63A56007B0F0BD16
:1013B00000740040303802405CC900208860024060
:1013C00070B5866D044600F02FFB054694F8350095
:1013D000022821D12068216C026822F016020260E6
:1013E000426922F08002426109B9A16C19B1016819
:1013F00021F00801016003F0FDFA20680068C007D1
:101400000ED000F011FB401B0628F6D320206065AB
:10141000032084F835000CE080206065012008E09E
:10142000E06D3F2101FA00F0B060012084F8350042
:101430000020002184F8341070BD90F83510022986
:1014400009D1052180F835100068724603F0D2FA00
:1014500096460020704780214165012070470000BA
:10146000F8B504460020544A08210090D4E91660DB
:1014700015683768814039420CD0226813685B07D1
:1014800008D5136823F004031360B160616D41F067
:101490000101616501218140394208D02268526909
:1014A000120604D5B160616D41F00201616504214D
:1014B0008140394208D022681268920704D5B16091
:1014C000616D41F00401616510218140394217D0FE
:1014D00020680268120713D5B160026801685203E0
:1014E00006D4C90506D4016821F00801016001E0B5
:1014F000080301D4216C00E0A16C09B120468847A3
:10150000E16D202000FA01F23A4233D020680368EE
:10151000DB062FD5B26094F835300268052B15D163
:1015200022F016020260426922F080024261226CBF
:101530000AB9A26C1AB1026822F0080202603F20C8
:101540008840B06003F0FCF9216D2FE00168520380
:1015500008D4C9050AD4016821F01001016003F024
:10156000EFF903E0080301D4616C00E0E16B09B11D
:1015700020468847606DF0B1606DC00715D0052129
:101580004FF4165084F83510B5FBF0F021680A6866
:1015900022F001020A60009A01328242009202D8CF
:1015A0000A68D207F7D103F0CBF9E16C19B12046F4
:1015B000BDE8F8400847F8BD440000202DE9F0419F
:1015C000044600F031FAACB10546022084F835003B
:1015D00003F0B2FA206803F00DFA21680868C0072A
:1015E0000BD000F021FA401B0528F6D90325202650
:1015F00003205BE00120BDE8F081086804F1040CE1
:101600002D4A9CE8E81100EA020ED4E9072043EADB
:101610000E032B4333433B4343EA08031A43636AF5
:10162000104340EA0C02042B03D1D4E90B052843F4
:1016300002430A60042B486920F0070040EA0302D5
:1016400028D1D4E90A733A4323B3BCF5005F08D02C
:10165000BCF1000F14D1022F15D0012F0AD0002F9A
:1016600010E0032F16D8012540260120DFE807F0FF
:101670001E0B1E02A3F1C070B0FA80F0400904E016
:10168000032F03D306D1C3F3006018B10125402610
:1016900001200BE020464A61FFF75AFBE16D3F2233
:1016A0000026012502FA01F181600020666584F8B8
:1016B0003550BDE8F08100BF3F8010F0B0B503F0B9
:1016C0008FFA27D00120A56D84F8340094F83500F6
:1016D00001281DD1022084F83500002060652046D5
:1016E000FFF74EFBE26D3F232068216C03FA02F204
:1016F000AA60026842F01602026019B1016841F066
:1017000008010160016841F0010101600020B0BDE5
:1017100003F012FA0220B0BDB0B5044600F084F91F
:101720000546C748611C007818BF044400F07CF9E6
:10173000401BA042FAD3B0BD2DE9F843DFF8148175
:10174000054698F81800012801D1022638E001204A
:10175000894688F8180003F0EFF8064668BB4FF09A
:10176000FF303D4CC9F80000286801280AD1287CC8
:10177000FFF770FB03F0E0F80646206820F0040055
:10178000206018E0A8680746E968084487420ED23E
:10179000297C3846FFF718FB03F0CEF80646206890
:1017A00020F0FA00206026B9A8680137ECE700268F
:1017B00001E0C9F80070FFF723FB002088F818004B
:1017C0003046BDE8F88300BF2348016841F000417E
:1017D00001600020704700BF2DE9F041DFF8748000
:1017E000074698F81800012804BF0220BDE8F081E0
:1017F00001201E4614460D4688F818004CF2503061
:10180000FFF7B0FB08BB022F0CD0012F05D077B932
:10181000E1B22846FFF72EFB0EE0A1B22846FFF703
:101820004BFB09E028462146FFF756FB04E028461B
:1018300022463346FFF72CFB4CF25030FFF792FB69
:1018400005490A6822F001020A60002188F8181090
:10185000BDE8F0814CD30020103C02400648C1682E
:10186000B1F1FF3FC4BF0020704704490160044943
:101870000160C068C00F7047043C02402301674507
:10188000AB89EFCD2DE9FE4F5E4A08244FF0010BE6
:101890004FF0000C90425C4A08BF072402444FEA14
:1018A000B223072B38BF4FEAB22400F12002019483
:1018B000009200250022102A08BFBDE8FE8F0C68A8
:1018C0000BFA02FA14EA0A0900F09780D1F804E052
:1018D000032303FA0CF40EF00308E643A8F1010415
:1018E000012C12D88468D1F80CB00BFA0CF73440F4
:1018F0004FF0010B3C438460CEF3001447689440E2
:1019000027EA0A073C43446005E0B8F1030F02D11F
:101910004FF0030823E0C4688F68344007FA0CF7DF
:101920003C43B8F1020FC46019D105F01C040F2329
:10193000A84603FA04F76FF0030303EA520E009B74
:101940001D4653F80E30BB430F6907FA04F42343D6
:1019500045F80E304546D1F804E00EF0030804685F
:1019600008FA0CF3344023431EF4403F036044D094
:101970000023284C254EA8460293236843F4804355
:10198000236023680F2403F48043029305F00C03C3
:1019900022F00305029F35449C401F4FBE46EF597D
:1019A00027EA0404019F07FA03F3234345F80E30A6
:1019B000B3684D6843EA0904EF0258BF23EA0904FB
:1019C000134BB460AF029E461B6843EA090458BF3C
:1019D00023EA0904CEF80040AF03736843EA090420
:1019E00058BF23EA09047460ED033368454643EAAF
:1019F000090458BF23EA090434600CF1020C0435D1
:101A0000013258E7001C02400000FEBF003C0140CC
:101A10000C3C01404438024008FCFFFF002A08BF8C
:101A2000090481617047000006480068704700BFE4
:101A30000348044900780A6810440860704700BFF2
:101A4000040000207CE3002080B50B48016841F4CD
:101A500000710160016841F480610160016841F436
:101A600080710160032000F0A7F80F2000F006F855
:101A700000F050F8002080BD003C024070B586B0F8
:101A80000446002530480195016841F0800101605D
:101A90006946006800F080000190019801A800F0FC
:101AA00045FF049E00F062FF1649002E164B40F2DF
:101AB000E7328D6118BF0126B040C1E902520D61C5
:101AC000124EB0FBF6F00138C1E90030084601F0D3
:101AD00039FD054698B90B4801F0B2FD054670B9CD
:101AE0002C2000F033F80F2C08D82C20214600229F
:101AF000002500F03BF80648046000E00125284678
:101B000006B070BD50D10020001C004040420F00C4
:101B10000800002082B000200B4901904A6842F47E
:101B200080424A604A6802F480420192019A009021
:101B3000086840F080500860086800F0805000900D
:101B4000009802B0704700BF40380240002809D416
:101B50001C21012201EAD00100F01F0002FA00F06E
:101B6000014A8850704700BF00E100E0F0B5184B13
:101B70004FF0FF361C68C4F30224E51E84F007040E
:101B800038BF002506FA05F7BA43042C28BF042401
:101B900006FA04F4A14300F00F04A940043C1143E9
:101BA000044A234409010244002848BF03F10C02FF
:101BB0001170F0BD00E400E005494FF6FF030A682C
:101BC0001A4060F30A22034810430860704700BFC0
:101BD0000CED00E00000FA0570470068416200204B
:101BE00070470068436AB9B170B5846A013900F57D
:101BF0008270002503EB1443CCB2A54205D250F805
:101C00002560013503EB1643F7E743EA024240F84B
:101C10002120BDE8704002E043EA024181620020D9
:101C20007047D0F8E00404F057BB01EBC10200EBB1
:101C30008202D0F8E004126A04F0CBBA01EBC102D0
:101C400000EB8202D0F8E004D2F8602204F012BB6C
:101C5000D0F8E00404F042BB01F00F0249B202EBFD
:101C6000C202002900EB820303F5157248BF03F19D
:101C700014020068114605F01BBBB0B5044601F024
:101C80000F000A4602F0A3FF48BF03F114010870D9
:101C9000D009487094F89404012804BF0220B0BD14
:101CA00002F0F5FF05F09CF803F064B8B0B5044607
:101CB0000A4601F00F002179884201D9012515E07B
:101CC00002F085FF48BF03F11401087094F89404F2
:101CD0000025D2098D704A70012801D1022505E046
:101CE00002F0D5FF05F0C4F984F894542846B0BD3D
:101CF00010B502F009FE04BF022010BD01204AB257
:101D000084F894042068B2F1FF3F02DD05F00BFB7C
:101D100003E001F00F0105F023FB02F004BF01F026
:101D20000F0101EBC10100EB8100D0F868027047A0
:101D3000F8B5044601F00F000D466FF3DF2200EB0B
:101D4000C0016FB204EB8106002F06F5157148BF84
:101D500006F114018A60EA0908700B71B7F1FF3FC0
:101D60004A70D8BF4883022B04BF0020487194F802
:101D70009404012804BF0220F8BD02F088FF04F09B
:101D800081FF002084F89404F8BDB0B501F00F0184
:101D9000002501EBC10400EB840404F5187784F8F6
:101DA000541284F8555204F515712CC78379012B10
:101DB00008BFCA611A46006805F09CF90020B0BD52
:101DC00070B50279044601F00F050120954229D82B
:101DD00005EBC5024EB204EB820301EBC102002EFB
:101DE00004EB820202F5157248BF03F114029070F1
:101DF000C8091570507094F89404012804BF02209B
:101E000070BD0120114684F89404206805F057F94C
:101E10002DB9A179206804F29C4205F0FDF800205C
:101E200084F8940470BD10B501F00F0404EBC401F4
:101E300000EB810101F8144F002401F10C0CACE817
:101E40001C0001234B708379012B08BFCA611A461D
:101E5000006805F04FF9002010BD00002DE9F04F9B
:101E600087B005688246284605F0A6FA10B107B08B
:101E7000BDE8F08F02F03EFF0028F8D0D5F8080842
:101E8000C0F30D20CAF8D40402F034FF02F0B6FF0C
:101E9000890703D5416901F00201416105F500613F
:101EA000059105F0B5FA02F0A9FF0695C90634D5EB
:101EB000816921F0100181612C6A04F00F0000EBB0
:101EC000C0000AEB800000F51575C4F343400628F6
:101ED00011D002281AD147F6F07014EA000615D086
:101EE0003409E9680698224605F096FAE86800EB9E
:101EF0001610E86007E006980AF29C41082205F0F7
:101F00008BFAC4F30A14686920446861DAF80000A7
:101F1000816941F010018161069D05F079FA02F0B6
:101F20006DFF090340F1CA8005F051FA06460AF236
:101F30009C404FF430644FF000084FF0000B0490C9
:101F4000002E00F0B980F00700F0AF805FFA8BF947
:101F5000DAF80000494605F053FA0746C00757D0A3
:101F6000281901218160DAF800002118036C8A68C1
:101F70009AF80650012D1FD115072AD495063BD497
:101F8000E04DAB42069D01D9120428D40AEB0802A9
:101F9000D2F8743209696FF3DF41591AB4F5306F22
:101FA000C2F8681230D1D2F864324BB3D2F8600272
:101FB0000844C2F8600227E0D24D05F58075AB42B7
:101FC00011D1069D10040AD4900644BF20208860D9
:101FD0001AE0CC48069D83421AD9100418D54FF454
:101FE0000040886014E0069DB4F5306F0CD1DAF83B
:101FF000641249B9002104E020208860069D07E0B2
:102000000121049A05F008F850464946FFF716FEEC
:10201000380720D528190821BA4B8160DAF800105A
:1020200060180A6C81689A4212D9090444BF4FF4BF
:1020300000418160504600F031FB9AF8060001280B
:1020400009D1DAF80000049A012104F0E5FF02E06A
:10205000504600F023FBF80642BF2819102181608A
:10206000B80717D56869000604D50599486840F493
:10207000806048600AEB080090F85712012906D1E9
:10208000002180F857125046494600F03AFA2819C4
:1020900002218160B80642BF281920218160B8045E
:1020A00042BF28194FF40051816008F12408203400
:1020B00076080BF1010B43E7DAF8000005F0A8F908
:1020C00002F09CFE490340F1BB8005F079F9064619
:1020D0000AF29C4005F510690AF1140800250290E7
:1020E000CDE90398002E00F0A880F00700F0A28050
:1020F000EFB2DAF80000394605F070F90446C0077F
:1021000025D0059A05F00F00012303FA00F0516B6A
:1021100021EA0000506309EB451083609AF806003D
:10212000012810D105EBC50008EB8000D0E90212B0
:102130001144C1603DB9006928B9DAF80000029A7B
:10214000012104F069FF50463946FFF76EFD200774
:1021500042BF09EB451008218160E00642BF09EB50
:10216000451010218160600642BF09EB45104021F7
:102170008160A00715D50698294605F0F1F805EB12
:10218000C50008EB800010F8031F012905D10021CC
:1021900001705046394600F0B0F909EB45100221B4
:1021A0008160200646D505EBC50008EB800BDBE916
:1021B000040290423ED3DAF80040DBF80880811A2E
:1021C000414538BF884604EB451101F5106918E018
:1021D000DBE902819AF80630801A3A4600934045BE
:1021E00038BF80461FFA88F3204605F0E9F9DBE99D
:1021F0000310DBF8142041444244CBF80C10CBF818
:102200001420D9F8183008F103019BB2B3EB910FF9
:1022100028BF9042DCD8DDE9039890420AD805F047
:102220000F00012101FA00F0D4F8341821EA00006F
:10223000C4F834087608013554E7DAF80000069D42
:1022400005F0E6F8002802D4DAF8000018E0059955
:10225000486820F0010048609AF8CC04012807D1B2
:10226000002000218AF8CC045046FFF7B5FC02E0BC
:10227000504600F0FEF902F0B2FB01F0004141616E
:1022800005F0C6F8000502D4DAF800000BE0059866
:102290008068C00702D0504600F01EFA02F09FFB93
:1022A00001F40061416105F0B3F8C00402D4DAF82A
:1022B000000054E0D5F80408102120F00100C5F812
:1022C0000408DAF8000005F04BF89AF8041005F558
:1022D00010604FF67F32B9B182600139036823F490
:1022E00000130360C0F80822D0F8003223F4001372
:1022F000C0F80032D0F8003243F00063C0F800327A
:102300002030E8E70A30544F059C0B218422E06915
:1023100040F00110E0619AF80F00002808BF42F277
:102320002B0108BF1422A3581943A15044210AF2DB
:102330009C42002808BF1021605840F00B006050FC
:10234000206820F4FE602060DAF800009AF8061099
:1023500004F062FE02F043FB01F48051416105F09C
:1023600057F802F04BFD890419D504F0C9FCDAF8DE
:10237000000005F015F8DAF800408AF8070000F0D0
:10238000F1FA9AF807200146204605F0A1F85046D8
:1023900000F05CF902F023FB01F40051416105F00B
:1023A00037F8000702D4DAF8000007E0504600F0E2
:1023B00064F902F014FB01F00801416105F028F80E
:1023C000000606D402F096FCC00219D4DAF8000028
:1023D00038E00699012440F27B25886920F08000CE
:1023E00088619AF804008442ECD21AF805000128AA
:1023F00003D1E1B25046FFF72FFC24350134F0E75A
:1024000006980AF13B040126012700F512659AF8A7
:102410000400874211D228686178012909D1B0F1FE
:10242000FF3F06DC47F080002670C1B25046FFF740
:1024300013FC243420350137E9E702F0D0FA01F427
:1024400080114161069C04F0E3FF800202D4DAF8B7
:10245000000030E09AF8042004F532610AF51F709C
:1024600001230124944221D20D680678012E14D153
:10247000B5F1FF3F11DCDAF8D46405F4803506F0DD
:102480000106B54209D1069EB56945F08005B561E2
:1024900000F8013C75692D0603D524302031013444
:1024A000E0E70599486840F40070486002F097FA48
:1024B00001F40011416104F0ABFF400002D4DAF8EE
:1024C000000007E05046FFF7ACFB02F088FA01F08D
:1024D0008041416104F09CFF40077FF5C8ACDAF809
:1024E00000004468610704D55046FFF7B1FBDAF8F5
:1024F0000000416821434160B9E4D0F8E00403F0F2
:1025000050BFD0F8E00403F061BF7CB500284FD085
:102510000446056890F8950428B9002084F89404CE
:10252000204600F051F8032084F89504B5F1A04F3F
:1025300004BF0020A071206804F068FD94E80F003B
:10254000257C009504F0EAFB78BB2068002100257B
:1025500004F07DFF48BB207901210022002398422E
:102560000AD0A6182432F38533757175C6E907556C
:10257000756235760133F2E704F519710022002304
:1025800098420BD001F8103C41E902220A6001F8A0
:102590000C2C01F80F2C24310133F1E794E80F00E3
:1025A000257C009504F06CFC28B1022084F8950489
:1025B000012528467CBD00250120657484F895041A
:1025C000206804F051FCF4E7B0B586B0044601A8D9
:1025D0001421FEF7D6F92068B0F1A04F2FD10025C5
:1025E000184C0095206840F001002060206800F041
:1025F000010000900A2005900320CDE9035002203D
:1026000002904FF4C0500190009801A90E48FFF7C6
:1026100039F960680B21002240F08000606000956D
:10262000606940F480406061606900F4804000901F
:1026300000984320FFF79AFA4320FFF787FA06B085
:10264000B0BD00BF303802400000024010B5C17973
:10265000044621B1022901D0FEF7A4FB0121D4F8E0
:10266000E00403F024FFD4F8E004BDE8104003F0D8
:10267000D7BED0F8E00403F001BFD0F8E00403F0C7
:1026800007BF10B502F040F904BF022010BD61740D
:1026900002F0FDFA04F00CFF02F045BAD0F8E02495
:1026A00000F29C41104603F00EBF10B502F02CF969
:1026B00004BF022010BD02F086FB06D5617B012914
:1026C00003D1816B41F48031816304F026FE2068E0
:1026D00004F0BEFB02F027BA10B50446D0F8E004BF
:1026E00003F033FF2068D0F8001E41F00101C0F86C
:1026F000001EE07A20B10348016841F00601016044
:1027000010BD00BF10ED00E0F8B50446006810F001
:10271000050F1ED03B4F0020814E3860FFF784F933
:1027200005463068000105D5FFF77EF9401B0228F9
:10273000F7D92DE0D4E9010102F0F5F8054630683B
:10274000000105D4FFF770F9401B0228F7D91FE0FC
:10275000206880074FF0000044D5714E00902A4F4A
:10276000306C40F080503064306C00F0805000904D
:102770000098386840F480703860FFF755F90546D6
:102780003868C00506D4FFF74FF9401B0228F7D977
:102790000320F8BD306F10F4407010D0E16801F4F0
:1027A000407188420BD0306F184901220A60002224
:1027B00020F440700A603067306FC00713D1E068C2
:1027C0001349B268014000F4407322F4F8126FF329
:1027D0001F30B3F5407F08BF0A43B260316F084332
:1027E00030670020F8BDFFF71FF9054641F2883732
:1027F000306F8007E3D4FFF717F9411B0320B9427C
:10280000F6D9EFE76800474200700040400E4742AB
:10281000FFFCFF0F002852D02DE9F041404B044649
:102820008846D3F8000400F00700884204D283F8F9
:10283000008402F072F84BD12068810711D541075E
:1028400003D5996841F4E0519960010703D599686F
:1028500041F460419960A1689A6822F0F002114346
:102860009960C0072DD102F058F804D983F800848C
:1028700002F053F82CD12068410705D5E1689A6829
:1028800022F4E05211439960000706D52069996847
:1028900021F4604141EAC00098601C4600F080F8D5
:1028A000A168204AC1F30311515CC840394908604E
:1028B0001D480068FFF7E2F80020BDE8F081012024
:1028C00070476068811E022905D21968890107D402
:1028D0000120BDE8F08101281DD119688903F7D5D1
:1028E00099681D4621F0030108439860FFF79CF8A2
:1028F000064641F288376068A9682B4601F00C0152
:10290000B1EB800FAFD0FFF78FF8801BB842F2D940
:102910000320BDE8F08119688907D9D5E0E700BF39
:10292000003802405CB000080800002010B50F22FB
:102930004FF4E0540260184A136803F00303436045
:10294000136803F0F0038360136803F4E053C3607B
:10295000136804EAD3030361D2F8F80300F0070018
:10296000086010BD0B480068704700BF09480A495D
:102970000A4A00680968C1F38221515CC840704767
:1029800004480549054A00680968C1F34231515CB1
:10299000C840704744000020083802406CB000086E
:1029A00010B5134C606800F00C011248082903D0E0
:1029B00004291CD1104810BD2168236801F03F0292
:1029C00021685B02C1F3881105D4A1FB000100233B
:1029D000FDF789FC03E008484843B0FBF2F02168AA
:1029E0000222C1F3014102EB4101B0FBF1F010BD45
:1029F000043802400024F40000127A00002864D059
:102A00002DE9FC4104460078C44EC0070CD0B068E4
:102A100000F00C00042840F090803068800303D55B
:102A20006068002800F0A1802078800719D5B06880
:102A300010F00C0F07D002F07AF840F0998070681F
:102A4000400200F195803068800703D5E0680128D6
:102A500040F08B802069316821F0F80141EAC00024
:102A600030602078000732D42078400742D4A7692C
:102A700047B302F05CF840F0AD80012F75D0E169FA
:102A8000706800F480028A426FD1216A00F03F0230
:102A90008A426AD147F6C071626A0140B1EB821F77
:102AA00063D1A16A4FF6FF72C903914300F440322B
:102AB000A1F580318A4258D1E16A00F07060B0EB34
:102AC000016F52D10020BDE8FC8101207047606990
:102AD00000286ED092480121C0F8801EFEF7A4FFA6
:102AE0000546706F8007BFD4FEF79EFF401B02288B
:102AF000F7D9C9E0306C5FEAC0080AD40020019021
:102B0000306C40F080503064306C00F080500190A8
:102B10000198844F3868C0053DD4386840F480700F
:102B20003860FEF781FF05463868C00533D4FEF7EC
:102B30007BFF401B0228F7D9A6E001F0F8FF03D184
:102B4000706840023FF569AF30686168B1F5803F59
:102B500007D0B1F5A02F40F0828040F48020306093
:102B6000306840F48030306082E00120BDE8FC81B4
:102B7000E1686B4800294BD001210160FEF754FF4A
:102B80000546306880073FF565AFFEF74DFF401BF7
:102B90000228F6D978E0306FA168012905D005290F
:102BA00046D140F004003067306F40F001003067DC
:102BB00047E05B480021C0F8801EFEF735FF054660
:102BC000706F80077FF550AFFEF72EFF401B022885
:102BD000F6D959E05249002088460866FEF724FFDE
:102BE0000546022F09D13068800150D5FEF71CFF41
:102BF000411B03200229F6D965E7306880017FF583
:102C000061AFFEF711FF411B03200229F5D95AE7F6
:102C100000210160FEF708FF0546306880077FF558
:102C200020AFFEF701FF411B03200229F5D94AE737
:102C300020F0010000293067306F20F00400306779
:102C400045D0FEF7F1FE054641F28837306F800728
:102C50004CD4FEF7E9FE401BB842F7D914E020F44B
:102C6000803000293060306820F48020306046D009
:102C7000FEF7DAFE0546306880033FF5D5AEFEF775
:102C8000D3FE401B6428F6D90320BDE8FC811C3428
:102C90001FCC0843D90340EA82104FF6FF729143DC
:102CA00040EA0460A1F58031084370600120C8F853
:102CB0006000FEF7B9FE0446306880013FF502AFC0
:102CC000FEF7B2FE011B03200229F5D9FBE6FEF751
:102CD000ABFE054641F28837306F800706D5FEF718
:102CE000A3FE411B0320B942F6D9ECE6B8F1000F70
:102CF0003FF5BDAE306C20F080503064B7E6FEF793
:102D000093FE0546306880037FF58EAEFEF78CFE9D
:102D1000411B03206429F5D9D5E600BF00380240E5
:102D2000000047420070004068B370B50446407F21
:102D300020B900202077204600F038F80220607784
:102D40002068C168C9062BD4CA2101F000FEA8B9C9
:102D500094E80F00144E8568354085602569294345
:102D6000656929438568294381600361016941EAF6
:102D700002410161204602F09CF830B12068FF2139
:102D80004162012070BD012070472068A169026C7A
:102D900022F480220264026C11430164FF2141622B
:102DA00001206077002070BDBFFF8FFFF8B50021C4
:102DB0000068CDE901110949884200D08FBD08485B
:102DC0000390022000906846FFF79EFC08B1FDF7D3
:102DD000E9FF0448012101608FBD00BF00280040C9
:102DE000000319003C0E47422DE9F04101F0FDFEC1
:102DF0003ED06077012020774AB16978EB78287857
:102E0000AA780902460341EA03418D1816E06E785C
:102E1000DFF80881F00642BF06F0EF0000F10A0675
:102E20006E70E878C04707463046C047000240EA67
:102E30000746A878C0470644287845032068CA2179
:102E400001F085FD08B101200DE045EA060021688A
:102E500020F0C0004860204602F02BF80146012017
:102E600009B9607700200021FF22217721684A629A
:102E7000BDE8F0812DE9F84301F0B7FE4BD001F039
:102E8000C1FF0ED0400659BF0026EE70E8788605D7
:102E900069782878AA78090241EA004000EB020824
:102EA00012E0400659BF4FF0000885F80380E8782B
:102EB0004FEA8058DFF864902878C847064668785B
:102EC000C84701F020FF0644CA2078625320786288
:102ED000204601F0C7FF08B1012017E0104948EA79
:102EE0000600084021680860886820F48020886017
:102EF000D5E9030210438A6810438860204601F038
:102F0000D8FF0146012009B9607700200021FF2287
:102F1000217721684A62BDE8F88300BF434E00086C
:102F20007F7F7F00B0B5044600680949C160FEF7A5
:102F30007BFD05462068C068800644BF0020B0BD08
:102F4000FEF772FD01F0A8FE84BF0320B0BDF1E7DB
:102F50005F7F010070470000BCB50446006841680F
:102F60008268530603D4D50701D04D0618D49507BF
:102F700001D50D0612D412F4B07F0ED08D060CD5FB
:102F8000002B1DD594F85130032B0ED10021019157
:102F9000C1680191806801900198BCBD616C00E03E
:102FA000216C2046BDE8BC400847636D43F0040334
:102FB000636500230193C368019383680193019BB8
:102FC00093060CD5636D43F0010363650023019301
:102FD00083680193036823F040030360019BD205DB
:102FE00008D5626D42F00802626500220192826893
:102FF0000192019A626D002ACFD0426822F0E0026D
:1030000042600122890784F8512016D001F0B5FDF5
:10301000E06C30B10B490165FEF70FFA08B101F021
:10302000EEFCA06C0028B8D006490165FEF705FA51
:103030000028B2D001F0E3FCBCBD2046BDE8BC4096
:10304000FFF788BF2955000870B530B10446406AC3
:1030500028B100202061142006E001254AE06068C4
:10306000B0F5827F02D01C20002121500025A562EE
:1030700094F8510020B9204684F8505000F03CF8F4
:10308000022084F8510094E80F0001F4827102F4E8
:1030900004420668114403F40062114426F040061D
:1030A0000660226902F002021144626902F0010224
:1030B0001144A26902F400731944E36903F0380370
:1030C0001944236A03F080031943A36A03F40053ED
:1030D00019430160042101EA1241626A02F0100200
:1030E00011444160C16921F40061C161012065653D
:1030F00084F85100284670BD2DE9F04186B00446A1
:1031000001A81421FDF73DFC2068DC49884235D038
:10311000414988427CD1002640480096416941F4EB
:1031200080514161416901F4805101F0ABFB2820DD
:103130000190009801A93A48FEF7A4FB3A483C4D9B
:103140004FF0C0674FF4005C40234FF400614FF430
:10315000806200F58060C5E90866C5E90236C5E908
:103160000421C5E906C6C5E900072846FEF726FA88
:1031700008B1FDF717FEAC63A56449E000262748B7
:103180000096016941F480410161016901F48041C7
:1031900001F078FB4FF460400190009801A92048AD
:1031A000FEF770FB204F1F4D40204FF4806807F161
:1031B0001801C5E9001605F1080181E8410105F192
:1031C00014001421FDF7DDFB2846FEF7F7F908B1DE
:1031D000FDF7E8FDAC63A564144D142105F114005E
:1031E000C5E90076C5E90266C5F81080FDF7C9FBA0
:1031F0002846FEF7E3F908B1FDF7D4FD24200921A4
:103200000022AC63E564FEF7B1FC2420FEF79EFCCF
:1032100006B0BDE8F08100BF003001403038024008
:10322000000402407CCA0020586002401CCA0020F2
:10323000BCC9002070B501F0BCFC15D1A0681346D4
:103240000A4658B96168B1F5827F07D1042011465A
:1032500001F08BFCBDE8704000F04AB88AB383B33C
:1032600094F85010012901D1022070BD04210125DC
:1032700084F8511000216165E38784F85050A387DA
:10328000A263C4E91011A186E186B0F5004F25685C
:1032900007D1286820F040002860286820F480408A
:1032A0002860E06C6E4E484BC0E913614849C0E9A4
:1032B0000F1305F10C01E38FFEF700FA18B101F0CE
:1032C0000CFC012070BD21680868400601D401F0A3
:1032D00044FC486840F020004860002084F850001A
:1032E0004A6842F001024A6070BD00BF70477047F3
:1032F000F8B590F851500446012D36D1002958D028
:10330000002A56D0002B54D001F033FC38D00120D5
:103310002D4E2E4F84F8500094F8510004281CBF05
:10332000052084F8510000256565E386E387A386C0
:10333000A3874B4B2163A263C4E91055E06C21685D
:10334000C0E9133594F85130042B08BF3746214E9D
:103350001F4B08BF1E46C0E90F670C31E38FFEF715
:10336000ADF978B184F850501FE06068B0F5827F05
:1033700006D10220042D02D1A568002DBED0F8BDD3
:103380000220F8BD2268216BA06C536843F0010352
:103390005360C0E91355C0E90F550C32E38EFEF7B8
:1033A0008DF940B1002084F85000606D40F01000AD
:1033B00060650120F8BD21680868400601D401F06D
:1033C000CCFB01F051FBF8BD535500085F550008D8
:1033D000655500080B56000870B501F0EAFB04D1F2
:1033E00089B382B301F0C5FB01D1022070BD032077
:1033F000002384F8510001206365E286A2862163E0
:10340000A363C4E91033A38784F85000E387A0685E
:103410002268B0F5004F07D1106820F0400010601E
:10342000106840F480401060A06C0D4E0B4D0C32C3
:10343000C0E913630B4BC0E90F35E38EFEF73EF98D
:1034400018B101F04AFB012070BD216808684006F0
:1034500001D401F082FB01F007FB70BD5955000853
:1034600035550008C3550008704770470068034988
:10347000884208BF07F0D0BA704700BF003800404C
:10348000704770477047024690F83C00012804BF1F
:1034900002207047F0B501F10807D1E900C44B697B
:1034A0000020C969E0CF82F83C00126826F47C56FF
:1034B00024F4F04425F4705535432C432CF4E045B6
:1034C0002C4327F4C0452C43234323F48043194362
:1034D0005164F0BD90F83C300222012B2FD010B582
:1034E00080F83D2002680B68546824F070041C4387
:1034F0009368B2F1804F546014D06A4CA24211D04C
:10350000694CA2420ED0694CA2420BD0684CA24238
:1035100008D0684CA24205D0674CA24202D0674C4A
:10352000A24204D1496823F080031943916000222C
:10353000012180F83C2080F83D10BDE81040104685
:10354000704700BF58B110B501F0BBFB03D101F0CB
:103550002BFB00F007F801F03DFC01F055BA01200B
:1035600070470000F8B504460068E44988422BD053
:103570002F49884210D02F49884218D0E04988420C
:1035800021D1002000902C48016841F00401016025
:10359000006800F0040014E0002000902648016854
:1035A00041F020010160006800F0200009E00020E7
:1035B00000902148016841F480710160006800F4C6
:1035C000807000900098F8BD00211B481B4D4FF4FF
:1035D000005C4FF4006E4FF4806640270091426813
:1035E00000F5305342F0020242604FF06062C5E9DC
:1035F0000811C5E90271C5E9046EC5E906C1C5E94E
:103600000032406800F00200009000982846FDF764
:10361000D5FF08B1FDF7C6FB2C200F210022656203
:10362000AC63FEF7A3FA2C20BDE8F840FEF78EBA93
:10363000001400400020004040380240DCCA002056
:1036400090F83D1001291CBF01207047022180F82D
:103650003D100068C168B0F1804F41F00101C160C8
:1036600014D01049884211D0A54988420ED00F4984
:1036700088420BD00E49884208D00E49884205D0B6
:103680000D49884202D09D49884204D1724601F01A
:10369000F7F9964603D0724601F008FA96460020E4
:1036A000704700BF0004004000080040000C0040CC
:1036B00000180040000001400040014000040140AB
:1036C00010B501F0F8FA54D084F83D0001204FF60F
:1036D000777384F83C00206882689A4382600A68A5
:1036E000C2B1102A16D0202A14D0302A12D0402A73
:1036F00033D0502A28D0602A13D0B2F5005F1CD0F6
:10370000B2F5805F32D0702A1CD101F040FA41F04E
:1037100077012AE0816821F07001114341F007012F
:1037200023E04B68CA68194602F03DFB20688168B7
:1037300041F0670121F0100117E001F028FA41F48F
:10374000804112E0012012E001F005FB2068816851
:1037500041F0570121F0200107E001F0FCFA206858
:10376000816841F0470121F030018160002001F0C3
:10377000EBFA10BD7047704770B504460068C56825
:103780000669B10710D5A9070ED56FF002010161D6
:10379000012121778069800702D001F09FFA01E0C2
:1037A00001F034FA00202077700712D5680710D591
:1037B00020686FF00401016102212177806910F413
:1037C000407F02D001F08AFA01E001F01FFA0020E8
:1037D0002077300711D528070FD520686FF0080132
:1037E000016104212177C069800702D001F076FAD7
:1037F00001E001F00BFA00202077F00612D5E80670
:1038000010D520686FF01001016108212177C0698F
:1038100010F4407F02D001F061FA01E001F0F6F906
:1038200000202077F00708D0E80706D020686FF066
:1038300001010161204600F075F9300608D528061F
:1038400006D520686FF0800101612046FFF719FE60
:10385000700608D5680606D520686FF04001016142
:10386000204600F069F9B00601D5A80600D470BD65
:1038700020686FF0200101612046BDE87040FFF72D
:1038800001BE000010B586B0044601A81421FDF762
:1038900078F82068A249884213D09C4988422BD1ED
:1038A0000020022200901748016841F002010160E7
:1038B0004FF48071006800F00200009000981248F8
:1038C00010E00020032200900E48016841F004013E
:1038D00001604021006800F00400009000980A4850
:1038E00000F5806005920022CDE903220222CDE995
:1038F000011201A9FDF7C6FF06B010BD000401408A
:1039000000080040303802400004024070470000C8
:10391000B0B501F025FA04BF0220B0BD01F0D6F920
:1039200037D8DFE801F002220A1A2068294602F09F
:1039300073F9206850F8181F06E02068294602F045
:10394000CBF9206850F81C1F41F0080101600168A4
:1039500021F004010160296917E02068294602F07E
:10396000EBF9206850F81C1F06E02068294602F099
:1039700083F9206850F8181F41F400610160016864
:1039800021F4806101602969090202681143016024
:103990000020002184F83C10B0BD58B110B501F0F2
:1039A00090F903D101F000F900F006F801F012FAE5
:1039B00001F02AB801207047704770477047000037
:1039C00070B50D46044691B14120082D08BF402036
:1039D000042D08BF3F20205C02280DD0082D0DD0FB
:1039E000042D14BF04F1410004F13F0008E020461B
:1039F00010F83E1F022903D1022070BD04F14000DF
:103A00000078012850D1002A4ED0002B4CD0022043
:103A100045B1082D09D0042D14BF84F8410084F865
:103A20003F0004E084F83E0001E084F840004FEAE3
:103A3000B500032838D8DFE800F0022C101E606AB9
:103A40002E4E2168C6632E4E606A06642D4E01F02C
:103A5000E7F848BB4FF400712AE0E06A274E21687E
:103A6000C663274EE06A0664264E01F0F4F8D8B922
:103A70004FF400611CE0206B204E2168C663204E8D
:103A8000206B06641F4E01F0DDF868B94FF48051D9
:103A90000EE0A06A194E2168C663194EA06A06643A
:103AA000184E01F0C6F808B1012070BD4FF48061D6
:103AB00001F0DAF801F0E0F819D01349884216D085
:103AC0001249884213D01249884210D011498842C5
:103AD0000DD01149884205D01049884207D01049BD
:103AE000884207D1416C0E4A01F098F902D100F0EA
:103AF000C7FF01D000F0DAFF002070BD335B000883
:103B0000935B0008C75B0008000400400008004009
:103B1000000C00400018004000000140004001403F
:103B20000004014000680349884208BFFDF780BFD8
:103B3000704700BF001C004070477047704700008E
:103B4000F8B5044600680268C168466915074FEA7F
:103B500082633FD001F4907706F00106BF193DD093
:103B6000D70705D0CF0503D5676C47F00107676419
:103B7000570704D51EB1676C47F0020767649207C8
:103B800004D51EB1626C42F004026264002D07D5B8
:103B900001F02002921903D0626C42F008026264C4
:103BA000626C002A00F0E280002B05D5890603D55F
:103BB000204602F031F920684069616C00F0400055
:103BC00001F00801401847D12046FFF7B7FF002059
:103BD0006064CBE0002B01D58B0653D4236B012B03
:103BE00003D1D30601D5CB0651D4130601D50B065C
:103BF00011D4520640F1BA80490640F1B780C1683D
:103C000021F04001C160202084F841002046BDE839
:103C1000F84000F054B994F84110212940F0A680F2
:103C2000A168B1F5805F03D12169002900F09F8070
:103C3000216A4A1C226209784160E18C0139E184E1
:103C4000090440F09380C16821F08001C160C1681F
:103C500041F04001C160F8BD00F084FF00F045FF75
:103C60004DD500F07AFEFCD1E06B002847D04449E6
:103C70000165FDF7E2FB002878D0E06B016DBDE83F
:103C8000F84008472046BDE8F84002F0C5B80021DA
:103C900000910168009141680091009940694006D7
:103CA00032D4E08DA18DE28D002A5FD081425DD0BB
:103CB000081A216851E8031F226821F4907142E834
:103CC0000313002BF5D1216851E8051F226821F06C
:103CD000010142E80513002BF5D1202184F84210A0
:103CE00000212163216851E8031F226821F010019F
:103CF00042E80313002BF5D10221616330E0204636
:103D0000BDE8F840FFF71ABFE06B016849688AB266
:103D100062B3A38D9A4229D2E185C069B0F5807F54
:103D200019D0206850E8030F216820F4807000F05B
:103D3000F8FFF6D100F004FFFCD100F00EFEFCD13C
:103D4000202084F842000020206300F074FEFCD1A3
:103D5000E06BFDF735FB02206063A08DE18D401A1A
:103D600081B22046BDE8F840FFF7E7BEF8BD216A02
:103D700031F8022B6FF35F22216242605DE700BFE2
:103D8000CB5D000890B110B5044690F8410008B929
:103D900001F027F800F084FF2068016921F49041C8
:103DA0000161416921F02A0100F0F3BF0120704751
:103DB00070B586B0044601A81421FCF7E2FD206826
:103DC0003849884227D03849884268D1002037498D
:103DD00000904A6942F010024A614A6902F01002FA
:103DE0000092009A00900A6842F001020A60096895
:103DF00001F001010091072105910321CDE90301A3
:103E0000022002904FF4C0600190009801A9284858
:103E1000FDF738FD43E0002624480096016941F48F
:103E200000310161016901F40031009100990096AF
:103E3000016841F001010160006800F0010000909C
:103E4000072005900320CDE90360022002900C209A
:103E50000190009801A91648FDF714FD154D4FF487
:103E600080604021144B4FF00062C5E902162861C2
:103E700005F114001421C5E90032FCF782FD284643
:103E8000FDF79CFB08B1FCF78DFF262007210022DF
:103E9000AC63A563FDF76AFE2620FDF757FE06B06A
:103EA00070BD00BF004400400010014030380240A7
:103EB000000002403CCB0020A060024070477047E9
:103EC000024803A1FCF788FAFEE700BFC8B2000869
:103ED000486172644661756C745F48616E646C65BC
:103EE0007200000070B501310023372472B1060F53
:103EF00001F8023B04EB1075B0F1204F38BF06F11A
:103F0000300501F8035C013A0001EFE770BD10B520
:103F10000021044604F082FF08B1042010BD2046B1
:103F2000BDE8104004F0DEBF80B5034904F076FF21
:103F3000B0FA80F0400980BD60A4002010B5084AA6
:103F400000214FF4805304F0DBF9044618B105A0BA
:103F500000F01AFD02E010A0FCF760FC204610BD46
:103F60008401002046696C652073797374656D2047
:103F70006372656174696F6E206661696C65642047
:103F800077697468206572726F7220636F64653A36
:103F90002025640A0000000046696C65207379736F
:103FA00074656D2063726561746564207375636305
:103FB00065737366756C6C792E00000070B500F047
:103FC00095FC17D041F218002844017999B19E4E12
:103FD0002046317802F0A7FA687A02280AD13178AF
:103FE000204602F0A0FA994801782046BDE87040CA
:103FF00002F099BA70BD00680028E8D0687A0028FD
:10400000E5D192480178204602F08DFADFE700BF43
:1040100010B500F0D4FC14D0407A02280BD18A48A5
:104020000178204602F07FFA884801782046BDE8F2
:10403000104002F078BA49B2B1F1FF3F01DC01282B
:1040400000D110BD20460121BDE8104000F0DCB8D1
:1040500010B500F0B4FC17D0017ACA1E022A05D2AE
:1040600000212046BDE8104000F0CEB802290BD157
:1040700041F21D0141F21F02415C0244204600F062
:1040800049FFB0F1FF3F00DD10BD0121E9E700006D
:10409000F8B50446D0F8D40204F5307656F820502E
:1040A0009DB341F210002F18287A012823D060BB5D
:1040B000D7E90101C7E9090164480178204602F007
:1040C00026F91F280AD138682D49884206D1797B04
:1040D000012903D8B87B08B1112817D3797B204672
:1040E0000522202301F0F2F9022068722046BDE883
:1040F000F840FFF763BF41F21F00797B2A18204682
:1041000000F008FFB0F1FF3F30DDF8BD41F21F00C5
:104110002A18204600F0FEFE297AB0F1FF3F23DD89
:10412000481E0328F1D3EB6833B3D4F8D40256F811
:1041300020000028E9D041F21801002201440E6A53
:1041400081F824200A68F61A0E62042101723E48A2
:104150009A4238BF134605F110020178204601B09B
:10416000BDE8F04002F0FEB90529BFD1204601218B
:10417000BDE8F84000F048B820460021F8E700BF4D
:1041800055534243D0F8D41200EB8100D0F8C0025E
:1041900008B100210172704770B500F0A7FB1AD07A
:1041A000002205F583512A810A808A70D0F8C40262
:1041B000016800208847254E2046317802F09EF89D
:1041C00021480178204602F099F800F09CFCBDE8F7
:1041D000704002F01CB970BD70B500F087FB12D0C2
:1041E0004FF48070288118480178204601F0DFFFE5
:1041F000164E2046317801F0DAFF00F084FCBDE86D
:10420000704002F004B970BDB0B500F06FFB18D07B
:1042100041F230000D232A180A4811731060002063
:10422000287209480178204602F09CF941F21000FA
:104230001F232A18054801782046BDE8B04002F047
:10424000E6B8B0BD555342530000002001000020E5
:10425000BFB513482B4B134A002401254FF40031FE
:104260000394C46280F820400576836280F8304071
:10427000C561C0E90021C0E90244C0E90454FCF76B
:104280001DFF08B1FCF78EFD06206946CDE900450B
:1042900002900348FCF790FE08B1FCF783FDBFBD18
:1042A000B8C8002000200140BFB51448154D144B7C
:1042B000002101244FF400320391C16280F82010E4
:1042C0000476856280F83010C461C0E90032C0E92C
:1042D0000211C0E90441FCF7F1FE08B1FCF762FDF0
:1042E00006206946CDE901400D2000900348FCF707
:1042F00063FE08B1FCF756FDBFBD00BF00C900203A
:10430000002101400100000FE0B50A480A490160A0
:104310000021019114210091FCF7EBFF08B1FCF79B
:1043200041FD044869460022FCF7BCFF08B1FCF7D8
:1043300039FD8CBD48C9002000740040BCB5002088
:104340005F491E4C01900A6842F480020A600A68C4
:1043500002F480020192019A00900868002240F461
:104360000010086008680A2100F40010009000980E
:104370000E20A047124D0E20A8470F200A21002230
:10438000A0470F20A847102005210022A047102099
:10439000A847112000210022A0471120A8473A2059
:1043A0000F210022A0473A20A8473B2000210022ED
:1043B000A0473B202946BDE8BC4008476D1B0008CC
:1043C0004D1B00082DE9F04F87B00DF108081421AE
:1043D0004046FCF7D6FA002439483A4FDFF8E8B0F7
:1043E00000224FF0420A0194016841F0800101600F
:1043F000016801F0800100F040FA41F00401016021
:10440000016801F0040100F038FA41F00101016097
:10441000016801F0010100F030FA41F00201016091
:104420004221006800F00200019001983846D84708
:1044300007F580654FF4805101224FF001092846AD
:10444000D84707F500664FF4407100223046D84740
:104450002846C0210022D847CDE902A9DFF86CA088
:1044600038464146CDE90444D047284641460494A5
:10447000CDE90294D04702204146CDE9034902909C
:104480002846D04703204146CDE9039405904FF4D8
:10449000805002902846D0474FF440704146059422
:1044A000CDE9039402903046D047C02041460594A0
:1044B000CDE9039402902846D04707B0BDE8F08FBD
:1044C00030380240000002401D1A0008851800081C
:1044D00010B586B01748184B002440F6C3117F2250
:1044E000CDE90244CDE90044C0E90034C0E902212D
:1044F000C0E904448461FEF717FC08B1FCF752FCE4
:104500000C48CDE904448DF80640ADF8044001A9FB
:104510000122FEF7AFFC08B1FCF744FC07486946EE
:10452000012200900348FEF75FFC08B1FCF73AFC5B
:1045300006B010BD80D0002000280040010101001D
:1045400070B50D4800214FF400720C4E4FF4827587
:1045500001230224C0E906210A22C0E90065C0E95E
:104560000211C0E9044300F012FA18B1BDE870402E
:10457000FCF718BC70BD00BFA0D000200030014087
:1045800010B50C480C4B4FF4827200214FF40074AC
:10459000C0E900320A22C0E90211C0E90411C0E9F1
:1045A000064100F0F4F918B1BDE81040FCF7FABB81
:1045B00010BD00BFF8D000200038004080B5094889
:1045C000094B00214FF6FF728161C0E90031C0E95B
:1045D00002120161FEF7B6FF18B1BDE88040FCF79A
:1045E000E1BB80BD98D100200020004010B58EB006
:1045F00000241C210D94CDE90B44CDE9084401A809
:10460000FCF7BFF91D481E4B6321D1228461C0E92C
:104610000032C0E902410461FEF794FF08B1FCF7E3
:10462000C1FB4FF480500A9014480AA9FFF748F8DC
:1046300008B1FCF7B7FB1148FFF7AFF908B1FCF779
:10464000B1FB00240D48CDE9084408A9FEF742FF5C
:1046500008B1FCF7A7FB60200594CDE902440822CD
:104660000190064801A9FFF753F908B1FCF79AFB3E
:104670000248FFF707F90EB010BD00BFE0D10020DF
:10468000000800401CB50D4800217C220C4C53232F
:1046900001918161C0E902122021C0E9004300912B
:1046A000FEF750FF08B1FCF77DFB04486946FEF7B2
:1046B00011FF08B1FCF776FB1CBD00BF28D200201B
:1046C00000140040B0B596B000251C211595CDE929
:1046D0001355CDE9105509AC2046FCF752F901A855
:1046E0002021FCF74EF92648264AA721C0E90025DB
:1046F000C0E90251C0E904558561FEF723FF08B106
:10470000FCF750FB4FF4805012901D4812A9FEF7A1
:10471000D7FF08B1FCF746FB1948FFF73EF908B18F
:10472000FCF740FB0020CDE91000154810A9FEF76A
:10473000D1FE08B1FCF736FB602018210990201D3E
:10474000FCF71FF90E48214600220025FFF7E0F88C
:1047500008B1FCF727FB01AC14212046FCF711F946
:104760004FF400502146089506900548FEF78BFE51
:1047700008B1FCF717FB0248FFF784F816B0B0BD8C
:1047800070D200200004014010B50748074C0021FA
:104790000C224FF4E13300F088F818B1BDE8104066
:1047A000FCF700BB10BD00BFB8D2002000100140D4
:1047B00010B50748074C00210C224FF4165300F0A7
:1047C00074F818B1BDE81040FCF7ECBA10BD00BF9A
:1047D00000D300200044004080B50F480F4900225C
:1047E00001F0D2FC08B1FCF7DDFA0B480C4901F0EE
:1047F000EEFF08B1FCF7D6FA07480A4901F064FF5A
:1048000008B1FCF7CFFA044802F006F818B1BDE889
:104810008040FCF7C7BA80BDDCC500200C0000203A
:1048200060000020C4000020024803A1FBF7D4FD73
:10483000FEE700BFC8B200084D656D4D616E61674F
:10484000655F48616E646C6572000000024803A1F8
:10485000FBF7C2FDFEE700BFC8B200084E4D495F3E
:1048600048616E646C6572000148FDF7F7BA00BFDD
:104870009CCB00200A20FCF74FBF019101990194C5
:1048800001687047009100990096016841F00201AB
:104890000160006800F002000090052005900320F0
:1048A000CDE90360022002907047C0E90043C0E9EF
:1048B0000211C0E90412C0E90611FFF763BA2146EC
:1048C00001F03ABC0020C4F8D4022046104720462C
:1048D00001F085BBC0F89412002101F043BE00F046
:1048E0000F0000EB800004EB800070470446D0F816
:1048F000D40204EB8000D0F8C052002D7047D0F8ED
:10490000C402816838460847044690F89404012898
:104910007047C0F8041800207047D3F8000400F076
:10492000070040457047090741EA8010C6F8840037
:1049300001203860FDF778B84CF25030FCF712BB1C
:10494000002084F83400012084F83500704741626B
:1049500053214162204600F085BA206850E8050FD7
:10496000216820F0400041E80502002A7047A0F5C8
:104970008061484602F094BE0021002200232047B7
:104980000144284605F000BF2146FBF725BDC0E9DC
:104990000811C0E90A12FEF757BB0020C4F8D40280
:1049A00020460847204601F037BBC0F8941200218A
:1049B00001F02DBD05463046012101F09FBB0446A4
:1049C000D0F8D40204EB8000D0F8C0020028704771
:1049D000D5F8D40258F82000C16838460847DAF8FC
:1049E0000000416970470099013100910099B1F1CF
:1049F000706F7047016821F0010101607047606DC0
:104A000040F0400060657047012084F8460084F85B
:104A10003E0084F83F0084F8400084F8410084F8A8
:104A2000420084F8430084F8440084F8450084F888
:104A30003D00002010BD206850E8030F216820F0E1
:104A4000100041E80302002A70474FF40042534629
:104A500004F024B9016851E8051F026821F0010142
:104A600042E80513002B7047486840F0200048607A
:104A7000002084F850004A6842F002024A60704701
:104A8000816801F0070106297047016851E8031F9A
:104A9000026821F0100142E80313002B704704461E
:104AA00006F054BA0123012503F0CEBA016841F0A3
:104AB0000101016070472068416821F020014160D8
:104AC0007047204604F058BEBDF852105046FBF720
:104AD00036BF846B0546FCF7A7BF002084F8500062
:104AE000606D40F0100060657047206840694006C6
:104AF000704794F89C0201380228704704468121CF
:104B0000304601F0FBBA41F2100031781F232A1819
:104B100020467047D6F8020002BACAF85420D6F8E8
:104B2000060003BA7047002084F8940410BDB068F2
:104B300000F00C0008287047002084F8340070470B
:104B4000206850E8050F216820F0010041E80502C7
:104B5000002A7047284605F017BE086840F040005C
:104B600008607047204601F036B984F851002046AD
:104B7000704794F8500001287047416821F0030104
:104B800041607047024628680068C0057047D1E957
:104B90000123C9681A4342EA0121826822F47F4254
:104BA0001143816081687047002084F83C002046F2
:104BB0007047044690F8510001287047D6F802006B
:104BC00002BACAF85420B6F8070043BA704700EB9F
:104BD000C00155B204EB8103002D03F51571704738
:104BE000044690F83400012870470D46017F0446C2
:104BF000022001297047012084F85100606D0028CF
:104C00007047207C00F07F00207470474DF808ED5D
:104C10002046FEF77BFE20465DF808EBFEF7CDBE92
:104C2000606AC66401F134061146606A3246FCF7D8
:104C300045BDA06AC66401F138061146A06A324635
:104C4000FCF73CBD206BC66401F140061146206BA9
:104C50003246FCF733BDE06AC66401F13C061146FA
:104C6000E06A3246FCF72ABD2068C268114301227F
:104C7000C160294600F04EBF2068B0F1804F7047F8
:104C800005F5317858F82100816838460847012039
:104C900084F8940420687047401BB0F57A7F704711
:104CA000242084F841002068C16821F40051C160CB
:104CB000204601F00FB990F83C2004460220012A5A
:104CC0007047044690F83D00002870470D460120CB
:104CD0004FEAB201032984F83C0070472046FEF7F2
:104CE0004ABD0020207710BD28463946CAF8583002
:104CF00000F0F3B8DAF8000002F08ABBC9F8380017
:104D0000D9F838007047000240EA0646A8784847BC
:104D1000002001902068C16801918068019001988D
:104D2000704741E80302002A70472046002102F044
:104D3000B1BE846B616A814270470262B8428C687E
:104D4000D1F800C045687047002184F83C1001216B
:104D500084F83D1070474B68CA68194601F012B8D4
:104D6000044690F83C0001287047D0F8C402C1689E
:104D700038460847002084F89404B0BD0A5842F031
:104D800000620A500A5842F080420A5042F2107201
:104D900070474161C16841F40051C1600020202189
:104DA000606484F8411084F84210606310BD94F987
:104DB0001000B0F1FF3F7047BAF84C00DAF8582005
:104DC000DAF8001070470121206884F89414C16853
:104DD000490670470220211D84F83D00206800F03C
:104DE00027BE002084F840002046FEF7E1BF0123E3
:104DF0000127AAF8FE01284603F036B90146DAF881
:104E0000000070476077012027682077002AB86883
:104E10007047606D40F020006065704741F40041CC
:104E2000416440F4806191427047787804F12C012C
:104E30000123012503F018B92046642100F030BC9D
:104E400070470928014698BF09210A22B1FBF2F2F6
:104E500002EB8203A1EB4303591A084440EA021013
:104E6000C0B270472DE9F04104460068C1684906A8
:104E70001BD4C1680026012741F08001C160FCF706
:104E8000D3FD05464FF00408FF432068C06847EA99
:104E90009010C0070AD1FCF7C7FDFFF7FDFEF4D95B
:104EA00084F81D8001260027EEE70026F0B2BDE859
:104EB000F08110B504460068C16821F08001C1602E
:104EC0008068800607D42046FEF72CF818B104202D
:104ED0006077012010BD002010BDD0F8D41200EB87
:104EE0008101D1F8C01269B110B541F268041A44C9
:104EF00009598A4208D900210522212300F0E6FA47
:104F0000FF2002E0FF2002E00020BDE8104040B298
:104F1000704700002DE9FC470F46D0F8D412054633
:104F200000EB8100D0F8C042002C00F0268216462B
:104F300041F2180204EB020A3278A2F11A03102B94
:104F400026D9AA2A00F05081032A00F01581122ADE
:104F500000F030812F2A00F01D815A2A00F0D08005
:104F60009E2A00F0E880A82A00F0D880002A2AD1E2
:104F7000DAF80010002940F0FA819AF84A10022964
:104F800000F07C81FFF7BBFC002840F077810EE148
:104F9000DFE803F009411919221919191958199054
:104FA00019192B197200FFF7E0FE28B1DFF8D803BA
:104FB000817841F0800181703279DFF8CC13042AC6
:104FC00028BF04220BE1284600210522202300F0FF
:104FD0007DFA02206072D0E131790020E060002982
:104FE00018BF01218AF84A10C8E1217A002940F04F
:104FF00099809AF90410002940F1B9819AF84A1071
:10500000022900F02881FFF77AFC002840F0238174
:10501000FFF7D4FD81E130799AF84A1000F00300DF
:10502000012908BF022800F03A810138022800F265
:10503000BE80C0004FF40071C0B221FA00F08AF8BF
:105040004A00B4E0D0F8C40269460DF10602436894
:1050500038469847002840F0FE809AF84A00022817
:1050600000F0F98004F11000002100220C2A00F069
:105070001B8181540132F9E7207A002840F0B68084
:10508000DAF80000002800F072819AF90400B0F10B
:10509000FF3F40F36C81FFF7F3FD002840F0DB8019
:1050A000FFF796FC002800F04481284600210222E8
:1050B000272360E1D0F8C4020AF150060AF14C0837
:1050C00031464246436838469847002840F0C3803E
:1050D0009AF84A00022800F0BE8008210020E16012
:1050E0003168A08201390A0AE174A2740A0C090E1F
:1050F0002174B8F80010627409BA090CE1823DE12C
:10510000FFF733FE20B19F48C17841F08001C170A4
:10511000327A9C49082A28BF082260E0217A0029B7
:1051200000F08C804FF480503946E0602846BDE89E
:10513000FC4700F02FB9D0F8C4020AF150090AF177
:105140004C0849464246436838469847002840F094
:1051500082809AF84A0002287DD0D6F80A00002101
:10516000002302BA04F11000E260934280F0B180A3
:10517000C1540133E268F8E7DAF80000002800F0D3
:10518000F68004F1100000210022122A34D081544C
:105190000132FAE77078800700F18180DAE915239F
:1051A00028463946FFF799FE002800F1E6800020E6
:1051B000E060E3E0DAF80010002900F0D8807178B0
:1051C000C90764D1D0F8C40207EBC7013279C069BE
:1051D00000EB810108790530904238BF0246204635
:1051E00000F092F90020C9E0207AC8B32846394679
:1051F000BDE8FC4700F018B90C209AF84910E0759A
:10520000702020749AF84800884210D004EBC00146
:105210004FF4825201308A5C01F582518988A27470
:10522000A183C1B2043918BF01468AF84810122080
:10523000E0603079122898BFE060D3E79AF9041053
:10524000002940F194809AF84A10022903D0FFF710
:1052500056FB00285FD02846002102223A238AE02C
:10526000DAF80000002800F082809AF90400B0F11A
:10527000FF3F7CDDFFF704FD002844D028460021D5
:1052800002223A2300F022F90520207275E0B0785E
:10529000802834D018B93E4920460622A0E7284687
:1052A00000210522242366E00820E07402202083E8
:1052B0000C20E06000980138010AE075A175010C2E
:1052C000000E2075BDF80600617500BA000C608301
:1052D00088E7D9F800100020208301390A0AE17517
:1052E000A2750A0C090E2175B8F80010627509BA8A
:1052F000090C6183D6F80A1009BAE1603EE023493F
:10530000204608226CE7FFF763FBA8B1284600217E
:1053100002222723B6E7FFF7FDFBFFF7E5FC002895
:105320002BD4FFF749FD5043814220D10220207247
:10533000F8E6FFF743FC01E0FFF7ECFBFFF7D4FCD6
:1053400000281AD4FFF738FD02FB00F399420ED172
:10535000012004F1100220725B48B3F5805F28BF82
:105360004FF480530178284601F051F83AE7284677
:1053700000210522202300F0A9F8FF2040B2BDE85B
:10538000FC8700BF28000020300000203A000020E9
:10539000340000202DE9F0410446D0F8D40204EB9B
:1053A0008000D0F8C072C7B341F2380207F110088C
:1053B000BE18B38DD6E90D255D43B5F5805F28BFD6
:1053C0004FF48055D0F8C402B5FBF3F3D0F810C009
:1053D00008464146E047B0F1FF3F18DD114842461C
:1053E0002B460178204601F0BDF83068B38DD6E930
:1053F0000D12401B3060A8B2B0FBF3F00144101A4C
:10540000C6E90D1004BF03203872002006E02046D4
:1054100000210422112300F059F8FF2040B2BDE81A
:10542000F08100BF000000202DE9F0410446D0F8D3
:10543000D40204EB8005D5F8C00290B341F23802E3
:1054400000F11008861808464146B38DD6E90D27AD
:105450005F43B7F5805F28BF4FF48057D5F8C4523B
:10546000B7FBF3F36D69A847B0F1FF3F13DD306878
:10547000BBB2D6E90D12C01B3060B08DB3FBF0F3A8
:10548000CD18D11AC6E90D510DD1204600210025B5
:10549000FEF7BAFE15E0204600210422032300F0A7
:1054A00015F8FF250DE001FB00F307484246B3F570
:1054B000805F28BF4FF480530178204600F0A7FF9B
:1054C000002568B2BDE8F08101000020D0F8D412B8
:1054D00000EB8100D0F8C002A8B170B541F26101C3
:1054E0004FF48256445C00EBC405AA55621CD4B24A
:1054F000043C18BF1446445405F582500021417104
:105500000371BDE870407047C2600F3001391AB1B5
:105510008B5C8354013AFAE7704700000148FDF7BD
:105520001BBD00BFF8D00020806B0021C187C18661
:10553000FDF710BD806B01684A6822F003024A60E3
:10554000416D41F010014165012180F85110FDF7D6
:1055500001BD806BFDF7CBBE806BFDF786BF806B16
:10556000FDF78EBFB0B5FFF7B4FAFFF70BFB23D4FE
:105570002068A168436823F02003436031B9616863
:10558000B1F5827F02D16FF0030101E06FF00101FC
:105590004368194041602046642100F056F808B184
:1055A000202060650020E087FFF725FB04D020461F
:1055B000BDE8B040FDF7CEBC2046BDE8B040FDF7E9
:1055C00095BEBCB5FFF785FAFFF7DCFA18D4FFF7F4
:1055D00072FA416821F002014160FFF72DFC08B129
:1055E000FFF717FCA06808B9FFF792FB0020E086E0
:1055F000FFF701FB04D02046BDE8BC40FDF7AABC84
:105600002046BDE8BC40FDF72FBFB0B5FFF761FAFB
:10561000FFF7B8FA14D4FFF74EFAFFF70DFC08B104
:10562000FFF7F7FB2068FFF7A8FA0020E086E08785
:10563000FFF7E1FA04D02046BDE8B040FDF78ABC90
:105640002046BDE8B040FDF711BFBCB50446406838
:105650000B46B0F5827F0ED1A068B0F5004F02D0A6
:10566000B0F5806F0CD12168B0F5806F0D6825F022
:1056700040050D6004D1002520460121009203E081
:105680000092002520468021002200F041F820B140
:10569000606D032540F0200060652846BCBD000019
:1056A0007CB50D46164600920221012204462B4687
:1056B00000F02EF828B1606D032640F020006065F0
:1056C00021E0424811490068B0FBF1F04FF47A71D3
:1056D000484301906068B0F5827F0AD1204680215E
:1056E00000222B460096002600F012F80028E2D196
:1056F00009E0019830B10198013801902068806874
:105700000006F6D4002630467CBD00BF00366E0190
:105710002DE9F843089F1C4615460E468046FCF7C7
:1057200083F9381A0719FCF77FF9814627480134B5
:105730000068C0F3CB3078430090D8F8000081684F
:105740003140891BB1FA81F14909A9420FD0002CDF
:10575000F5D0FCF769F9A0EB0900B8420AD200982D
:10576000009901390091002808BF0746E5E70020AD
:10577000BDE8F883D8E900014268B1F5827F22F0E4
:10578000E00242600BD1D8F80810B1F5004F02D00A
:10579000B1F5806F03D1016821F040010160D8F8B4
:1057A0002810B1F5005F07D1016821F400510160B4
:1057B000016841F400510160002088F85000012088
:1057C00088F851000320BDE8F88300BF44000020A2
:1057D000B0B514460D4605F0C1F928604FF480506D
:1057E00020800020B0BD0020704780B5002005F06B
:1057F000BBF9002818BF032080BD0020704700209F
:105800007047000070B50846154611031A031C4680
:1058100005F020FA064607A111A02246002E08BF77
:1058200008462946FAF7D8FD002E18BF0326304651
:1058300070BD00BF09666C61736820726561643A6F
:1058400020736563746F722025642C20636F756EFE
:10585000742025642C20737563636573730A0000DC
:1058600009666C61736820726561643A20736563D0
:10587000746F722025642C20636F756E742025640C
:105880002C206661696C65640A0000002DE9F04710
:1058900017039A46914688465D1C11A63846013D7D
:1058A00008D000F5805405F029F900282046F6D0EC
:1058B00003270CE04FEA0A324046394605F02AFA3F
:1058C00007461DA611A0002F0CBF06460327304631
:1058D00049465246FAF780FD78B2BDE8F08700BF2E
:1058E00009666C6173682065726173652073656316
:1058F000746F722025642C20636F756E742025648C
:105900002C206661696C65640A00000009666C61A0
:1059100073682077726974653A20736563746F7277
:105920002025642C20636F756E742025642C2073F1
:105930007563636573730A0009666C617368207729
:10594000726974653A20736563746F722025642CE4
:1059500020636F756E742025642C206661696C6508
:10596000640A00007047704770B592B006AC3021F1
:105970002046FBF706F801A81421FBF702F80025E2
:105980001E4802260095016841F0805101600068C0
:1059900000F080500090009800951948016841F48B
:1059A00080410160006800F480400090072010965C
:1059B0001190A8200F9004200E904FF48000CDE9A4
:1059C0000C604FF48030079001200690009820462C
:1059D000FDF714F880B94FF48050CDE90265052138
:1059E00005904FF4A05004900F20019001A8FCF7FF
:1059F00011FF08B912B070BDFBF7D4F9403802406E
:105A0000007000400248016841F470010160704775
:105A100088ED00E080B50448FDF7AEFE0348BDE820
:105A20008040FDF7A9BE00BF70D2002050D10020F9
:105A300070B52E4A0368904234D0B0F1804F0BD03D
:105A40002B4CA04208D02B4CA04205D0CC4CA042FD
:105A500002D0294CA04203D14C6823F070032343A9
:105A6000B0F1804F22D0224CA0421FD0214CA04246
:105A70001CD0214CA04219D0204CA04216D0204C62
:105A8000A04213D01F4CA04210D0BD4CA0420DD05C
:105A90001D4CA0420AD01D4CA04207D01C4CA04275
:105AA00004D007E04C6823F070032343CC6823F450
:105AB000407323434E6923F080030C688D683343A1
:105AC00090420360C562846203D002F58062904216
